:020000040000FA
:100000000C9462000C948A000C948A000C948A0070
:100010000C948A000C948A000C948A000C948A0038
:100020000C948A000C948A000C948A000C948A0028
:100030000C948A000C948A000C948A000C948A0018
:100040000C94D70D0C948A000C94470E0C94210E3E
:100050000C948A000C948A000C948A000C948A00F8
:100060000C94790E0C948A000000000023002600F6
:10007000290000000000240027002A0000000000E2
:10008000250028002B0004040404040404040202D4
:100090000202020203030303030301020408102007
:1000A0004080010204081020010204081020000012
:1000B0000008000201000003040700000000000027
:1000C0000000980F11241FBECFEFD8E0DEBFCDBFD8
:1000D00011E0A0E0B1E0E6E9F3E202C005900D9284
:1000E000A43CB107D9F724E0A4ECB1E001C01D9213
:1000F000AB36B207E1F710E0C2E6D0E004C02197CA
:10010000FE010E94AD11C136D107C9F70E949810B7
:100110000C94C9110C940000662329F06A3019F080
:10012000862F90E008958FEF9FEF0895AF92BF92D2
:10013000CF92DF92EF92FF920F93CF93DF93EC0178
:10014000DA017901942F9770E1E0F0E09F01092E28
:1001500001C0220F0A94EAF7522F6E018AE8C80EF6
:10016000D11CF601808140E0823018F4422F8130AA
:1001700049F15D01F8EFAF22E8ADF9AD2881398191
:10018000D90150968C918A9D90018B9D300D112440
:10019000620F731FDF01A60FB71F01111AC0EA0E0D
:1001A000FB1E8C91842B85278D93AE15BF05C9F757
:1001B000DF91CF910F91FF90EF90DF90CF90BF90A4
:1001C000AF90089550E0D5CF440F550FE114F104DE
:1001D00079F33C91342B35273C939F5F9770E1E096
:1001E000EE1AF1089111F0CF2CAD3DADA20FB31F67
:1001F000F6018081823028F4813009F051E041E03D
:10020000E5CF51E0E3CF80E0089590E080E00895ED
:10021000CF93DF93C5EDD3E08FAFEAADFBAD019097
:10022000F081E02D89ED93E00995EAADFBAD028008
:10023000F381E02D89ED93E0DF91CF910994CF9286
:10024000DF92EF92FF920F931F93CF93DF9300D033
:1002500000D01F92CDB7DEB7C090130400911404F4
:10026000E091D903F091DA03D188102FF12CE12C21
:10027000E091D903F091DA03808920911104309143
:1002800012041C821D838B8348E0849FC0011124CB
:100290008E9DA0018F9D500D9E9D500D1124240F09
:1002A000351F3A832983E091DD03F091DE039E013F
:1002B0002F5F3F4F41E06FE089ED93E009951F5FAD
:1002C000812F801B8C1528F48FEFE81AF80A1D1572
:1002D00078F20F900F900F900F900F90DF91CF91C9
:1002E0001F910F91FF90EF90DF90CF9008959B01A9
:1002F000DC011896ED91FC9141E067E109948330AF
:1003000081F028F4813099F08230A9F00895873087
:10031000A9F08830C9F08430B1F4809180008F7DDD
:1003200003C0809180008F7780938000089584B50A
:100330008F7784BD089584B58F7DFBCF8091B00009
:100340008F778093B00008958091B0008F7DF9CFB2
:100350001F93CF93DF93282F30E0F901E255FF4F31
:100360008491F901E656FF4FD491F901EA57FF4F06
:10037000C491CC23A9F0162F81110E947F01EC2F8C
:10038000F0E0EE0FFF1FE458FF4FA591B4918FB737
:10039000F894EC91111108C0D095DE23DC938FBF47
:1003A000DF91CF911F910895DE2BF8CFCF93DF938C
:1003B00090E0FC01E656FF4F24918A579F4FFC01C5
:1003C00084918823D1F090E0880F991FFC01EE58AA
:1003D000FF4FA591B491FC01E458FF4FC591D49112
:1003E000623071F49FB7F8943C91822F80958323FB
:1003F0008C93E8812E2B28839FBFDF91CF910895A6
:100400008FB7F894EC912E2B2C938FBFF6CF3FB77C
:10041000F8948091A8029091A902A091AA02B091AB
:10042000AB0226B5A89B05C02F3F19F00196A11D70
:10043000B11D3FBFBA2FA92F982F8827BC01CD012E
:10044000620F711D811D911D42E0660F771F881F8D
:10045000991F4A95D1F70895AF92BF92CF92DF923C
:10046000EF92FF920F931F93CF93DF936C017B0169
:100470008B01040F151FEB015E01AE18BF08C017FA
:10048000D10759F06991D601ED91FC910190F0816D
:10049000E02DC6010995892B79F7C501DF91CF9130
:1004A0001F910F91FF90EF90DF90CF90BF90AF9092
:1004B0000895FC01538D448D252F30E0842F90E06A
:1004C000821B930B541710F0CF960895019708954F
:1004D000FC01918D828D981761F0A28DAE0FBF2F18
:1004E000B11D5D968C91928D9F5F9F73928F90E06E
:1004F00008958FEF9FEF0895FC01918D828D9817DD
:1005000031F0828DE80FF11D858D90E008958FEF19
:100510009FEF0895FC01918D228D892F90E0805CE2
:100520009F4F821B91098F73992708958CEA92E05F
:100530000E948A0221E0892B09F420E0822F08958D
:1005400080E090E0892B29F00E94960281110C94A2
:1005500000000895FC01A48DA80FB92FB11DA35A66
:10056000BF4F2C91848D90E001968F739927848FD3
:10057000A689B7892C93A089B1898C9183708064F6
:100580008C93938D848D981306C00288F389E02D97
:1005900080818F7D80830895EF92FF920F931F9348
:1005A000CF93DF93EC0181E0888F9B8D8C8D981326
:1005B0001AC0E889F989808185FF15C09FB7F89432
:1005C000EE89FF896083E889F9898081837080647E
:1005D00080839FBF81E090E0DF91CF911F910F91C9
:1005E000FF90EF900895F62E0B8D10E00F5F1F4FD8
:1005F0000F731127E02E8C8D8E110CC00FB607FCE7
:10060000FACFE889F989808185FFF5CFCE010E9474
:10061000AA02F1CFEB8DEC0FFD2FF11DE35AFF4F36
:10062000F0829FB7F8940B8FEA89FB898081806202
:10063000CFCFCF93DF93EC01888D8823B9F0AA89BF
:10064000BB89E889F9898C9185FD03C0808186FD8D
:100650000DC00FB607FCF7CF8C9185FFF2CF8081DC
:1006600085FFEDCFCE010E94AA02E9CFDF91CF91A5
:10067000089520915702260F3327331F2132310569
:10068000ECF420917D02FC0190E080E0243069F0E0
:1006900082E00895A09157022191AC014B5C5D4F1F
:1006A000A40FB52FB11D2C930196861798F3809156
:1006B0005702680F6093570280E0089581E0089523
:1006C00010927D0281E080937F0210927E0261E0B1
:1006D00082E10E94A80161E083E10E94A801E9EBA8
:1006E000F0E080818E7F808380818D7F808388E4AD
:1006F0008093B80085E48093BC000895CF93DF9386
:1007000091E0909334028823B9F0C091B800D09161
:10071000BA008091BC008A7B8093BC0060E082E1DB
:100720000E94A80160E083E10E94A8010E9460038A
:10073000D093BA00C093B800DF91CF910895089587
:1007400008950895E0912C0280912B02E81730F46F
:10075000F0E0E55FFD4F808190E008958FEF9FEF1F
:10076000089590912C0280912B022FEF3FEF981764
:1007700048F4E92FF0E0E55FFD4F208130E09F5F16
:1007800090932C02C901089580912B0290912C0224
:10079000891B990B0895CF92DF92EF92FF920F93EE
:1007A0001F93CF93DF937C01CB018A0120910A0232
:1007B000222389F0EB016B01C40ED51ECC15DD059B
:1007C00069F06991D701ED91FC910190F081E02DE4
:1007D000C7010995F3CF642F0E943903C801DF9147
:1007E000CF911F910F91FF90EF90DF90CF900895E0
:1007F000CF93DF931F92CDB7DEB7698320910A02B2
:100800002223F9F020912D02203258F021E030E02F
:10081000FC013383228390E080E00F90DF91CF9141
:10082000089580912E02E82FF0E0E651FE4F998165
:1008300090838F5F80932E0280932D0281E090E061
:10084000ECCF61E0CE0101960E943903F7CFDC01C5
:100850001A96ED91FC9130E020E00994DC011696A7
:10086000ED91FC9130E020E040E069E10994DC0189
:100870001696ED91FC9130E020E040E068E10994AB
:100880009A01DC011696ED91FC91462F67E10994DF
:10089000EF92FF920F931F93CF93DF931F92CDB7E9
:1008A000DEB77C018B01D8016C91673129F150F4DE
:1008B0006531A0F40F90DF91CF911F910F91FF90C0
:1008C000EF9008956A3118F16E3FA1F7F801418168
:1008D000498369E2C7010E9427040BC0F8014181E6
:1008E0004983D7011696ED91FC9130E020E0C701D5
:1008F00009950E5F1F4FD7CFF80181818983AE0123
:100900004F5F5F4F61E0C7010E944004F2CF0F5F6D
:100910001F4FD7011696ED91FC9130E020E040E0AA
:10092000C7010995C0CF462FDC011696ED91FC91C9
:1009300030E020E066E10994462FDC011696ED9147
:10094000FC9130E020E065E10994EF92FF920F9373
:100950001F93CF93DF93EC01042F79016D3009F4DD
:1009600046C050F46B30C9F1693009F49FC06A3059
:1009700009F465C080E046C06E3009F452C06F30A3
:1009800099F70E943704F7011381110F110F110F0E
:100990006C89160F60E4CE010E949C04612F629561
:1009A0006F706061CE010E949C04612F6F70CE0158
:1009B0000E949304F7016481606BCE010E9493044E
:1009C000F701408151816281660F660F660FCE018B
:1009D0000E9440040150A1F72EC063E171E044235E
:1009E00011F06EE071E0CE010E9448040AC041118E
:1009F00010C067E071E00E944804E881F9818289B3
:100A00008C8B81E0DF91CF911F910F91FF90EF9040
:100A1000089560E071E00E944804E881F9818389CB
:100A2000EFCF0E94370461E8CE010E949C04602F42
:100A3000CE010E949304CE010E942E04E2CFEA85EB
:100A4000FB8530E020E040E068E2CE010995EE81D0
:100A5000FF8130E020E040E064E1CE01099541E013
:100A60006BE4CE010E942704E881F981448169E2A8
:100A7000CE010E94270440E06BE4CE010E942704CF
:100A8000E881F981448169E2CE010E94270441E0B6
:100A90006BE4CE010E942704E881F981458169E277
:100AA000CE010E94270468E171E09DCF8DE491E0C2
:100AB000998388831C8AA5CFDC011896ED91FC915F
:100AC00030E020E040E069E10994DC011896ED9106
:100AD000FC9130E020E040E068E10994CF93DF939F
:100AE0001F92CDB7DEB76983BE016F5F7F4F0E9453
:100AF00077010F90DF91CF910895EF92FF921F93AE
:100B0000CF93DF93EC01162F7A010E94650560E414
:100B1000CE010E946E05E885F9859701412F67E1B6
:100B2000CE010995CE01DF91CF911F91FF90EF90FB
:100B30000C945C05EF92FF921F93CF93DF93EC012F
:100B4000142F7901663181F138F4643109F44BC016
:100B5000653179F080E022C06831C9F150F1693126
:100B6000C9F78091E901882391F1CE010E945C05CB
:100B70002EC08091E901882319F0CE010E945C0506
:100B8000CE010E94650560E0CE010E946E05612FD6
:100B9000CE010E946E0581E08093E901DF91CF9143
:100BA0001F91FF90EF900895642F0E946E0581E0E1
:100BB000F5CF8091E901882319F0CE010E945C05F0
:100BC000A701193138F4612FCE010E947D051092E2
:100BD000E901EDCF68E1CE010E947D05185188E161
:100BE000E80EF11CEDCF8E898F3F11F488E78E8BD4
:100BF000E885F9859701412F64E1CE01DF91CF911E
:100C00001F91FF90EF9009940F93FC01E05CFF4F60
:100C10000190F081E02D4E1B5F0BDC01D496ED912D
:100C2000FC9109950F910895CF93DF93FC01A0816A
:100C3000B18182AD90E09C0143E0220F331F4A95C1
:100C4000E1F737AF26AF50962C91509748E0249F9C
:100C50009001112435AF24AF23AD30E0B90153E04A
:100C6000660F771F5A95E1F7EF01C05CDF4F79837C
:100C7000688351964C915197E901C80FD91F50E0F4
:100C80004C175D0718F4CA01821B930BEF01CE5B72
:100C9000DF4F79836883229623E0880F991F2A9576
:100CA000E1F7860F971F99838883229654968D913A
:100CB0009C91559799838883E85BFF4F56968D9159
:100CC0009C9191838083DF91CF9108950F931F931F
:100CD000FC01E25BFF4F0190F081E02DDC01A05BA5
:100CE000BF4F0D90BC91A02D4A175B0740F4E01751
:100CF000F10748F00417150730F080E019C0E0173D
:100D0000F107C0F3FACFFC01E65BFF4F4081518150
:100D1000845B9F4FFC01808191816817790758F4AB
:100D200081E04217530720F081E02617370728F7A4
:100D30001F910F91089542175307B0F3DECF2F9202
:100D40003F924F925F926F927F928F929F92AF925B
:100D5000BF92CF92DF92EF92FF920F931F93CF93A8
:100D6000DF93CDB7DEB72A970FB6F894DEBF0FBE7C
:100D7000CDBF9A878987865B9F4F9A838983FC01C1
:100D800011821082E985FA85EA5BFF4F408051802D
:100D900029853A85245B3F4F3C832B83F90151829F
:100DA0004082E985FA85EE5BFF4F208031802985FE
:100DB0003A85225B3F4F3E832D83F90131822082A9
:100DC000E985FA85EC5BFF4F6080718029853A8563
:100DD000205B3F4F38872F83F90171826082E9855C
:100DE000FA85E85AFF4FE080F180E985FA85EC5AF0
:100DF000FF4FA080B180E985FA85EA5AFF4FC08095
:100E0000D180E985FA85EE5AFF4F80809180870175
:100E10009501A601B40189859A850E9466062985F7
:100E20003A852C573F4F3A87298781111BC0F9011A
:100E300010822A960FB6F894DEBF0FBECDBFDF91A9
:100E4000CF911F910F91FF90EF90DF90CF90BF90C7
:100E5000AF909F908F907F906F905F904F903F905A
:100E60002F90089581E0E985FA85808381149104AB
:100E700021F0E981FA8191828082A414B50420F4E2
:100E8000EB81FC81B182A0822C143D0420F4ED8121
:100E9000FE81D182C082E614F70458F6EF81F8850E
:100EA000F182E082C6CF0F93CF93DF93E02FDC0176
:100EB000AC57BF4FFC91FF2309F460C021153105E9
:100EC00009F45CC02230310538F0023009F04AC024
:100ED0006F5F7F4F621B730B0E2F0170E0FD52C0DE
:100EE000FC01E25BFF4F0190F081E02D4E175F07A0
:100EF00008F444C0FC01E05BFF4F0190F081E02D5D
:100F00004E175F07D8F5FC01E45BFF4F0190F081BD
:100F1000E02DDC01A65BBF4F0D90BC91A02D260FEC
:100F2000371F2617370738F56E177F0718F59F010B
:100F300021503109A217B30708F56A177B0708F497
:100F4000BD012E173F0708F4F901E61BF70BEC0172
:100F5000AEA9BFA914960D90BC91A02D9F01FD01D3
:100F600009950CC0033009F0B7CF4F5F5F4F421BAC
:100F7000530BB2CFBD016E177F07E0F2DF91CF9127
:100F80000F910895FC01E65BFF4F0190F081E02D89
:100F90006E177F0798F3FC01E45BFF4F0190F0812F
:100FA000E02D6E177F0750F7FC01E05BFF4F0190CB
:100FB000F081E02DDC01A25BBF4F0D90BC91A02D14
:100FC000240F351F24173507A8F44E175F0788F440
:100FD0009F0121503109A217B30780F64A175B071A
:100FE00008F4AD012E173F0708F4F901E41BF50BD7
:100FF000AECFAD014E175F0708F6EDCF213069F097
:1010000038F0223079F0840F911D47FD9A950895AC
:10101000860F911D67FD9A950895841B910947FDE0
:1010200093950895861B910967FD93950895213046
:1010300069F038F0223079F0861B910967FD9395AD
:101040000895840F911D47FD9A950895860F911D6F
:1010500067FD9A950895841B910947FD939508951E
:101060003F924F925F926F927F928F929F92AF9238
:10107000BF92CF92DF92EF92FF920F931F93CF9385
:10108000DF937C01162F442EEC01C25ADF4F5E80A5
:101090006F806C018AE8C80ED11C78847518312ED7
:1010A000711608F4372C8C809D800E85202F462DDC
:1010B000652D8A819B810E94FE075C01202F462DB1
:1010C000652DC4010E941708AC01442079F08C857D
:1010D000F6018083232D30E0B501C7010E9453073C
:1010E000171548F017196394512CD7CF8B858111B0
:1010F000F7CF8D85EDCF150D1E836F82DF91CF91D8
:101100001F910F91FF90EF90DF90CF90BF90AF9025
:101110009F908F907F906F905F904F903F90089539
:10112000DC011A964C911A97ED91FC91119724913C
:1011300030E0042E02C0359527950A94E2F7842FFB
:10114000860F883068F031961196FC93EE93E49107
:1011500098E0941B01C0EE0F9A95EAF72E2B885069
:101160001A968C938FEF9FEF01C0880F6A95EAF76C
:10117000809582230895FC01E60FF11D849190E093
:10118000982F88273196E4918E0F911D0895CF9264
:10119000DF92EF92FF920F931F93CF93DF93EC01B7
:1011A000962F683109F44BC0B901993130F494316C
:1011B000C9F0973189F080E006C0993109F461C027
:1011C0009032C9F781E0DF91CF911F910F91FF908D
:1011D000EF90DF90CF90089550E089E493E00E9473
:1011E000CB03F0CF8C859D85AE85BF85892B8A2B5F
:1011F0008B2B71F4E881F981A585B0E020EA36E80F
:1012000041E050E00E94A2116C877D878E879F8706
:1012100010922C0210922B0210922E0210922D028C
:101220000E9460038FE993E09093560280935502E9
:1012300080EA93E090935A0280935902C3CF2C85A1
:101240003D854E855F8560E074E284EF90E00E940A
:10125000801120513109410951095695479537951B
:1012600027952093B8008E8990E09595879591E019
:1012700090930A028093E80110922E0210922D02A0
:10128000A1CFD0912D02D13208F093C0C091E801D6
:101290000E9407026B017C0180917D02811164C074
:1012A00082E080937D0281E080937F028FEF8093C4
:1012B0007C021092A102D093A002AAEEB1E0E0E875
:1012C000F2E080E0D8137CC01092A2028091A202CA
:1012D000CC0FC82BC093A20280917E02813009F00E
:1012E00073C010927E020E9407026B017C01809104
:1012F000A2028093BB008091300290913102A091B4
:101300003202B0913302892B8A2B8B2B99F00E94E9
:101310000702009130021091310220913202309187
:1013200033026C197D098E099F09061717072807D4
:101330003907D8F18091BC0083FDD9CF85EC80932B
:10134000BC000E9407026B017C0180917D0282300B
:10135000E9F180917C028F3F61F180917C028032C3
:1013600041F180917C0225C0809130029091310240
:10137000A0913202B0913302892B8A2B8B2B09F476
:101380008BCF0E9407020091300210913102209110
:101390003202309133026C197D098E099F090617BC
:1013A00017072807390708F077CF80912F020E948E
:1013B0007E0310922E0210922D0210920A0202CF8A
:1013C0009D9191938F5F7ECF85EEB9CF8091300252
:1013D00090913102A0913202B0913302892B8A2B75
:1013E0008B2B09F4B2CF0E940702009130021091BA
:1013F000310220913202309133026C197D098E093D
:101400009F09061717072807390708F09ECFCDCF89
:101410008F929F92AF92BF92CF92DF92EF92FF9204
:101420001F93CF93DF93EC016C32B0F46A32E8F58E
:10143000683241F1693209F445C080E06034B0F1AE
:101440006F73FE01E60FF11D868D8F3F71F16031E4
:1014500008F06EC0642F13C06D3209F457C068F3F2
:1014600084EB860F823048F76F73C60FD11D8E8DC7
:1014700041115AC061E00E94D60160E08E8D0E9449
:10148000A80113C07C012EE1E20EF11CD0E0F701AF
:1014900081917F018F3F31F061E0D03108F062E04F
:1014A0000E94D601DF5FD63191F781E0DF91CF91C5
:1014B0001F91FF90EF90DF90CF90BF90AF909F90E3
:1014C0008F900895C42ED12CF12CE12C0E9407029C
:1014D0004B015C01C114D104E104F10431F30E9419
:1014E0000702681979098A099B09683E73408105DA
:1014F000910580F3F1E0CF1AD108E108F10828EE58
:10150000820E23E0921EA11CB11CE4CF85E090E086
:10151000433010F082E090E0880F991F880F991FE8
:1015200005970197F1F7C1CF62E00E94D601BDCFC8
:10153000282F30E0F901E255FF4F8491F901E6567A
:10154000FF4FF490F901EA57FF4F1491112379F0FE
:1015500081110E947F01E12FF0E0EE0FFF1FE8599B
:10156000FF4FA591B491EC91FE2281E009F480E057
:10157000898F9BCFCF92DF92EF92FF920F931F93B1
:10158000CF93DF936C01EB017B01E40EF51E10E0BD
:1015900000E0CE15DF0561F06991D601ED91FC9177
:1015A0000190F081E02DC6010995080F191FF1CFB8
:1015B000C801DF91CF911F910F91FF90EF90DF90C5
:1015C000CF9008952F923F924F925F926F927F92A9
:1015D0008F929F92AF92BF92CF92DF92EF92FF9243
:1015E0000F931F93CF93DF93CDB7DEB728970FB636
:1015F000F894DEBF0FBECDBF7C016C0124E0C20EAB
:10160000D11CFC01E057FF4F0190F081E02DC60195
:1016100009958C018E3F9F4F08F061C0370184E926
:10162000680E711CF3010190F081E02DFD83EC83C5
:101630005701F2E9AF0EB11CF5018080918097014E
:1016400020593F4F3B832A83F9018081813009F47F
:1016500070C008F45FC0823009F476C0833009F4AA
:1016600082C0F701EC59FF4F9182808232962C8123
:101670003D813183208338978081918147969D8376
:101680008C830F3F110511F008F020C1B69601368A
:10169000110530F40134110558F0F701EE57FF4FF2
:1016A000808191812C813D81280F391F3D832C83BE
:1016B0008C819D810196FC01249121115FC090E0F5
:1016C00080E0EA81FB812081213009F4C1C108F466
:1016D000B7C1223009F4BEC1233009F4C3C181E08F
:1016E00090E028960FB6F894DEBF0FBECDBFDF9115
:1016F000CF911F910F91FF90EF90DF90CF90BF900F
:10170000AF909F908F907F906F905F904F903F90A1
:101710002F900895F701E05AFF4F0190F081E02DDE
:10172000C60109952C813D81280F391F3D832C83EB
:1017300098CFF701E05AFF4F0190F081E02DC601EC
:101740000995881A990A8DCFF701E05AFF4F019049
:10175000F081E02DC6010995EC81FD81E81BF90BB4
:10176000FD83EC837ECFF701E05AFF4F0190F081BB
:10177000E02DC6010995880E991E73CFEC81FD817D
:1017800024912017110609F09AC0CF010296009704
:1017900009F495CFF701EE59FF4FF887EF83918356
:1017A00080831286739660818F8198850E9490084D
:1017B000EF81F8858087F701EA58FF4F60818F81BC
:1017C00098850E949008582EEF81F88581879701AF
:1017D00022573F4F3D832C83F9019081EF81F8859B
:1017E000948781E0911180E0EF81F8858587F7018A
:1017F000E958FF4F8080682D8F8198850E9490085E
:10180000382EF701E858FF4F2080622D8F81988590
:101810000E949008982EF701E758FF4F1081612F22
:101820008F8198850E9490089FEF910F01E010E052
:10183000980101C0220F9A95EAF7821B8E83EF81EF
:10184000F885408414140CF0C4C08A94C80101C007
:10185000880F8A94EAF7381AF685F983950C2A944A
:10186000C80101C0880F2A94EAF7282E29182F2FC3
:10187000422D632DEF81F885828193810E94FE07BE
:101880004C01EF81F885938382832981422D632D5A
:10189000848195810E941708EF81F8859583848360
:1018A000F981F13009F49AC008F44EC0F23009F41D
:1018B000A4C0F33009F4B5C0BC0194014FC0FC01D1
:1018C00084912C813D81280F311DF0CEF701EA571C
:1018D000FF4F80819181EC81FD81E80FF91FFD832D
:1018E000EC834F0160E0C4010E94BB082C813D8164
:1018F000280F391F3D832C8362E0C4010E94BB087E
:1019000034E0830E911C8017910760F3EC81FD8118
:10191000849190E0982F88273196E4918E2B009740
:1019200009F4CDCE0817190721F48C819D81039607
:101930002ECFEC81FD813296E4912C813D812E0FDA
:10194000311D3D832C83E2CF9401240D311D47FCD2
:101950003A95BC01650D711D57FC7A958B01AC0160
:10196000B401C6010E946606882399F1EF81F885CB
:10197000168217824701F3E78F0E911C24E7E20ECF
:10198000F11CF40160818F8198850E949008082FD6
:10199000F70160818F8198850E949008182F40E0A0
:1019A000602FC6010E94300841E0612FC6010E94ED
:1019B000300861E08F8198850E9490088111EFCFF7
:1019C000EF81F88587818515E4F28485EC81FD81BE
:1019D0008083FE818F2FFF0F990B73CE051911099C
:1019E00057FC139594012F5F3F4FBC01640D711D8F
:1019F00047FC7A95800E911EB1CFA8014419510978
:101A000047FC539594012F5F3F4F0519110957FC6F
:101A10001395BC016F5F7F4F800F911F840E951E41
:101A20009DCF9401250D311D57FC3A9504191109DC
:101A300047FC1395BC016F5F7F4F800F911F8ECFC6
:101A4000F50120813181820F931F9183808347CEDE
:101A5000F301F7CFF50120813181281B390B318348
:101A600020833DCEF301F7CF089590E080E0089504
:101A7000E5EDF3E0A481B58150962C9186AD38E078
:101A8000839FC0011124289FA001299F500D11247C
:101A900070E060E084AD95AD0C94C211FC01019042
:101AA0000020E9F73197AF01481B590BBC018CEAC4
:101AB00092E00C942C028F929F92AF92BF920F9360
:101AC0001F93CF93DF93CDB7DEB7A1970FB6F894EE
:101AD000DEBF0FBECDBF19A2423008F44AE08E012E
:101AE0000F5D1F4F842E912CB12CA12CA5019401C8
:101AF0000E948011E62FB901CA01EA30F4F4E05DDA
:101B0000D801EE938D01232B242B252B79F790E020
:101B100080E0109719F0CD010E944E0DA1960FB6EE
:101B2000F894DEBF0FBECDBFDF91CF911F910F9113
:101B3000BF90AF909F908F900895E95CE1CF85EDC5
:101B40008093BC008091300290913102A0913202CA
:101B5000B09133020796A11DB11D23E0B695A7955C
:101B6000979587952A95D1F72091BC0024FD03C055
:101B700010927D020895409130025091310260919F
:101B8000320270913302452B462B472B69F30097A5
:101B9000A105B10541F02AE22A95F1F700C00197AD
:101BA000A109B109E1CF80912F020C947E031F920D
:101BB0000F920FB60F9211242F933F938F939F9301
:101BC000AF93BF938091A4029091A502A091A60229
:101BD000B091A7023091A30223E0230F2D3758F5CF
:101BE0000196A11DB11D2093A3028093A40290939E
:101BF000A502A093A602B093A7028091A80290919B
:101C0000A902A091AA02B091AB020196A11DB11D3B
:101C10008093A8029093A902A093AA02B093AB026A
:101C2000BF91AF919F918F913F912F910F900FBED8
:101C30000F901F90189526E8230F0296A11DB11D45
:101C4000D2CF1F920F920FB60F9211242F933F9372
:101C50004F935F936F937F938F939F93AF93BF93B4
:101C6000EF93FF938CEA92E00E94AA02FF91EF911A
:101C7000BF91AF919F918F917F916F915F914F91A4
:101C80003F912F910F900FBE0F901F9018951F92AC
:101C90000F920FB60F9211242F938F939F93EF9370
:101CA000FF93E091BC02F091BD028081E091C202FD
:101CB000F091C30282FD1BC090818091C5028F5FAD
:101CC0008F732091C602821741F0E091C502F0E0C7
:101CD000E455FD4F958F8093C502FF91EF919F9141
:101CE0008F912F910F900FBE0F901F9018958081AC
:101CF000F4CF1F920F920FB60F9211242F933F93A0
:101D00004F935F936F937F938F939F93AF93BF9303
:101D1000EF93FF938091B900887F803609F44AC021
:101D2000F0F5883209F4A7C018F5803109F49BC09A
:101D3000B8F4882309F4F9C0883009F494C0FF91FD
:101D4000EF91BF91AF919F918F917F916F915F9133
:101D50004F913F912F910F900FBE0F901F901895AC
:101D6000883109F488C0803251F780937C0214C016
:101D7000803409F49DC040F48033B9F38833F9F618
:101D800080937C0285ECB0C0803509F485C088352D
:101D900009F496C0883499F60E949F0DD0CF8839F7
:101DA00009F48CC038F5883729F050F4883611F0E2
:101DB000803729F683E080937D0210927B0257C022
:101DC000883809F47BC0803919F0803809F0B7CF22
:101DD00080917B02803208F071C0E0917B0281E04B
:101DE0008E0F80937B028091BB00F0E0E55AFD4F9F
:101DF00080833DC0803B39F0E0F4803A09F479C03B
:101E0000883A09F09CCF84E080937D0210925802BA
:101E100010925702E0915502F09156020995809177
:101E2000570281110FC081E0809357021092350252
:101E300009C0803C09F4A6CF883C09F4A3CF883BB5
:101E400009F07DCFE091580281E08E0F8093580217
:101E5000F0E0EB5CFD4F80818093BB0090915802D5
:101E60008091570229C08091A2028093BB0085EC2B
:101E70008093BC0064CF9091A1028091A00298173A
:101E800058F5E091A10281E08E0F8093A102F0E06D
:101E9000E058FD4F8081E9CFE091A10281E08E0FF3
:101EA0008093A1028091BB00F0E0E058FD4F808359
:101EB0009091A1028091A0029817C8F285E8D8CF2E
:101EC000E091A10281E08E0F8093A1028091BB007E
:101ED000F0E0E058FD4F808380917F0281115CCF5C
:101EE00081E080937E0284EA8093BC0010927D02A0
:101EF00026CF85EC8093BC0010927D0280917B02FE
:101F0000803230F4E0917B02F0E0E55AFD4F108220
:101F100060917B0270E0E0915902F0915A028BE5EA
:101F200092E0099510927B020ACF10927C0234CF86
:101F3000CF931092AF021092AE0288EE93E0A0E031
:101F4000B0E08093B0029093B102A093B202B0933C
:101F5000B30229E631E03093AD022093AC0225ECC8
:101F600030E03093B9022093B80224EC30E0309393
:101F7000BB022093BA0220EC30E03093BD022093E4
:101F8000BC0221EC30E03093BF022093BE0222EC71
:101F900030E03093C1022093C00226EC30E0309351
:101FA000C3022093C2021092C5021092C602109280
:101FB000C7021092C80210924C0310924B038093F8
:101FC0004D0390934E03A0934F03B09350038BE7C0
:101FD00091E090934A03809349031092D8031092A2
:101FE000D7038CE890E09093660480936504109288
:101FF00068041092670410926A04109269041092A7
:10200000F1038DE891E09093D6038093D50310926D
:10201000DA031092D9031092EE031092E5031092A6
:10202000E6031092E7031092E8038FEF8093EF032B
:102030008093F303E7EFF3E08DE094E0CFEFC193FB
:102040008E179F07E1F785EA94E09093DE03809373
:10205000DD038AE995E09093E0038093DF0387EC4A
:1020600098E09093E2038093E10388E09AE09093F4
:10207000E4038093E30330E020E040E069E089ED91
:1020800093E00E94A504109234041092330486E970
:1020900090E090930E0480930D0485E593E0909377
:1020A00012048093110481E08093130410921404AD
:1020B000109242041092620410925E0480936304B2
:1020C0008093640485E991E09093100480930F0459
:1020D00089ED93E00E94140610922C0410922B04B8
:1020E0001092300410922F048FEF9FEF90932E04E4
:1020F00080932D049093320480933104E0910F0477
:10210000F09110040280F381E02D89ED93E00995B0
:1021100085E091E090933604809335041092450455
:10212000C0930204C0930304C0930404CF910895A4
:10213000789484B5826084BD84B5816084BD85B5A2
:10214000826085BD85B5816085BD80916E008160AE
:1021500080936E0010928100809181008260809354
:102160008100809181008160809381008091800056
:102170008160809380008091B10084608093B10081
:102180008091B00081608093B00080917A0084607B
:1021900080937A0080917A00826080937A008091A7
:1021A0007A00816080937A0080917A0080688093C1
:1021B0007A001092C100E091BC02F091BD0282E071
:1021C0008083E091B802F091B9021082E091BA02E6
:1021D000F091BB0280E180831092C402E091C002C2
:1021E000F091C10286E08083E091BE02F091BF02CF
:1021F000808180618083E091BE02F091BF02808186
:1022000088608083E091BE02F091BF028081806887
:102210008083E091BE02F091BF0280818F7D808338
:10222000E091DD03F091DE0330E020E040E06AE081
:1022300089ED93E009958091640481110E94380D25
:1022400080E00E9408010E941F01C0911404809147
:102250001304C80FE091D903F091DA038189C817FC
:1022600008F447C0E091DD03F091DE0330E020E0A8
:1022700040E060E189ED93E0099580E00E9408016B
:10228000E091DD03F091DE0330E020E040E06BE020
:1022900089ED93E00995C09113048BE991E00E94C8
:1022A0004E0D6C2F70E090E080E04AE00E945B0DE4
:1022B00089EA91E00E944E0D8CEA91E00E944E0D59
:1022C000CC0FCC0FCC0F6C2F70E090E080E04AE098
:1022D0000E945B0D89EA91E00E944E0DC0E0D0E0C3
:1022E0002097F1F30E9496028823D1F30E94000008
:1022F000F7CF8091640481110E94380D8C2FA1CFFB
:10230000A1E21A2EAA1BBB1BFD010DC0AA1FBB1FF9
:10231000EE1FFF1FA217B307E407F50720F0A21B6B
:10232000B30BE40BF50B661F771F881F991F1A94D8
:1023300069F760957095809590959B01AC01BD0102
:10234000CF0108950E94B311A59F900DB49F900DE9
:10235000A49F800D911D11240895EE0FFF1F05907D
:10236000F491E02D0994A29FB001B39FC001A39FF7
:10237000700D811D1124911DB29F700D811D1124BE
:10238000911D0895DC0101C06D9341505040E0F76C
:102390000895F894FFCF1815A015C019FF1815A1BE
:1023A00015C819FF1815AE19FF1815AF19FF181524
:1023B000AE15D5168015A8163F15D3160015401575
:1023C0008D16141520160015A115C815DA1612154C
:1023D0008116CF15D916F115DB1640152E15A4154B
:1023E000A619FF0001140A6464323200127A000058
:1023F000042896100800008000400000000000CC77
:10240000022C02590219038A0268027C02000000B1
:1024100000F803CB03350DA103C403B103A20300ED
:10242000000000E20ABA0A350D340D14069F0604B6
:102430000654696C65206865696768743A20000D08
:102440000A005061676520686569676874202870B4
:0A2450006978656C73293A200000DA
:107E0000112484B714BE81FFF0D085E080938100F7
:107E100082E08093C00088E18093C10086E0809377
:107E2000C20080E18093C4008EE0C9D0259A86E02C
:107E300020E33CEF91E0309385002093840096BBD3
:107E4000B09BFECF1D9AA8958150A9F7CC24DD24C4
:107E500088248394B5E0AB2EA1E19A2EF3E0BF2EE7
:107E6000A2D0813461F49FD0082FAFD0023811F036
:107E7000013811F484E001C083E08DD089C08234E0
:107E800011F484E103C0853419F485E0A6D080C0E4
:107E9000853579F488D0E82EFF2485D0082F10E0AE
:107EA000102F00270E291F29000F111F8ED06801E7
:107EB0006FC0863521F484E090D080E0DECF843638
:107EC00009F040C070D06FD0082F6DD080E0C81688
:107ED00080E7D80618F4F601B7BEE895C0E0D1E017
:107EE00062D089930C17E1F7F0E0CF16F0E7DF06D8
:107EF00018F0F601B7BEE89568D007B600FCFDCFD4
:107F0000A601A0E0B1E02C9130E011968C91119780
:107F100090E0982F8827822B932B1296FA010C0160
:107F200087BEE89511244E5F5F4FF1E0A038BF0790
:107F300051F7F601A7BEE89507B600FCFDCF97BE46
:107F4000E89526C08437B1F42ED02DD0F82E2BD052
:107F50003CD0F601EF2C8F010F5F1F4F84911BD097
:107F6000EA94F801C1F70894C11CD11CFA94CF0C13
:107F7000D11C0EC0853739F428D08EE10CD085E9AC
:107F80000AD08FE07ACF813511F488E018D01DD067
:107F900080E101D065CF982F8091C00085FFFCCF94
:107FA0009093C60008958091C00087FFFCCF809118
:107FB000C00084FD01C0A8958091C6000895E0E648
:107FC000F0E098E1908380830895EDDF803219F02E
:107FD00088E0F5DFFFCF84E1DECF1F93182FE3DFCA
:107FE0001150E9F7F2DF1F91089580E0E8DFEE27F6
:047FF000FF270994CA
:027FFE00040479
:00000001FF
