:020000040000FA
:100000000C9458000C9480000C9480000C94800098
:100010000C9480000C9480000C9480000C94800060
:100020000C9480000C9480000C9480000C94800050
:100030000C9480000C9480000C9480000C94800040
:100040000C9482050C9480000C94F2050C94CC0561
:100050000C9480000C9480000C9480000C94800020
:100060000C9424060C948000000000002500280059
:100070002B00040404040404040402020202020229
:10008000030303030303010204081020408001025C
:1000900004081020010204081020000000080002DB
:1000A00001000003040700000000000000004307F7
:1000B00011241FBECFEFD8E0DEBFCDBF23E0A2EBFF
:1000C000B1E001C01D92AA32B207E1F711E0A0E051
:1000D000B1E0EEEAF7E102C005900D92A23BB10754
:1000E000D9F710E0C8E5D0E004C02197FE010E94D6
:1000F000DD09C735D107C9F70E947C070C94D50BE1
:100100000C94000090E0FC01E656FF4F2491FC01A6
:10011000EA57FF4F3491FC01EE58FF4FE491EE2374
:10012000C9F0222339F0233001F1A8F4213019F16C
:10013000223029F1F0E0EE0FFF1FE859FF4FA591A3
:10014000B4918FB7F894EC91611126C030953E239D
:100150003C938FBF08952730A9F02830C9F0243090
:1001600049F7809180008F7D03C0809180008F7758
:1001700080938000DFCF84B58F7784BDDBCF84B5DB
:100180008F7DFBCF8091B0008F778093B000D2CF6E
:100190008091B0008F7DF9CF3E2BDACF3FB7F89436
:1001A0008091090290910A02A0910B02B0910C0279
:1001B00026B5A89B05C02F3F19F00196A11DB11DC2
:1001C0003FBFBA2FA92F982F8827BC01CD01620FFE
:1001D000711D811D911D42E0660F771F881F991FB9
:1001E0004A95D1F7089508950895AF92BF92CF929E
:1001F000DF92EF92FF920F931F93CF93DF936C01E7
:100200007B018B01040F151FEB015E01AE18BF08C7
:10021000C017D10759F06991D601ED91FC91019079
:10022000F081E02DC6010995892B79F7C501DF9191
:10023000CF911F910F91FF90EF90DF90CF90BF90E3
:10024000AF900895FC01538D448D252F30E0842F0D
:1002500090E0821B930B541710F0CF9608950197EE
:100260000895FC01918D828D981761F0A28DAE0FDB
:10027000BF2FB11D5D968C91928D9F5F9F73928F62
:1002800090E008958FEF9FEF0895FC01918D828D8E
:10029000981731F0828DE80FF11D858D90E008955B
:1002A0008FEF9FEF0895FC01918D228D892F90E0B3
:1002B000805C9F4F821B91098F73992708958DE76A
:1002C00092E00E94530121E0892B09F420E0822F63
:1002D000089580E090E0892B29F00E945F01811150
:1002E0000C9400000895FC01A48DA80FB92FB11D36
:1002F000A35ABF4F2C91848D90E001968F7399275C
:10030000848FA689B7892C93A089B1898C91837039
:1003100080648C93938D848D981306C00288F38932
:10032000E02D80818F7D80830895EF92FF920F935F
:100330001F93CF93DF93EC0181E0888F9B8D8C8D91
:1003400098131AC0E889F989808185FF15C09FB785
:10035000F894EE89FF896083E889F9898081837048
:10036000806480839FBF81E090E0DF91CF911F91F7
:100370000F91FF90EF900895F62E0B8D10E00F5F18
:100380001F4F0F731127E02E8C8D8E110CC00FB6EE
:1003900007FCFACFE889F989808185FFF5CFCE0186
:1003A0000E947301F1CFEB8DEC0FFD2FF11DE35A8D
:1003B000FF4FF0829FB7F8940B8FEA89FB89808109
:1003C0008062CFCFCF93DF93EC01888D8823B9F083
:1003D000AA89BB89E889F9898C9185FD03C0808150
:1003E00086FD0DC00FB607FCF7CF8C9185FFF2CFCD
:1003F000808185FFEDCFCE010E947301E9CFDF91AF
:10040000CF9108952091D301260F3327331F213236
:100410003105ECF420915302FC0190E080E024309F
:1004200069F082E00895A091D3012191AC014D546F
:100430005E4FA40FB52FB11D2C930196861798F32C
:100440008091D301680F6093D30180E0089581E02B
:1004500008951092530281E08093520210922D026F
:1004600061E082E10E94820061E083E10E948200FB
:10047000E9EBF0E080818E7F808380818D7F8083B7
:1004800088E48093B80085E48093BC000895CF93FE
:10049000DF9391E09093B2018823B9F0C091B80046
:1004A000D091BA008091BC008A7B8093BC0060E050
:1004B00082E10E94820060E083E10E9482000E944B
:1004C0002902D093BA00C093B800DF91CF9108956C
:1004D000CF92DF92EF92FF920F931F93CF93DF9310
:1004E000D0917C0281E0D13208F09CC0C0917B02A7
:1004F0000E94CE006B017C018091530281116CC07F
:1005000082E08093530281E0809352028FEF8093C8
:10051000510210925002D0934F02ABE5B2E0EFE2ED
:10052000F2E080E0D8138DC010922E0280912E024E
:10053000CC0FC82BC0932E0280912D02813009F080
:1005400084C010922D020E94CE006B017C0180912C
:100550002E028093BB008091550290915602A0918B
:100560005702B0915802892B8A2B8B2BA1F00E9445
:10057000CE00009155021091560220915702309101
:1005800058026C197D098E099F090617170728075D
:10059000390708F442C08091BC0083FDD8CF85ECB8
:1005A0008093BC000E94CE006B017C0180915302BD
:1005B000823009F44CC0809151028F3F09F469C028
:1005C00080915102803209F466C0809151028033DB
:1005D00009F463C084E026C08091550290915602D0
:1005E000A0915702B0915802892B8A2B8B2B09F4CA
:1005F00083CF0E94CE0000915502109156022091A7
:100600005702309158026C197D098E099F0906170F
:1006100017072807390708F06FCF809154020E940E
:10062000470285E010925A0210927C021092590201
:10063000DF91CF911F910F91FF90EF90DF90CF90BE
:1006400008959D9191938F5F6DCF85EEA9CF809195
:10065000550290915602A0915702B0915802892BF1
:100660008A2B8B2B09F4A2CF0E94CE000091550259
:100670001091560220915702309158026C197D0951
:100680008E099F09061717072807390708F08ECF2C
:10069000C4CF80E0C7CF82E0C5CF83E0C3CFCF9285
:1006A000DF92EF92FF920F931F93CF93DF93D82F98
:1006B000C62F613208F098C00E94CE006B017C0109
:1006C0008091530281116BC081E08093530280932B
:1006D00052029FEF90935102109250029C0F909300
:1006E0004F0280932E0280912E02DD0FD82BD093E3
:1006F0002E0280912D02813009F078C010922D02D7
:100700000E94CE006B017C0180912E028093BB0081
:100710008091550290915602A0915702B0915802D3
:10072000892B8A2B8B2BA1F00E94CE0000915502C1
:100730001091560220915702309158026C197D0990
:100740008E099F09061717072807390708F448C0BC
:100750008091BC0083FDD8CF85EC8093BC000E94C3
:10076000CE006B017C0180915302813009F440C0BE
:10077000809150028C1710F4C0915002EFE2F2E029
:10078000ADE0B2E080E08C1355C08C2FDF91CF91AB
:100790001F910F91FF90EF90DF90CF90089580917F
:1007A000550290915602A0915702B0915802892BA0
:1007B0008A2B8B2B09F484CF0E94CE000091550226
:1007C0001091560220915702309158026C197D0900
:1007D0008E099F09061717072807390708F070CFF9
:1007E000809154020E944702C0E0CFCF85EEB5CF82
:1007F0008091550290915602A0915702B0915802F3
:10080000892B8A2B8B2B09F4AECF0E94CE0000914E
:1008100055021091560220915702309158026C19DE
:100820007D098E099F09061717072807390708F061
:100830009ACFD6CF91919D938F5FA5CF0895E091E8
:10084000FB018091FA01E81730F4F0E0E35FFD4F1F
:10085000808190E008958FEF9FEF08959091FB01C4
:100860008091FA012FEF3FEF981748F4E92FF0E05D
:10087000E35FFD4F208130E09F5F9093FB01C90152
:1008800008958091FA019091FB01891B990B0895BD
:10089000CF92DF92EF92FF920F931F93CF93DF934C
:1008A0007C01CB018A0120915902222389F0EB01BE
:1008B0006B01C40ED51ECC15DD0569F06991D70119
:1008C000ED91FC910190F081E02DC7010995F3CFE6
:1008D000642F0E940202C801DF91CF911F910F91F6
:1008E000FF90EF90DF90CF900895CF93DF931F920A
:1008F000CDB7DEB76983209159022223F9F0209108
:100900007C02203258F021E030E0FC013383228366
:1009100090E080E00F90DF91CF91089580915A028E
:10092000E82FF0E0E55AFD4F998190838F5F809327
:100930005A0280937C0281E090E0ECCF61E0CE012E
:1009400001960E940202F7CF90E080E00895FC013A
:1009500001900020E9F73197AF01481B590BBC010A
:100960008DE792E00C94F5008F929F92AF92BF9228
:100970000F931F93CF93DF93CDB7DEB7A1970FB639
:10098000F894DEBF0FBECDBF19A2423008F44AE092
:100990008E010F5D1F4F842E912CB12CA12CA5012F
:1009A00094010E94BB09E62FB901CA01EA30F4F4B0
:1009B000E05DD801EE938D01232B242B252B79F7B5
:1009C00090E080E0109719F0CD010E94A704A19655
:1009D0000FB6F894DEBF0FBECDBFDF91CF911F9150
:1009E0000F91BF90AF909F908F900895E95CE1CFF9
:1009F0000C94A704682F70E090E080E04AE00C942B
:100A0000B404EF92FF920F931F93CF93DF93EC0107
:100A10007B01198218821B821A821D821C82FB01B3
:100A200001900020E9F731978F01061B170BB801E1
:100A30006F5F7F4F90E080E00E94080B0097B9F055
:100A4000998388831B830A832C813D81232B11F496
:100A5000FC0110821D830C83B70188819981DF918D
:100A6000CF911F910F91FF90EF900C94CE0B888146
:100A70009981009711F00E947F0A198218821D82C5
:100A80001C821B821A82DF91CF911F910F91FF90E0
:100A9000EF90089585ED8093BC0080915502909170
:100AA0005602A0915702B09158020796A11DB11DA0
:100AB00023E0B695A795979587952A95D1F720912C
:100AC000BC0024FD03C010925302089540915502CA
:100AD000509156026091570270915802452B462B57
:100AE000472B69F30097A105B10541F02AE22A9549
:100AF000F1F700C00197A109B109E1CF809154023B
:100B00000C9447021F920F920FB60F9211242F934D
:100B10003F938F939F93AF93BF93809105029091E2
:100B20000602A0910702B09108023091040223E06E
:100B3000230F2D3758F50196A11DB11D20930402F6
:100B40008093050290930602A0930702B0930802D7
:100B50008091090290910A02A0910B02B0910C02BF
:100B60000196A11DB11D8093090290930A02A093E2
:100B70000B02B0930C02BF91AF919F918F913F9167
:100B80002F910F900FBE0F901F90189526E8230FFE
:100B90000296A11DB11DD2CF1F920F920FB60F92D8
:100BA00011242F933F934F935F936F937F938F9372
:100BB0009F93AF93BF93EF93FF938DE792E00E94D3
:100BC0007301FF91EF91BF91AF919F918F917F91B1
:100BD0006F915F914F913F912F910F900FBE0F90AA
:100BE0001F9018951F920F920FB60F9211242F93FA
:100BF0008F939F93EF93FF93E0918D02F0918E027C
:100C00008081E0919302F091940282FD1BC090815B
:100C1000809196028F5F8F7320919702821741F027
:100C2000E0919602F0E0E358FD4F958F8093960295
:100C3000FF91EF919F918F912F910F900FBE0F9089
:100C40001F9018958081F4CF1F920F920FB60F92CC
:100C500011242F933F934F935F936F937F938F93C1
:100C60009F93AF93BF93EF93FF938091B900887FD9
:100C7000803609F44AC0F0F5883209F4A7C018F5A7
:100C8000803109F49BC0B8F4882309F4F9C0883096
:100C900009F494C0FF91EF91BF91AF919F918F9113
:100CA0007F916F915F914F913F912F910F900FBE68
:100CB0000F901F901895883109F488C0803251F741
:100CC0008093510214C0803409F49DC040F48033F5
:100CD000B9F38833F9F68093510285ECB0C08035C2
:100CE00009F485C0883509F496C0883499F60E94C5
:100CF0004A05D0CF883909F48CC038F5883729F0F7
:100D000050F4883611F0803729F683E0809353023F
:100D10001092F50157C0883809F47BC0803919F06A
:100D2000803809F0B7CF8091F501803208F071C0AA
:100D3000E091F50181E08E0F8093F5018091BB0079
:100D4000F0E0EB52FE4F80833DC0803B39F0E0F491
:100D5000803A09F479C0883A09F09CCF84E0809306
:100D600053021092D4011092D301E091F801F09156
:100D7000F90109958091D30181110FC081E0809321
:100D8000D3011092B30109C0803C09F4A6CF883C7E
:100D900009F4A3CF883B09F07DCFE091D40181E035
:100DA0008E0F8093D401F0E0ED54FE4F808180934C
:100DB000BB009091D4018091D30129C080912E0273
:100DC0008093BB0085EC8093BC0064CF909150026F
:100DD00080914F02981758F5E091500281E08E0FF4
:100DE00080935002F0E0E15DFD4F8081E9CFE0911A
:100DF000500281E08E0F809350028091BB00F0E0A2
:100E0000E15DFD4F80839091500280914F029817D1
:100E1000C8F285E8D8CFE091500281E08E0F809330
:100E200050028091BB00F0E0E15DFD4F8083809136
:100E3000520281115CCF81E080932D0284EA80937D
:100E4000BC001092530226CF85EC8093BC00109218
:100E500053028091F501803230F4E091F501F0E029
:100E6000EB52FE4F10826091F50170E0E091F601C7
:100E7000F091F70185ED91E009951092F5010ACF07
:100E80001092510234CFEDE7F2E01382128288EE25
:100E900093E0A0E0B0E084839583A683B7832AE043
:100EA00031E03183208325EC30E03587248724EC42
:100EB00030E03787268720EC30E0318B208B21EC27
:100EC00030E0338B228B22EC30E0358B248B26EC08
:100ED00030E0378B268B118E128E138E148EEAE142
:100EE000F3E01382128284839583A683B7838CE117
:100EF00091E0918380830895CF93DF9300D000D059
:100F000000D0CDB7DEB7789484B5826084BD84B557
:100F1000816084BD85B5826085BD85B5816085BDF4
:100F200080916E00816080936E00109281008091AC
:100F30008100826080938100809181008160809334
:100F40008100809180008160809380008091B10059
:100F500084608093B1008091B00081608093B00084
:100F600080917A00846080937A0080917A00826018
:100F700080937A0080917A00816080937A008091DA
:100F80007A00806880937A001092C100E0918D020F
:100F9000F0918E0282E08083E0918902F0918A02D2
:100FA0001082E0918B02F0918C028FEC8083109282
:100FB0009502E0919102F091920286E08083E091A7
:100FC0008F02F0919002808180618083E0918F0296
:100FD000F0919002808188608083E0918F02F0918F
:100FE0009002808180688083E0918F02F09190026E
:100FF00080818F7D80831092FB0110925A021092A3
:101000007C020E94290283EF90E09093F901809383
:10101000F80184EF90E09093F7018093F60111E0DE
:101020001093590288E680937B0260E08AE193E0A6
:101030000E9475040E94680261E088E60E944F03E6
:101040008093FA018AE193E00E942E048F778093C7
:10105000FC011093590210925A0210927C0260E037
:101060008AE193E00E9475046091FC018AE193E0BB
:101070000E9475040E946802EE24E39498E6D92E3B
:101080002AE0F22E00E010E0E0925902D0927B02BA
:1010900010925A0210927C0260E08AE193E00E9472
:1010A00075040E94680267E088E60E944F03109270
:1010B000FB018093FA018AE193E00E942E04982FAD
:1010C000929597708F709F9D800D11248093FC01E5
:1010D0008AE193E00E942E04982F92959F708F7062
:1010E0009F9D800D11248093FD018AE193E00E9471
:1010F0002E04982F929593708F709F9D800D1124D0
:101100008093FE018AE193E00E942E04982F92952D
:101110009F708F709F9D800D11248093FF018AE145
:1011200093E00E942E04982F92959F708F709F9D40
:10113000800D1124809300028AE193E00E942E0426
:10114000982F92959F708F709F9D800D1124809392
:1011500001028AE193E00E942E04982F92959F70DD
:101160008F709F9D800D112490E0909303028093D7
:101170000202E091FF01E150E73090F4F0E0ED531E
:10118000F74F0C94DD09CA087209750978097B09C3
:101190007E0981096AE271E0CE0101960E94010593
:1011A0004D815E8169817A818DE792E00E94F50030
:1011B00089819A81009711F00E947F0A8BEA91E061
:1011C0000E94F804809100028A3030F486EA91E0AF
:1011D0000E94F804809100020E94FA0488EA91E0DB
:1011E0000E94F804809101028A3030F486EA91E08E
:1011F0000E94F804809101020E94FA0488EA91E0BA
:101200000E94F80460910202709103026053784FCB
:1012100090E080E04AE00E94B4048AEA91E00E94F3
:10122000F8048091FE018A3030F486EA91E00E9451
:10123000F8048091FE010E94FA048DEA91E00E9478
:10124000F8048091FD018A3030F486EA91E00E9432
:10125000F8048091FD010E94FA048DEA91E00E9459
:10126000F8048091FC018A3030F486EA91E00E9413
:10127000F8048091FC010E94FA048FEA91E00E9438
:10128000A7040E94CE002B013C0188EE882E83E04B
:10129000982EA12CB12C0E94CE00641975098609E4
:1012A0009709683E734081059105A8F321E0821AF1
:1012B0009108A108B10888EE480E83E0581E611C11
:1012C000711C81149104A104B10429F701151105C1
:1012D00009F4DACE0E945F01882309F4D5CE0E947A
:1012E0000000D2CE62E471E057CF62E571E054CFE6
:1012F0006EE571E051CF6EE671E04ECF6EE771E0C2
:101300004BCF6EE871E048CF2F923F924F925F92A1
:101310006F927F928F929F92AF92BF92CF92DF9205
:10132000EF92FF920F931F93CF93DF93CDB7DEB76A
:10133000CA1BDB0B0FB6F894DEBF0FBECDBF0994FE
:101340002A88398848885F846E847D848C849B8455
:10135000AA84B984C884DF80EE80FD800C811B8163
:10136000AA81B981CE0FD11D0FB6F894DEBF0FBE92
:10137000CDBFED010895A1E21A2EAA1BBB1BFD01F2
:101380000DC0AA1FBB1FEE1FFF1FA217B307E40764
:10139000F50720F0A21BB30BE40BF50B661F771FBC
:1013A000881F991F1A9469F760957095809590959C
:1013B0009B01AC01BD01CF010895EE0FFF1F059009
:1013C000F491E02D09940F931F93CF93DF93823014
:1013D000910510F482E090E0E0912803F091290358
:1013E00030E020E0B0E0A0E0309799F4211531051D
:1013F00009F44AC0281B390B24303105D8F58A81FD
:101400009B816115710589F1FB0193838283FE0144
:1014100011C0408151810281138148175907E0F0C2
:101420004817590799F4109761F012960C93129788
:1014300013961C933296CF01DF91CF911F910F919C
:1014400008950093280310932903F4CF2115310543
:1014500051F04217530738F0A901DB019A01BD0191
:10146000DF01F801C1CFEF01F9CF909329038093F9
:101470002803CDCFFE01E20FF31F819391932250F9
:10148000310939832883D7CF209126033091270350
:10149000232B41F420910201309103013093270363
:1014A000209326032091000130910101211531057F
:1014B00041F42DB73EB74091040150910501241B22
:1014C000350BE0912603F0912703E217F307A0F410
:1014D0002E1B3F0B2817390778F0AC014E5F5F4F8A
:1014E0002417350748F04E0F5F1F50932703409392
:1014F0002603819391939FCFF0E0E0E09CCFCF93C0
:10150000DF930097E9F0FC01329713821282A091D9
:101510002803B0912903ED0130E020E01097A1F4F9
:1015200020813181820F931F209126033091270360
:101530002817390709F061C0F0932703E0932603C9
:10154000DF91CF910895EA01CE17DF07E8F54A81D0
:101550005B819E0141155105B1F7E901FB83EA83E7
:1015600049915991C40FD51FEC17FD0761F4808193
:1015700091810296840F951FE90199838883828166
:1015800093819B838A83F0E0E0E012968D919C9199
:1015900013970097B9F52D913C911197CD010296C3
:1015A000820F931F209126033091270328173907B4
:1015B00039F6309751F51092290310922803B09311
:1015C0002703A0932603BCCFD383C28340815181DC
:1015D000840F951FC817D90761F44E5F5F4F88814C
:1015E0009981480F591F518340838A819B8193833E
:1015F00082832115310509F0B0CFF0932903E093E0
:1016000028039ECFFD01DC01C0CF13821282D7CF09
:10161000B0E0A0E0EEE0FBE00C9486098C010097BE
:1016200051F4CB010E94E3098C01C801CDB7DEB7AC
:10163000E0E10C94A209FC01E60FF71F9C01225087
:101640003109E217F30708F49DC0D901CD91DC916F
:101650001197C617D70798F0C530D10530F3CE01E2
:1016600004978617970708F3C61BD70B2297C193D9
:10167000D1936D937C93CF010E947F0AD6CF5B01FB
:10168000AC1ABD0A4C018C0E9D1EA0912803B0918E
:101690002903512C412CF12CE12C109731F580912C
:1016A0002603909127038815990509F05CC046161A
:1016B000570608F058C080910001909101010097F1
:1016C00041F48DB79EB74091040150910501841BF0
:1016D000950BE817F90708F055C0F0932703E0933E
:1016E0002603F90171836083A0CF8D919C9111979E
:1016F00012966C90129713967C901397A815B905C3
:1017000059F56C0142E0C40ED11CCA14DB0420F16F
:10171000AC014A195B09DA011296159780F06282D2
:10172000738251834083D9016D937C93E114F1045A
:1017300071F0D7011396FC93EE93129776CF229611
:101740008C0F9D1FF90191838083F301EFCFF093FC
:101750002903E093280369CF4816590608F42C01A1
:101760007D01D3019ACFCB010E94E3097C01009750
:1017700049F0AE01B8010E94C50BC8010E947F0A62
:10178000870153CF10E000E050CFFB01DC0102C025
:1017900001900D9241505040D8F70895FB01DC01B3
:1017A00001900D920020E1F70895F894FFCF00001A
:1017B0002A038000000000009501F5002201E201EB
:1017C0005301310145010000000075044804A404E0
:1017D0001E0441042E041F0420D09FD0BED0BDD0D3
:1017E000B5D0B4D0B5D0BBD18CD0BDD0B8D0BA00B4
:1017F00020D092D182D0BED180D0BDD0B8D0BA0096
:1018000020D0A1D180D0B5D0B4D0B00020D0A7D006
:10181000B5D182D0B2D0B5D180D0B30020D09FD185
:101820008FD182D0BDD0B8D186D0B00020D0A1D188
:1018300083D0B1D0B1D0BED182D0B00020D092D070
:10184000BED181D0BAD180D0B5D181D0B5D0BDD1F3
:101850008CD0B50030002E002020003A000D0A0088
:107E0000112484B714BE81FFF0D085E080938100F7
:107E100082E08093C00088E18093C10086E0809377
:107E2000C20080E18093C4008EE0C9D0259A86E02C
:107E300020E33CEF91E0309385002093840096BBD3
:107E4000B09BFECF1D9AA8958150A9F7CC24DD24C4
:107E500088248394B5E0AB2EA1E19A2EF3E0BF2EE7
:107E6000A2D0813461F49FD0082FAFD0023811F036
:107E7000013811F484E001C083E08DD089C08234E0
:107E800011F484E103C0853419F485E0A6D080C0E4
:107E9000853579F488D0E82EFF2485D0082F10E0AE
:107EA000102F00270E291F29000F111F8ED06801E7
:107EB0006FC0863521F484E090D080E0DECF843638
:107EC00009F040C070D06FD0082F6DD080E0C81688
:107ED00080E7D80618F4F601B7BEE895C0E0D1E017
:107EE00062D089930C17E1F7F0E0CF16F0E7DF06D8
:107EF00018F0F601B7BEE89568D007B600FCFDCFD4
:107F0000A601A0E0B1E02C9130E011968C91119780
:107F100090E0982F8827822B932B1296FA010C0160
:107F200087BEE89511244E5F5F4FF1E0A038BF0790
:107F300051F7F601A7BEE89507B600FCFDCF97BE46
:107F4000E89526C08437B1F42ED02DD0F82E2BD052
:107F50003CD0F601EF2C8F010F5F1F4F84911BD097
:107F6000EA94F801C1F70894C11CD11CFA94CF0C13
:107F7000D11C0EC0853739F428D08EE10CD085E9AC
:107F80000AD08FE07ACF813511F488E018D01DD067
:107F900080E101D065CF982F8091C00085FFFCCF94
:107FA0009093C60008958091C00087FFFCCF809118
:107FB000C00084FD01C0A8958091C6000895E0E648
:107FC000F0E098E1908380830895EDDF803219F02E
:107FD00088E0F5DFFFCF84E1DECF1F93182FE3DFCA
:107FE0001150E9F7F2DF1F91089580E0E8DFEE27F6
:047FF000FF270994CA
:027FFE00040479
:00000001FF
