:020000040000FA
:100000000C94550A0C947D0A0C947D0A0C947D0A7C
:100010000C947D0A0C947D0A0C947D0A0C947D0A44
:100020000C9499210C947D0A0C947D0A0C947D0A01
:100030000C947D0A0C947D0A0C947D0A0C947D0A24
:100040000C94D81F0C947D0A0C9448200C94222008
:100050000C947D0A0C947D0A0C947D0A0C947D0A04
:100060000C947A200C947D0A830002020304030599
:1000700004060C00FE07FE08FF0139028503AC20D0
:1000800005006A072107394367A80022079B562706
:100090005901230B3542AF1AAA4C69A80A240D4D09
:1000A0003E37AF4AE59D54B5230025093D4247CE72
:1000B000DC3905260C3D422FA79872956454012720
:1000C00005195767280ACB3E37C514EB9803290B4F
:1000D000CB3E27C71CAB9822002A0A3D42B7AA761E
:1000E0005ECD082B0A2D4637A3386446112C071B1A
:1000F0003E4F8D042D060D4E67082E069242670472
:100100002F0C3D421FE58C728D7246003009BC42B7
:100110004F45CFA4003108BB422FC9AE01320A3D82
:10012000426FE58C727B08330C3D42676894B3865E
:100130003A2D00340C3D423FCB54A6A1334A003542
:100140000C3D42E74623C38C745A00360C3D42579F
:10015000E68C46CA3A2D00370D3D4267689433CA93
:1001600019651401380B3D426F659D56D6690139FA
:100170000C3D426F659D4646394A003A07AA4267E0
:10018000C4113B09333ECF466A24003C07AB4637D7
:10019000D5053D081D4A676838043E08AB46275719
:1001A00025003F0A3D426FE536CA7404400C3D42CB
:1001B0006F6535525223C305410A3D426F653D4686
:1001C000B603420C3D4267C42AA659C5A100430CA0
:1001D0003D426F658D32CA28A705440D3D4267C474
:1001E0002AA698628A4301450C3D42E746198D9440
:1001F000514643460D3D42E746198D94514619013B
:10020000470C3D426F658D328A3B2D0048093D42C7
:1002100027DB63643B4908BB4267C5AE014A0C3D1E
:100220004277679451466594004B0B3D4227CB546F
:10023000EA14AB1C4C0E3D4227A38C32CA28A38C77
:1002400086004D093D4227AF95B43B4E0A3D4227FB
:10025000EBA992DC3A4F093D426F65EFB400500DB7
:100260003D4267A4AC87CA28A38C00510A3D426F67
:100270006557925105520B3D4267A4AC872AAB1CCF
:10028000530B3D426F650D37D46901540E3D4267F3
:10029000C88C32CA28A38C220055083D4227FB4E49
:1002A0000B560A3D4227BB5399720457093D42271A
:1002B0007B25D505580A3D4227EB5457B50E590CFE
:1002C0003D4227EB5467945146115A0A3D426768F4
:1002D00094BBD1105B08CB3E67C43E075C0D3D422A
:1002E00027C38C32CC30A30C035D08CB3E67F639B4
:1002F000025E071D5637A73A5F060D3A670860068B
:100300009B562717610A2D426FC334741A01620C81
:100310003D4227A38C46CAF65000630A2D426F6502
:100320008D725A00640B3D421F659486B6D30865F2
:100330000A2D426FE5A1325C00660B3D42575679AB
:1003400067945106670B3D3A6F653B8D8CD202680E
:100350000B3D4227A38C46CAEE006908BB422F23FF
:10036000D91A6A0ACC3A3F63DD9649016B0C3D42CB
:1003700027A38CB24CB3CA016C07BB4247F61A6D77
:100380000A2D4247B5545249156E082D422799DA75
:100390000E6F092D426F653B2D00700C3D3A67A42E
:1003A0006C0F95514600710B3D3A6F683B8D8C3256
:1003B0000A720B2D4227991A65941100730A2D4277
:1003C0006F68B8E15000740C3D4237A33864461999
:1003D000652875082D42273B950A76092D4227DBB3
:1003E000A98E0077092D42275B49750178092D42B6
:1003F00027A7BAAA03790A3D3A27DBA96E23007A18
:10040000082D4267E8F6107B09CB3E37C52AC73A6C
:100410007C06493FE7017D0ACB3E27C73AC52A0241
:100420007E091D4A2FAA241300000000080464045A
:10043000D0FFFF04001155422FC34C8D8D321A2975
:10044000A38C860004010F4D42AFC663A38C46CA3D
:1004500028A32104020F4D3A676794D1AC628A1930
:1004600045050403105542BFA6C64619659451467A
:10047000190104040D3D426F658D46CA28A7050485
:10048000050C3D426F650D37D46901040609BB4276
:1004900067C5AE0104070ACB4227E515BB06040871
:1004A0000D3D42776794514665940004090E3D4224
:1004B0004FA6986252954A1600040A0E3D4227C57F
:1004C00014531CA952C902040B0D3D42676794D115
:1004D000AC628A01040C0E5542BFA6B24CA54EB1C7
:1004E000CA01040D0E55422FC34C6573A5A97500B2
:1004F000040E0E554227A78DB33B8D8CD202040FFC
:100500000B4D3A27FB1E33A30804100B3D426F65C9
:100510003D46B60304110E3D4267A48C321A29EB06
:10052000A10004120D3D4267A4AC87CA7A280004DA
:10053000130E3D42E7461965945146190104140F04
:10054000453E57A698628A29A634760004150D3DCB
:1005500042E746198D9451464304160C3D42272527
:1005600055EDBC2A5504170D3D426FE58CD2863AF5
:100570002D0004180B3D42279B2B4DAD0304190D94
:10058000554227A78DB3B9D2D43A041A0C3D42275D
:10059000CB54EA14AB1C041B0D3D4277C514534CDD
:1005A00031451D041C0A3D4227AF95B43B041D0A8A
:1005B0003D4227DB63643B041E0A3D426F65EFB496
:1005C00000041F083D42E7F61D04200E3D4267A4CB
:1005D000AC87CA28A38C0004210D3D426F658D3283
:1005E000CA28A70504220F3D4267C88C32CA28A337
:1005F0008C220004230C3D4227BBD3C8282D0004C5
:10060000240C3D4237AF4A2555ED0804250B3D42E9
:1006100027EB5457B50E0426114D3A27A698628A47
:1006200029A6988646190504270D3D4227DB6964F3
:100630009451460104280F3D4227259554524925DF
:1006400095C6000429114D3A272595545249259500
:10065000C6461905042A0D3D4247A38C329A554CD3
:100660000B042B0C3D4227DB5325956600042C0B15
:10067000BC4227D72BCA9100042D0D3D426FE58C5B
:10068000D2C848A705042E0F3D4227A64AA591547B
:1006900052492600042F0C3D426F689D464CA50E22
:1006A00004300B2D426FC334741A0104310C3D42E7
:1006B0006F653452B6D30204320B2D4267A43C540A
:1006C0001E0A04330C2D42E74619659411000434C8
:1006D0000C353E57A698624A630704350B2D426FCE
:1006E000E5A1325C0004360A2D4227553BAF0604D3
:1006F000370B2D426FE5A8725A0004380A2D4227A5
:10070000CB95A60E04390D454227A78DB35C69EA47
:1007100000043A0AAC4227AA245319043B0B2D4289
:1007200077C51453D401043C0A2D4227AF95B40E6B
:10073000043D0A2D4227EB31B20E043E0A2D426FD2
:10074000653B2D00043F082D42E7760704400D3D30
:100750003A67A46C0F9551460004410B2D426F651A
:100760008D725A0004420C2D4267C88C32CA28028E
:1007700004430C3D3A27BBD3C8282D0004440F4D39
:100780003A37A3BC2A9554B5338A0004450A2D4252
:1007900027A7BAAA0304460F3D3A27A698628A699A
:1007A0006894510004470B2D4227EB3432CA2804C9
:1007B000480C2D422725955452690C04490F3D3AA7
:1007C0002725955452696C945100044A0B2D4247D9
:1007D000A38C66B500044B0A2D4227EBA9D20C046A
:1007E0004C0AAC4227E7154702044D0AAC4267A306
:1007F000B44702044E0C2D4227A66A2495640204D5
:100800004F0AAC426FC4B4920C04500D45422FC342
:100810004CAE3C54860B04510C3D42AFA6561E2AEA
:10082000C30504520F4D3A2FEF8C661553CC282781
:100830000004530E4542BFA6C64619659411000434
:10084000540AAC426FE495D10004550B2D426F68F9
:10085000B8E15000045609B3422F23590D0457093B
:10086000B3422765590D04580BC43A3F635DCBA4CE
:100870000004590B2D424FA698546501045A0C2DC3
:100880004227C51447AA2C00045B0C3D422FEF8C75
:100890006615530C045C0CC442B7C6512599CA00B6
:1008A000045D0D45422FC34C65B9D2D401045E0EE0
:1008B000553A27A78DB33B8D8CD202045F0B3D3A8E
:1008C00027BBC7CC280204600C3D42AF6D25955470
:1008D000170004610A2D42AFAD92EA0204620D3D99
:1008E000422F8F98D1AC625A0004630D3D422FA372
:1008F0003C6246B35A0004640D3D4227AE98E2586C
:1009000031C52804650B2D4227AE38568C0204668B
:100910000D3D4237A798EA3152520504670C354223
:1009200037A798EA31520104680D3D4227A698D2B4
:10093000B8461A6904690B2D4227A698C61A69049D
:100940006A0D4542E74E658AAB524915046B0B357B
:1009500042E74EE5AA5401046C0F4642E7D0AA19BB
:10096000874A2BAD1600046D0D3642E748CD38544A
:100970005A2D00046E11653AAFCEE4CA19450D3305
:100980004A2BC305046F0F553AAFCEE4CA51C3B426
:10099000325C0004700E3D4227259554B533CA28B9
:1009A0000204710C2D42272555ED8C220004720C97
:1009B0003D426F653D46D6690104730B2D426FE5DC
:1009C00031725A0004740D3D4227CB14AB9862CAB1
:1009D0001104750B2D4227CB2AA61C010476105555
:1009E0004227B66196295631C594230004770D45F8
:1009F0004227B66196554C39020478104D3A2FA71C
:100A000098621A69A49534CA0904790D3D3A2F1DDC
:100A100069A49534CA09047A0C553E37AF4A7B5510
:100A20003B02047B0C453E37AF4A5BD58E00047C0D
:100A30000C4D426F9319C5ECEA02047D0B3D426FE9
:100A40009355D2AA0B047E0E5542E7AA71AAADA413
:100A500092EA02047F0D4542E7AA71AA55525D0051
:100A6000048010553A6F651B659451861B65940090
:100A700004810D3D3E6F658D32DC28A30404820C99
:100A8000354637E5946495530404830A1E5E1F8E31
:100A9000A1210004840816626F66010485081562AE
:100AA0006FC90004860815626F4501048708166245
:100AB0004FC701048811663A2FA39ACAA8E6AF8CE3
:100AC0006A2AA302048911663A2FA38C66869ABF0C
:100AD00032CA686628048A0F653A27A78DB3BCD24C
:100AE0009CBA4609048B0F5D3A27A78DB3B9D2D4BF
:100AF000354A00048C0D45422FA3BC339A554C0B4C
:100B0000048D0C3D422FEF8C6615D302048E0E45EA
:100B10004267A46CA5A1B2461901048F0E453A673D
:100B2000A46CA5A1B24619010490114D421F653471
:100B300046461965945146190104910F3D421F65BF
:100B4000344646196594110004920E3D426FA48C00
:100B5000F2881965940104930B2D426FA43C624600
:100B60001904940D4D3EE746198D94DD150004954A
:100B70000B3D3EE7462365BB0204960E4E3A27F531
:100B8000E74CFDD230C30004970F3E3A27951B6512
:100B90003453D230C30004980F553A6FE58C7286F7
:100BA00019E9B46B0004990C453A6FE51AEAB46B85
:100BB00000049A104E3A27A758658DEA58679C6141
:100BC00000049B0D3D3A27A652A758C38C02049CF3
:100BD0000D3D422725ABD42926D500049D0B2D427F
:100BE00027256B26D500049E0C3D422F8ED4D42998
:100BF0005631049F0D45422FA3BC632A758A050414
:100C0000A00E454247A6984AAD53AC620004A10A23
:100C10002D4247A652A75804A212553A27A6986219
:100C20001A29A698628A1A651404A30F3D3A27A6CA
:100C300098468A296A94510004A4104542278D14CD
:100C4000539C29A698628A0004A50C2D42278D1476
:100C5000678A290204A611553A67A6986252954AF6
:100C60002AA91AE50404A70E3D3A67A69854A56A76
:100C700094130004A80F4D3E6F681453A592AA76F2
:100C8000860204A90C3D3E6F6514536B672804AAC5
:100C900010553A6F658D32CA28A39C76860904AB3D
:100CA0000D3D3A6F658D72DA19260004AC12553A83
:100CB00067C88C32CA28A38C32D228A30404AD0E94
:100CC0003D3AE72A33CA48A38C120004AE0D3D42D8
:100CD00027EB54679451461104AF0D3D3A27EB546E
:100CE000679451461104B00D3D4227EB540D9951C4
:100CF000461104B10D3D3A27EB540D9951461104AC
:100D0000B2114E3A27A71C5346199539E58C330C7E
:100D100004B30F3E3A27C794514665CE38C300044A
:100D2000B412553A679529A698628A29A691514628
:100D30000104B50F453A679529A698621A196514FA
:100D400004B612553A27A698628A29C68D32D2284F
:100D5000A30004B70F453A27A69862DC28238D32FA
:100D60000A04B80E4542275B495523A698320A0467
:100D7000B90C3542275BD58829A30004BA0C3D4243
:100D800027A38C46CAEE0004BB0ABC4227D72B9A85
:100D90000104BC0E4542575631C5B1328A51010497
:100DA000BD0C354257C6B1328A510104BE10553AC6
:100DB000575631C5B1328A5167980004BF0E453A83
:100DC00057C6B1328A5167980004C009C34267C54B
:100DD0005E0304C110554227A78D53524955AB52AB
:100DE000491504C20C454227A78D53B5F36A04C3C5
:100DF0000F4D3A27CB54EA14AB9C51540004C40C59
:100E00003C3A27AA245399930204C510553A77C552
:100E100014534C3145AD6B940004C60D3D3A77C573
:100E20001453D4354A0004C70D553A27DB63647761
:100E300046510104C80D3D3A27EB31B2CE282A00B5
:100E400004C90D553A27DB6364778D120004CA0C80
:100E50003D3A27EB31B2AE510204CB0E553A277B17
:100E6000A79151D619250004CC0D453A27DB6964BA
:100E70009475460904CD0F553A27AF91565249DB78
:100E8000354A0004CE0C3D3A27AF95B4AE5102046A
:100E9000CF07C142E71004D00D4D4227A74DADAC9E
:100EA000C7C83A04D10D454227A74D6D98864E23F9
:100EB00004D20C4D42AFA656D663643B04D30C3D1E
:100EC00042AFA6364C43A71104D40D3D426FA898FB
:100ED000E248658A6904D50A2D426FA7B45A0B040B
:100EE000D60F4D4227A78DC746236594D11004D74E
:100EF0000D454227A74DAD3C54860B04D80D3D420D
:100F00006FE58CC6C83A2D0004D90B2D426FC33152
:100F1000725A0004DA0E4D42AFA656CE688CACD39E
:100F20000204DB0C3D42AFA6361C23A70504DC0FF0
:100F30004D42AFC629A9A4AA55A9A40A04DD0B3DB8
:100F400042AFC6A9DA793504DE0E4D42AFA656CEC1
:100F5000286AA8D30204DF0C3D42AFA6568E2AA70A
:100F60000504E00C3D4267E87A439D160004E10C5D
:100F70003D3A67E87A439D160004E20D4D426768EA
:100F800098CD95A6D60104E30C3D42676898E54AE2
:100F9000530704E40C4D42AFC6D95C696A1D04E5F1
:100FA0000C3D42AFC659AE34750004E60B4D42AF5E
:100FB000A656F64E0B04E70B3D42AFA656B6D3023B
:100FC00004E80C3D426F653D46D6690104E90B2DEE
:100FD000426FE531725A0004EA0E4D42AFA656D672
:100FE00063649D160004EB0C3D42AFA6561E23A77A
:100FF0000504EC0F4D42AFC61B66984646394D00BE
:1010000004ED0CBC422765B851DA230104EE0E4D05
:10101000426768984DA532D2690104EF0E4D3A67D8
:101020006898ED3432D2690104F00E4D42AFC6D952
:10103000542A239D160004F10E4D3AAFC6D94E2313
:10104000239D160004F20F55422FCA8CB3A95446B3
:101050003A2D0004F30F553A2FCA8CB39D46463AF9
:101060002D0004F40E4D42AFC6D94E23A38C320A94
:1010700004F50D3D42AFC659A79151460104F60F44
:10108000453EE74619659451461A650004F70AB4CF
:101090003E67E85A470004F80D4D42AFC6D99E2A74
:1010A000A9340304F90C3D42AFC6594F95660004BC
:1010B000FA0F4D3A6FA48CF2CE28238D720604FBF2
:1010C0000D3D3A6FA4BC33D228670004FC0E4D3AA4
:1010D00027EB5457B5CE28270004FD0C3D3A27A72F
:1010E000BAAA33CA0904FE0C3D4227EB540DD5D6EB
:1010F0000104FF0B2D4227A76AA8760005000C3DCE
:10110000421F659486B6D30805010ABC42BF1AD1B6
:101110004C0305020D3D4237A32C535249550B0594
:10112000030D3D4237A38CB24C49550B05040E3DCF
:101130004247C38CA28629A69C0005050C35424770
:10114000C38C72AC720205060C4C3A47A39C34CA9D
:10115000591705070C443A47A31C33CABA000508BF
:101160000E3D42E78A29A6A4924A320105090C2DB8
:1011700042E78A29A6241300050A0F3D4227C51419
:10118000535C2AA9241300050B0C2D4227C5149784
:101190004A3201050C0C3D426F658DE2D6690105AE
:1011A0000D0B2D426F6814775A00050E0E3D4267F5
:1011B000C88C322A534C3901050F0C2D4267C88C5C
:1011C00032AA130005100D3D426F680D6546392D9A
:1011D0000005110B2D426FE824735A0005120B3ED7
:1011E00042E78AFD6AA30805130B363EE78ABD7203
:1011F000461105140C3E4247F5CFAA4BA600051533
:101200000B2E4247F55925990205160B3D4247AA78
:10121000E4AAED0005170C353E472A55AA5A2300CB
:1012200005180D3D426FA898F22A534C0305190A80
:101230002D426FB5561905051A0B3D426F65579241
:101240005105051B0C3D3A6F683B8D8C320A051C1D
:101250000A3D42277B25D505051D0A2D42275B49FE
:101260007501051E0D3D42272599AA9D629503052E
:101270001F0B2D42272599964C390520114E3A47D0
:10128000E594534E3275C99461460905210E363EE8
:1012900047E594934C49A60C030522114D3A27C506
:1012A00014531CA95249D528270005230E3D3A277F
:1012B000C51447AA548D720200002D2D250025006B
:1012C000D092D0BBD0B0D0B6D0BDD0BED181D1826B
:1012D000D18C3A20002D2D20D0BCD0BC20D180D183
:1012E000810020D0BCD0BC20D180D18100D094D04E
:1012F000B0D0B2D0BBD0B5D0BDD0B8D0B53A2000B8
:101300002043002D2D204300D0A2D0B5D0BCD0BFAB
:10131000D0B5D180D0B0D182D183D180D0B03A20A5
:1013200000D092D180D0B5D0BCD18F3A20002C20F3
:1013300000D094D0B0D182D0B03A2000D0A3D181D7
:10134000D182D0B0D0BDD0BED0B2D0BBD0B5D0BD90
:10135000D0B020D0B4D0B0D182D0B03A00D092D1A9
:1013600080D0B5D0BCD18F00D094D0B0D182D0B0D5
:101370000018002860095802B004580258025802A8
:10138000102D00000006002628236810F4012C060A
:10139000F4012602806E00521B050026E02070102A
:1013A0000E022A060E020E02004100000014002662
:1013B000801180113002900630023002006E000071
:1013C000001E002638081C040E022A060E020E0219
:1013D00000320000001D0026220B220BEE026608E0
:1013E000EE02EE02806E0000001A0026F603BC0535
:1013F0000802BC050802D401004B0000001C0026B6
:101400001F015D033E023E021F015D03A06E00004E
:101410000004002604010C0304011C0704010C0352
:10142000006E0000000C0025800DC006B001100504
:10143000B001B001008200000008002600238011E6
:101440003002900630023002006E00521B00000095
:1014500000240027002A0000000000250028002B9F
:101460000000000008000201000003040700000063
:1014700000000000000000000023002600290004F6
:10148000040404040404040202020202020303032B
:101490000303030102040810204080010204081025
:1014A0002001020408102000892211241FBECFEF62
:1014B000D8E0DEBFCDBF26E0A2E5B2E001C01D92BC
:1014C000A43AB207E1F712E0A0E0B1E0EEE7F7E7F7
:1014D00002C005900D92A235B107D9F71AE0C5E513
:1014E000DAE004C02197FE010E94DF38C435D1073D
:1014F000C9F70E94A6230C94BD3B0C940000662300
:1015000029F06A3019F0862F90E008958FEF9FEF51
:101510000895AF92BF92CF92DF92EF92FF920F9316
:10152000CF93DF93EC01DA017901942F9770E1E01A
:10153000F0E09F01092E01C0220F0A94EAF7522F12
:101540006E018AE8C80ED11CF601808140E082302D
:1015500018F4422F813049F15D01F8EFAF22E8AD78
:10156000F9AD28813981D90150968C918A9D9001DD
:101570008B9D300D1124620F731FDF01A60FB71F63
:1015800001111AC0EA0EFB1E8C91842B85278D93C6
:10159000AE15BF05C9F7DF91CF910F91FF90EF9086
:1015A000DF90CF90BF90AF90089550E0D5CF440F1B
:1015B000550FE114F10479F33C91342B35273C931A
:1015C0009F5F9770E1E0EE1AF1089111F0CF2CAD1A
:1015D0003DADA20FB31FF6018081823028F4813027
:1015E00009F051E041E0E5CF51E0E3CF80E008951C
:1015F00090E080E008952091950630919606281796
:10160000390728F4809193068160809393060895AA
:1016100081E08093280508958091490390914A03C1
:10162000891B990B0895089508958F929F92AF9208
:10163000BF92CF92DF92EF92FF92CF93DF93A09170
:10164000830530E081113A2F8091840590E0880F66
:10165000991FAC014B585B4EC0908905D0908A050C
:10166000E0908B05F0908C0560E070E0CB01FA0112
:10167000C591D49128812A2323130FC04B015C010B
:101680002FEF821A920AA20AB20A6C157D058E0506
:101690009F0570F060E070E0CB01DF91CF91FF908B
:1016A000EF90DF90CF90BF90AF909F908F90089574
:1016B000C501B401DCCF9B01DC011896ED91FC91D2
:1016C00041E067E10994FC01538D448D252F30E002
:1016D000842F90E0821B930B541710F0CF9608953F
:1016E00001970895FC01918D828D981761F0A28D6C
:1016F000AE0FBF2FB11D5D968C91928D9F5F9F7332
:10170000928F90E008958FEF9FEF0895FC01918DE7
:10171000828D981731F0828DE80FF11D858D90E054
:1017200008958FEF9FEF0895FC01918D228D892FF1
:1017300090E0805C9F4F821B91098F7399270895D9
:10174000FC01A48DA80FB92FB11DA35ABF4F2C9136
:10175000848D90E001968F739927848FA689B7892D
:101760002C93A089B1898C91837080648C93938D24
:10177000848D981306C00288F389E02D80818F7DC7
:1017800080830895EF92FF920F931F93CF93DF937F
:10179000EC0181E0888F9B8D8C8D98131AC0E889AD
:1017A000F989808185FF15C09FB7F894EE89FF897C
:1017B0006083E889F98980818370806480839FBF1A
:1017C00081E090E0DF91CF911F910F91FF90EF901A
:1017D0000895F62E0B8D10E00F5F1F4F0F7311272A
:1017E000E02E8C8D8E110CC00FB607FCFACFE88965
:1017F000F989808185FFF5CFCE010E94A00BF1CF42
:10180000EB8DEC0FFD2FF11DE35AFF4FF0829FB7D8
:10181000F8940B8FEA89FB8980818062CFCFCF93C8
:10182000DF93EC01888D8823B9F0AA89BB89E88908
:10183000F9898C9185FD03C0808186FD0DC00FB6AE
:1018400007FCF7CF8C9185FFF2CF808185FFEDCF2C
:10185000CE010E94A00BE9CFDF91CF91089581E7DF
:1018600093E00E94940B21E0892B09F420E0822F61
:10187000089580E090E0892B29F00E942F0C8111BF
:101880000C9400000895833081F028F4813099F0A1
:101890008230A9F008958730A9F08830C9F08430EB
:1018A000B1F4809180008F7D03C0809180008F779C
:1018B00080938000089584B58F7784BD089584B5A2
:1018C0008F7DFBCF8091B0008F778093B00008951B
:1018D0008091B0008F7DF9CF1F93CF93DF93282F96
:1018E00030E0F901EF59FB4E8491F901ED56FB4EC2
:1018F000D491F901E158FB4EC491CC23A9F0162FE5
:1019000081110E94430CEC2FF0E0EE0FFF1FE95A0B
:10191000FB4EA591B4918FB7F894EC91111108C0CA
:10192000D095DE23DC938FBFDF91CF911F91089577
:10193000DE2BF8CFCF93DF9390E0FC01ED56FB4E0A
:10194000249181589B4EFC0184918823C9F090E03A
:10195000880F991FFC01E35BFB4EA591B491FC013C
:10196000E95AFB4EC591D49161110DC09FB7F8940F
:101970008C91209582238C938881282328839FBF74
:10198000DF91CF910895623051F49FB7F8943C9164
:10199000822F809583238C93E8812E2BEFCF8FB7F6
:1019A000F894EC912E2B2C938FBFEACF3FB7F8948D
:1019B0008091F1029091F202A091F302B091F402B1
:1019C00026B5A89B05C02F3F19F00196A11DB11D9A
:1019D0003FBFBA2FA92F982F8827BC01CD01620FD6
:1019E000711D811D911D42E0660F771F881F991F91
:1019F0004A95D1F708958F929F92AF92BF92CF925E
:101A0000DF92EF92FF926B017C010E94D60C4B019A
:101A10005C01C114D104E104F104B9F00E94D60CB8
:101A2000681979098A099B09683E73408105910507
:101A300080F321E0C21AD108E108F10888EE880E8F
:101A400083E0981EA11CB11CE4CFFF90EF90DF90C3
:101A5000CF90BF90AF909F908F9008952FB7F8943C
:101A60006091ED027091EE028091EF029091F00290
:101A70002FBF0895CF92DF92EF92FF920F931F93A3
:101A8000CF93DF93CDB7DEB7C054D1400FB6F894F3
:101A9000DEBF0FBECDBF10928D050E942E0D60934C
:101AA000850570938605809387059093880510922D
:101AB0007F0510927E0510927D0510927C05109294
:101AC0007B0561E0809181050E946C0C62E370E00F
:101AD00080E090E00E94FB0C61E0809181050E9413
:101AE0009A0C60E0809181050E946C0C64E170E0CA
:101AF00080E090E00E94FB0CF89461E08091810509
:101B00000E946C0C8BE990E00197F1F760E0809106
:101B100081050E949A0C83E290E00197F1F780E042
:101B20000E94150B672B682B692BA1F410928E0570
:101B3000789480E0C05CDE4F0FB6F894DEBF0FBE35
:101B4000CDBFDF91CF911F910F91FF90EF90DF906C
:101B5000CF90089581E00E94150B672B682B692BAD
:101B600029F38E010F5F1F4F6E018FEBC81A8EEFA6
:101B7000D80A780180E00E94150BF7016083718319
:101B80008283938381E00E94150BF7016483758340
:101B900086839783F8E0EF0EF11CEC14FD0451F7F7
:101BA000789430E020E0F801C080D180E280F380BA
:101BB0004481558166817781C114D104E104F10427
:101BC00029F0411551056105710519F410928E0532
:101BD000B0CFF90183E0F595E7958A95E1F7E558EF
:101BE000FA4F8081880FC416D506E606F70610F175
:101BF00080832F5F3F4F085F1F4F2832310599F6D2
:101C000040917F0520917B0580917C05280F33272B
:101C1000331F80917D05280F311D80917E05820F35
:101C2000932F911D99274817190681F681E080931B
:101C30008E0580CF8160DCCF0F931F930E942E0D05
:101C400000918505109186052091870530918805C2
:101C5000601771078207930740F410928505109270
:101C60008605109287051092880520918D05211117
:101C700016C0009185051091860520918705309149
:101C80008805601B710B820B930B603D77408105CB
:101C9000910528F480918E051F910F9108951F9151
:101CA0000F910C943A0DAF92BF92CF92DF92EF92C8
:101CB000FF920F931F93CF93DF936C017B018B01F6
:101CC000040F151FEB015E01AE18BF08C017D10746
:101CD00059F06991D601ED91FC910190F081E02DD0
:101CE000C6010995892B79F7C501DF91CF911F9125
:101CF0000F91FF90EF90DF90CF90BF90AF9008953D
:101D000020919802260F3327331F21323105ECF43E
:101D100020914303FC0190E080E0243069F082E0F0
:101D20000895A09198022191AC0148585D4FA40FED
:101D3000B52FB11D2C930196861798F380919802C8
:101D4000680F6093980280E0089581E008951092F2
:101D5000430381E08093420310923D0361E082E1FE
:101D60000E946C0C61E083E10E946C0CE9EBF0E0F6
:101D700080818E7F808380818D7F808388E48093C3
:101D8000B80085E48093BC00089510924A03109235
:101D900049031092FA0210921C030E94A70E83E1DD
:101DA0009BE09093F8028093F70284E19BE090938C
:101DB000F6028093F5020895CF93DF9391E090931C
:101DC00077028823B9F0C091B800D091BA00809111
:101DD000BC008A7B8093BC0060E082E10E946C0CB6
:101DE00060E083E10E946C0C0E94A70ED093BA00C1
:101DF000C093B800DF91CF910895CF92DF92EF9218
:101E0000FF920F931F93CF93DF93D0911C0381E038
:101E1000D13208F09CC0C0911B030E94D60C6B010C
:101E20007C018091430381116CC082E08093430365
:101E300081E0809342038FEF80934103109240032F
:101E4000D0933F03ABEFB2E0EDE1F3E080E0D813D5
:101E50008DC010923E0380913E03CC0FC82BC093DF
:101E60003E0380913D03813009F084C010923D0310
:101E70000E94D60C6B017C0180913E038093BB00D5
:101E80008091450390914603A0914703B091480388
:101E9000892B8A2B8B2BA1F00E94D60C0091450335
:101EA0001091460320914703309148036C197D0936
:101EB0008E099F09061717072807390708F442C03B
:101EC0008091BC0083FDD8CF85EC8093BC000E943C
:101ED000D60C6B017C0180914303823009F44CC025
:101EE000809141038F3F09F469C0809141038032A2
:101EF00009F466C080914103803309F463C084E033
:101F000026C08091450390914603A0914703B0916C
:101F10004803892B8A2B8B2B09F483CF0E94D60C84
:101F200000914503109146032091470330914803E7
:101F30006C197D098E099F090617170728073907AD
:101F400008F06FCF809144030E94DC0E85E0109270
:101F5000FA0210921C031092F902DF91CF911F91A7
:101F60000F91FF90EF90DF90CF9008959D91919306
:101F70008F5F6DCF85EEA9CF809145039091460389
:101F8000A0914703B0914803892B8A2B8B2B09F42E
:101F9000A2CF0E94D60C00914503109146032091D8
:101FA0004703309148036C197D098E099F09061774
:101FB00017072807390708F08ECFC4CF80E0C7CFB6
:101FC00082E0C5CF83E0C3CF0895E0914A038091BA
:101FD0004903E81730F4F0E0E55BFC4F808190E0C6
:101FE00008958FEF9FEF089590914A0380914903E0
:101FF0002FEF3FEF981748F4E92FF0E0E55BFC4F37
:10200000208130E09F5F90934A03C9010895CF92E9
:10201000DF92EF92FF920F931F93CF93DF937C0198
:10202000CB018A012091F902222389F0EB016B0197
:10203000C40ED51ECC15DD0569F06991D701ED916F
:10204000FC910190F081E02DC7010995F3CF642F39
:102050000E94800EC801DF91CF911F910F91FF90D8
:10206000EF90DF90CF90089521E02093F90227E7C9
:1020700020931B031092FA0210921C0342E050E0DE
:10208000BC018EE094E00E9407100E94FD0E982F84
:1020900080937A0581E0911180E00895CF93DF93DA
:1020A0001F92CDB7DEB769832091F9022223F9F0A0
:1020B00020911C03203258F021E030E0FC013383F2
:1020C000228390E080E00F90DF91CF91089580917E
:1020D000FA02E82FF0E0E550FD4F998190838F5F81
:1020E0008093FA0280931C0381E090E0ECCF61E0E2
:1020F000CE0101960E94800EF7CFDC011A96ED9179
:10210000FC9130E020E00994DC011696ED91FC9101
:1021100030E020E040E069E10994DC011696ED91A1
:10212000FC9130E020E040E068E109949A01DC0194
:102130001696ED91FC91462F67E10994EF92FF927C
:102140000F931F93CF93DF931F92CDB7DEB77C0120
:102150008B01D8016C91673129F150F46531A0F4FD
:102160000F90DF91CF911F910F91FF90EF90089505
:102170006A3118F16E3FA1F7F8014181498369E2A4
:10218000C7010E947D100BC0F80141814983D7012E
:102190001696ED91FC9130E020E0C70109950E5FA5
:1021A0001F4FD7CFF80181818983AE014F5F5F4F09
:1021B00061E0C7010E949610F2CF0F5F1F4FD70159
:1021C0001696ED91FC9130E020E040E0C7010995C2
:1021D000C0CF462FDC011696ED91FC9130E020E057
:1021E00066E10994462FDC011696ED91FC9130E0F2
:1021F00020E065E10994EF92FF920F931F93CF9334
:10220000DF93EC01042F79016D3009F446C050F4DE
:102210006B30C9F1693009F49FC06A3009F465C0B8
:1022200080E046C06E3009F452C06F3099F70E94CA
:102230008D10F7011381110F110F110F6C89160FFB
:1022400060E4CE010E94F210612F62956F706061B0
:10225000CE010E94F210612F6F70CE010E94E91032
:10226000F7016481606BCE010E94E910F7014081A3
:1022700051816281660F660F660FCE010E94961033
:102280000150A1F72EC06CE371E0442311F067E325
:1022900071E0CE010E949E100AC0411110C060E39F
:1022A00071E00E949E10E881F98182898C8B81E027
:1022B000DF91CF911F910F91FF90EF90089569E208
:1022C00071E00E949E10E881F9818389EFCF0E941E
:1022D0008D1061E8CE010E94F210602FCE010E94A5
:1022E000E910CE010E948410E2CFEA85FB8530E040
:1022F00020E040E068E2CE010995EE81FF8130E008
:1023000020E040E064E1CE01099541E06BE4CE01BC
:102310000E947D10E881F981448169E2CE010E942A
:102320007D1040E06BE4CE010E947D10E881F981D0
:10233000448169E2CE010E947D1041E06BE4CE0150
:102340000E947D10E881F981458169E2CE010E94F9
:102350007D1061E471E09DCF86E791E099838883E9
:102360001C8AA5CFDC011896ED91FC9130E020E0AD
:1023700040E069E10994DC011896ED91FC9130E0B0
:1023800020E040E068E10994CF93DF931F92CDB73E
:10239000DEB76983BE016F5F7F4F0E945B0B0F90BA
:1023A000DF91CF910895EF92FF921F93CF93DF9328
:1023B000EC01162F7A010E94BB1160E4CE010E944D
:1023C000C411E885F9859701412F67E1CE01099590
:1023D000CE01DF91CF911F91FF90EF900C94B2113D
:1023E000EF92FF921F93CF93DF93EC01142F7901AB
:1023F000663181F138F4643109F44BC0653179F00C
:1024000080E022C06831C9F150F16931C9F780918B
:102410007602882391F1CE010E94B2112EC08091E4
:102420007602882319F0CE010E94B211CE010E94DB
:10243000BB1160E0CE010E94C411612FCE010E9449
:10244000C41181E080937602DF91CF911F91FF90BC
:10245000EF900895642F0E94C41181E0F5CF809120
:102460007602882319F0CE010E94B211A70119311A
:1024700038F4612FCE010E94D31110927602EDCF75
:1024800068E1CE010E94D311185188E1E80EF11CD9
:10249000EDCF8E898F3F11F488E78E8BE885F98523
:1024A0009701412F64E1CE01DF91CF911F91FF9001
:1024B000EF900994FC016623D9F16A30C9F1808D4F
:1024C000811125C06C3F48F085E0808F617070E01D
:1024D000738B628B2EEF3FEF29C0683F20F084E0C2
:1024E000808F6370F4CF603F20F083E0808F67704F
:1024F000EECF603E20F082E0808F6F70E8CF262F15
:1025000030E0603C98F081E0808F6F71E0CF8150C7
:10251000808F2289338996E0220F331F9A95E1F745
:102520006F73262B338B228B8111D4CFC901089571
:102530002FEF3FEFFBCF0F93FC01E05CFF4F0190CB
:10254000F081E02D4E1B5F0BDC01D496ED91FC91E8
:1025500009950F910895CF93DF93FC01A081B1817C
:1025600082AD90E09C0143E0220F331F4A95E1F7D2
:1025700037AF26AF50962C91509748E0249F90019A
:10258000112435AF24AF23AD30E0B90153E0660F1D
:10259000771F5A95E1F7EF01C05CDF4F79836883BD
:1025A00051964C915197E901C80FD91F50E04C1733
:1025B0005D0718F4CA01821B930BEF01CE5BDF4F5E
:1025C00079836883229623E0880F991F2A95E1F783
:1025D000860F971F99838883229654968D919C919C
:1025E000559799838883E85BFF4F56968D919C9110
:1025F00091838083DF91CF9108950F931F93FC0106
:10260000E25BFF4F0190F081E02DDC01A05BBF4F4A
:102610000D90BC91A02D4A175B0740F4E017F1071D
:1026200048F00417150730F080E019C0E017F107F3
:10263000C0F3FACFFC01E65BFF4F40815181845B20
:102640009F4FFC01808191816817790758F481E0E0
:102650004217530720F081E02617370728F71F910C
:102660000F91089542175307B0F3DECF2F923F9298
:102670004F925F926F927F928F929F92AF92BF9292
:10268000CF92DF92EF92FF920F931F93CF93DF933E
:10269000CDB7DEB72A970FB6F894DEBF0FBECDBF19
:1026A0009A878987865B9F4F9A838983FC01118271
:1026B0001082E985FA85EA5BFF4F408051802985C9
:1026C0003A85245B3F4F3C832B83F9015182408242
:1026D000E985FA85EE5BFF4F2080318029853A85B8
:1026E000225B3F4F3E832D83F90131822082E985B1
:1026F000FA85EC5BFF4F6080718029853A85205B0D
:102700003F4F38872F83F90171826082E985FA850E
:10271000E85AFF4FE080F180E985FA85EC5AFF4FD7
:10272000A080B180E985FA85EA5AFF4FC080D18048
:10273000E985FA85EE5AFF4F8080918087019501E7
:10274000A601B40189859A850E94FD1229853A85E2
:102750002C573F4F3A87298781111BC0F9011082FE
:102760002A960FB6F894DEBF0FBECDBFDF91CF9192
:102770001F910F91FF90EF90DF90CF90BF90AF909F
:102780009F908F907F906F905F904F903F902F9091
:10279000089581E0E985FA8580838114910421F010
:1027A000E981FA8191828082A414B50420F4EB813E
:1027B000FC81B182A0822C143D0420F4ED81FE81C5
:1027C000D182C082E614F70458F6EF81F885F182D1
:1027D000E082C6CF0F93CF93DF93E02FDC01AC579D
:1027E000BF4FFC91FF2309F460C02115310509F4A6
:1027F0005CC02230310538F0023009F04AC06F5F0A
:102800007F4F621B730B0E2F0170E0FD52C0FC0165
:10281000E25BFF4F0190F081E02D4E175F0708F457
:1028200044C0FC01E05BFF4F0190F081E02D4E17AA
:102830005F07D8F5FC01E45BFF4F0190F081E02DCC
:10284000DC01A65BBF4F0D90BC91A02D260F371F5A
:102850002617370738F56E177F0718F59F012150A7
:102860003109A217B30708F56A177B0708F4BD0101
:102870002E173F0708F4F901E61BF70BEC01AEA990
:10288000BFA914960D90BC91A02D9F01FD01099543
:102890000CC0033009F0B7CF4F5F5F4F421B530BA3
:1028A000B2CFBD016E177F07E0F2DF91CF910F919C
:1028B0000895FC01E65BFF4F0190F081E02D6E175B
:1028C0007F0798F3FC01E45BFF4F0190F081E02D5E
:1028D0006E177F0750F7FC01E05BFF4F0190F0811E
:1028E000E02DDC01A25BBF4F0D90BC91A02D240F09
:1028F000351F24173507A8F44E175F0788F49F018A
:1029000021503109A217B30780F64A175B0708F474
:10291000AD012E173F0708F4F901E41BF50BAECF0C
:10292000AD014E175F0708F6EDCF213069F038F0A2
:10293000223079F0840F911D47FD9A950895860FF6
:10294000911D67FD9A950895841B910947FD939504
:102950000895861B910967FD93950895213069F0CC
:1029600038F0223079F0861B910967FD9395089520
:10297000840F911D47FD9A950895860F911D67FD5F
:102980009A950895841B910947FD939508953F9268
:102990004F925F926F927F928F929F92AF92BF926F
:1029A000CF92DF92EF92FF920F931F93CF93DF931B
:1029B0007C01162F442EEC01C25ADF4F5E806F80DF
:1029C0006C018AE8C80ED11C78847518312E7116F6
:1029D00008F4372C8C809D800E85202F462D652D88
:1029E0008A819B810E9495145C01202F462D652DC4
:1029F000C4010E94AE14AC01442079F08C85F6012C
:102A00008083232D30E0B501C7010E94EA1317151A
:102A100048F017196394512CD7CF8B858111F7CFCC
:102A20008D85EDCF150D1E836F82DF91CF911F91A4
:102A30000F91FF90EF90DF90CF90BF90AF909F905D
:102A40008F907F906F905F904F903F900895DC0142
:102A50001A964C911A97ED91FC911197249130E0C0
:102A6000042E02C0359527950A94E2F7842F860F2D
:102A7000883068F031961196FC93EE93E49198E0DB
:102A8000941B01C0EE0F9A95EAF72E2B88501A96E8
:102A90008C938FEF9FEF01C0880F6A95EAF78095BE
:102AA000822308950F931F93CF93DF938C01EC0142
:102AB000C25ADF4F798368831A86FC01EF58FF4FB3
:102AC0006081CE010E9427158887F801EE58FF4FDC
:102AD0006081CE010E9427158987F801E657FF4FD4
:102AE00090819C8781E0911180E08D87DF91CF916B
:102AF0001F910F910895CF93C62F0E942715C150A3
:102B000021E030E001C0220FCA95EAF7821BCF9185
:102B10000895FC01E60FF11D849190E0982F88271D
:102B20003196E4918E0F911D0895EF92FF920F93CD
:102B30001F93CF93DF93FC01E65AFF4F2081318131
:102B4000295E3F4F6F3F710509F048F56136710509
:102B5000D8F080589F4FFC0180819181280F391F48
:102B6000C9010196FC014491442309F447C0F901CD
:102B700044914617170671F40196DF91CF911F918A
:102B80000F91FF90EF9008956134710548F38258DA
:102B90009F4FE1CFFC018491280F311DE1CF8B01C4
:102BA000FC01EE57FF4FC081D181C20FD31F7E01C0
:102BB00060E0C7010E948915C80FD91F62E0C701F4
:102BC0000E948915F4E0EF0EF11C8017910780F345
:102BD000FE01849190E0982F88273196E4918E2B06
:102BE000009761F00817190719F4CE010396C5CFB5
:102BF000FE013296E491CE0FD11DEACF90E080E045
:102C0000BCCFCF92DF92FF920F931F93CF93DF93AE
:102C1000109204051092B6046C0180ECF82E10E0BE
:102C200000E0D0E0C0E0F60161916F01E091A00406
:102C3000F091A1048EE994E009958F3F980789F1FE
:102C40008E3F2FEF920779F3BC018EE994E00E944A
:102C50009515009721F1BC018EE994E00E94521570
:102C6000609111058CEF94E00E947B1580932605FE
:102C7000609112058CEF94E00E947B156091130522
:102C80008CEF94E00E947B15082F880F110B80ECCD
:102C9000F81202C0F0902605C00FD11FC4CF80E00B
:102CA000F3CF20910405222399F080912605022E6E
:102CB000000C330B280F311D87FD3A95C20FD31F2F
:102CC000C01BD10B1F1424F4CF0DD11DF7FCDA95D6
:102CD000CE01DF91CF911F910F91FF90DF90CF90A8
:102CE0000895CF93DF93EC016BAFEEA9FFA901909C
:102CF000F081E02D0995EEA9FFA90280F381E02D76
:102D0000CE01DF91CF910994AF92BF92CF92DF9223
:102D1000EF92FF920F931F93CF93DF9300D000D0D9
:102D20001F92CDB7DEB78C01DC01DA96AC90DA9752
:102D3000DB96EC90DB97ED91FC91B188FE2CD12CC9
:102D4000C12CD801ED91FC9111978089D8962D91D5
:102D50003C911C82FD828B83B8E08B9FC0011124C3
:102D60008C9DA0018D9D500D9C9D500D1124240F14
:102D7000351F3A832983D8011496ED91FC919E0169
:102D80002F5F3F4F41E06FE0C8010995F3948F2D0D
:102D90008E198A1528F4BFEFCB1ADB0AFB1488F2D0
:102DA0000F900F900F900F900F90DF91CF911F9188
:102DB0000F91FF90EF90DF90CF90BF90AF9008956C
:102DC000CF93DF93EC01962F683189F1B9019931E6
:102DD00030F4943199F0973159F080E006C0993180
:102DE00009F447C09032C9F781E0DF91CF9108958F
:102DF00050E08EE094E00E940710F6CF8C859D8510
:102E0000AE85BF85892B8A2B8B2B71F4E881F981E4
:102E1000A585B0E020EA36E841E050E00E94423764
:102E20006C877D878E879F870E94C50EDDCF2C859E
:102E30003D854E855F8560E074E284EF90E00E94FE
:102E40002037205131094109510956954795379549
:102E500027952093B8008E8990E09595879591E00D
:102E60009093F90280931B031092FA0210921C03B4
:102E7000BBCF0E94FD0EB8CF0F931F93CF93DF936C
:102E8000EC01862F642F8C3208F03AC08A3208F0A9
:102E900060C0883209F44BC0893209F460C08034C4
:102EA00008F475C0982F9F73FE01E90FF11D868D00
:102EB0008F3F09F44EC0903108F436C0282F30E01F
:102EC000F901EF59FB4E8491F901ED56FB4E049147
:102ED000F901E158FB4E1491112379F081110E9400
:102EE000430CE12FF0E0EE0FFF1FEB58FB4EA591D6
:102EF000B491EC910E2381E009F480E0898F29C020
:102F00008D3299F108F4CBCF94EB980F923008F002
:102F1000C6CF8F73C80FD11D8E8D411134C061E0B3
:102F20000E949A0C60E08E8D0E946C0C12C08E0183
:102F3000025E1F4FD0E0F80181918F018F3F31F089
:102F400061E0D03108F062E00E949A0CDF5FD63178
:102F500091F781E0DF91CF911F910F91089570E07B
:102F600090E080E00E94FB0CF4CF85E090E04330DD
:102F700010F082E090E0880F991F880F991F059745
:102F80000197F1F7E6CF62E00E949A0CE2CF80E071
:102F9000E1CF22E3FC012E9FC0012F9F900D112451
:102FA000480F591F7695679576956795CB01880FE1
:102FB000991F860F971F8417950750F485E0869F09
:102FC0009001879F300D112481E02417350708F404
:102FD00080E008954CEE5FEF0C94C9174F925F921A
:102FE0006F927F929F92AF92BF92CF92DF92EF92B9
:102FF000FF920F931F93CF93DF93182F5A01922EB6
:10300000C62FD0E0CF55DA4F412C512C32014394DA
:10301000C12CD12C7601112301F19920B1F08881C6
:10302000B50190E00E94EA17002379F1CC0CDD1C79
:10303000EE1CFF1C882311F06894C0F8440C551C4A
:10304000661C771C11502296E6CF898144E150E03E
:10305000B50190E00E94C917E7CFC0927106D092E7
:103060007206E0927306F0927406DF91CF911F9181
:103070000F91FF90EF90DF90CF90BF90AF909F9017
:103080007F906F905F904F9008958823B9F2C42885
:10309000D528E628F728D2CFCF93DF93EC01FC01A7
:1030A0003396659174918091A20590E00E94EA1791
:1030B000882369F0FE013596659174918091A3058E
:1030C00044E150E090E0DF91CF910C94C91780E08B
:1030D000DF91CF91089522E3289FA001299F500DF1
:1030E000112476956795769567959B01220F331F7E
:1030F000260F371F4217530750F085E0869F900137
:10310000879F300D112481E02417350708F480E0F3
:103110000895BF92CF92DF92EF92FF920F931F9389
:10312000CF93DF931091700380919406B12C181700
:10313000A0F5812F8170B82E00916F0301111EC080
:10314000E12FF0E0EC56FA4FE584F12CCCEEDFEF06
:10315000882311F0C4E1D0E0C0906D03D0906E03DD
:10316000CC0DDD1DBE01C7010E946B18882301F143
:1031700081E090E090936C0380936B030F5F00936A
:103180006F0380916B0390916C030817190628F068
:1031900010926F031F5F109370038B2DDF91CF91FF
:1031A0001F910F91FF90EF90DF90CF90BF90089507
:1031B000CC0DDD1DBE01C7010E946B18882319F0DC
:1031C00082E090E0D7CFB6016C0F7D1FC7010E944F
:1031D0006B18882319F083E090E0CCCFBB24BA941D
:1031E000DCCFCF92DF92EF92FF920F931F93CF939A
:1031F000DF936C01EB017B01E40EF51E10E000E0B3
:10320000CE15DF0561F06991D601ED91FC91019039
:10321000F081E02DC6010995080F191FF1CFC801F3
:10322000DF91CF911F910F91FF90EF90DF90CF90A2
:1032300008952F923F924F925F926F927F928F925A
:103240009F92AF92BF92CF92DF92EF92FF920F9335
:103250001F93CF93DF9300D000D01F92CDB7DEB77E
:103260009D838C835C0124E0A20EB11CFC01E0571D
:10327000FF4F0190F081E02DC50109958C010E3FB3
:103280008FEF180708F012C16C807D8094E9690EF9
:10329000711CF301E080F1808C809D80F2E98F0E3B
:1032A000911CF401C080D1808C819D8180599F4FF9
:1032B0009A838983FC018081813009F47AC008F403
:1032C0006CC0823009F481C0833009F48AC0EC817B
:1032D000FD81EC59FF4FD182C082EC81FD81EA591A
:1032E000FF4FF182E082B801C5010E949515009759
:1032F00009F42EC1EC80FD80F2E6EF0EF11CBC015A
:10330000C5010E945215EC81FD81E559FF4F5080A7
:10331000EC81FD81E958FF4F6081C7010E947B1558
:10332000382EEC81FD81E858FF4F6081C7010E9473
:103330007B15082FEC81FD81E758FF4F6081C701A5
:103340000E947B158B83F701408414140CF09CC001
:103350001685050D0195212F402F632D82819381C4
:103360000E9495146C01F70193838283212F402FD3
:10337000632D848195810E94AE14F7019583848327
:10338000113009F4ADC0C8F1123009F4BAC01330DD
:1033900009F4CDC08C0196013AC0EC81FD81E05A60
:1033A000FF4F0190F081E02DC5010995E80EF91E4F
:1033B0008ECFEC81FD81E05AFF4F0190F081E02D2E
:1033C000C5010995C81AD90A82CFEC81FD81E05A5E
:1033D000FF4F0190F081E02DC5010995E81AF90A27
:1033E00076CFEC81FD81E05AFF4F0190F081E02D16
:1033F000C5010995C80ED91E6ACF9601240D311D4D
:1034000047FC3A958C01050D111D57FC1A95AC012E
:10341000B601C5010E94FD128823B1F1F7011682A1
:1034200017822C803D80F3E72F0E311C0C811D810B
:103430000C581F4FF1016081C7010E942715C82E4B
:10344000F8016081C7010E942715D82E40E06C2D3D
:10345000C5010E94C71441E06D2DC5010E94C7142B
:1034600061E0C7010E9427158111F0CFF701878124
:10347000851504F38C819D8182579F4F9D838C839A
:103480008485EC81FD818083FB818F2FFF0F990B59
:10349000E981FA812081213009F465C008F45BC01C
:1034A000223009F462C0233009F467C081E090E063
:1034B0000F900F900F900F900F90DF91CF911F9171
:1034C0000F91FF90EF90DF90CF90BF90AF909F90C3
:1034D0008F907F906F905F904F903F902F900895C6
:1034E00041E050E04519510957FC539596012F5F73
:1034F0003F4F8C01040D111D47FC1A95C40ED51EBB
:1035000086CF41E050E0BA016419710947FC739518
:1035100096012F5F3F4F4519510957FC53958C0178
:103520000F5F1F4F840F951FC60ED71E70CF9601D9
:10353000250D311D57FC3A9541E050E044195109E1
:1035400047FC53958C010F5F1F4F840F951F5FCF72
:1035500090E080E09DCFF40120813181820F931FA4
:1035600091838083A3CFF301F7CFF40120813181D0
:10357000281B390B3183208399CFF301F7CF0F93A9
:103580001F93CF93DF938C01D0E0C0E0F801EC0FE4
:10359000FD1F6491662341F08AE994E00E941919A5
:1035A000892B11F02196F2CFCE01DF91CF911F919F
:1035B0000F910895089590E080E008958091A2060B
:1035C000811102C02D98089560E00C946C0C882342
:1035D00049F08091A206811102C02D9A089561E000
:1035E0000C946C0C0C94DE1A8F929F92AF92BF9247
:1035F000CF92DF92EF92FF921F93CF93DF93EC0174
:103600000E94D60C6B017C014B015C0188E0880EA6
:10361000911CA11CB11C10E0F89461E080918F0511
:103620000E946C0C809192059091930582309105D7
:1036300038F0880F991F880F991F05970197F1F7A8
:1036400060E080918F050E946C0C7894111103C08A
:1036500081E00E94E71A8091900590919105C80E33
:10366000D91EE11CF11CF8940E94D60C9B0128196C
:1036700039092C173D0778F00E94DE1A7894DF9103
:10368000CF911F91FF90EF90DF90CF90BF90AF90C0
:103690009F908F90089511E06C157D058E059F0514
:1036A00018F3BACFCF92DF92EF92FF928AE190E0C7
:1036B000909391058093900585E090E09093930519
:1036C0008093920561E080918F050E949A0C80E0C2
:1036D00093E20E94F41A0E94D60C6B017C0124E054
:1036E000C21AD108E108F1080E94D60C6C197D09B4
:1036F0008E099F09603C784081059105A8F380E31D
:1037000092E0FF90EF90DF90CF900C94F41A8F929C
:103710009F92AF92BF92CF92DF92EF92FF920F9360
:103720001F93CF938C01C62F0E94D60C6B017C0196
:1037300080914303811169C0C13208F0C0E281E089
:1037400080934303809342039FEF90934103109231
:1037500040039C0F90933F0380933E0380913E0370
:10376000000F111F802B80933E0380913D03813019
:1037700009F082C010923D030E94D60C6B017C01BF
:1037800080913E038093BB00809145039091460356
:10379000A0914703B0914803892B8A2B8B2BA1F072
:1037A0000E94D60C009145031091460320914703D7
:1037B000309148036C197D098E099F090617170778
:1037C0002807390708F442C08091BC0083FDD8CF98
:1037D00085EC8093BC000E94D60C6B017C0180912B
:1037E0004303813009F44AC0809140038C1710F4E0
:1037F000C0914003ADE1B3E0EBE4F3E080E08C176F
:1038000051F19D9191938F5FFACF809145039091F3
:103810004603A0914703B0914803892B8A2B8B2B39
:1038200009F486CF0E94D60C809045039090460301
:10383000A0904703B09048036C197D098E099F0939
:1038400086169706A806B90608F072CF8091440341
:103850000E94DC0EC0E010924A03C09349038C2FF3
:10386000CF911F910F91FF90EF90DF90CF90BF907D
:10387000AF909F908F90089585EEABCF80914503D8
:1038800090914603A0914703B0914803892B8A2B5E
:103890008B2B09F4A4CF0E94D60C00914503109104
:1038A000460320914703309148036C197D098E0926
:1038B0009F09061717072807390708F090CFC6CFCA
:1038C000EF92FF920F931F93CF93DF938C01F62E0D
:1038D00081E08093F90287E780931B031092FA023C
:1038E00010921C03F80160818EE094E00E944E105B
:1038F0000E94FD0E80937A05811126C0CF2D0F2CDA
:10390000000CDD0BBE0187E790E00E94871B8091D1
:10391000490390914A03891B990BC817D907E9F706
:10392000E02EC02FD12F8EE094E00E94F40F8993F7
:103930008C2F8E198F15BCF381E0DF91CF911F91F1
:103940000F91FF90EF90089580E0F7CF0F931F93B2
:10395000CF93DF9300D0CDB7DEB78B01898362E0D0
:10396000CE0101960E94601C882381F089819A8192
:10397000982789279827F8019183808381E00F9009
:103980000F90DF91CF911F910F910895F80111824F
:103990001082F5CF0F931F93CF93DF9300D0CDB755
:1039A000DEB78B01898362E0CE0101960E94601C24
:1039B000882381F089819A81982789279827F8019F
:1039C0009183808381E00F900F90DF91CF911F91C1
:1039D0000F910895F80111821082F5CFFF920F9395
:1039E0001F93CF93DF93CDB7DEB764970FB6F894EC
:1039F000DEBF0FBECDBF162FF42E44E150E0BC0158
:103A0000CE0101960E94E3350889802F8071488598
:103A1000598504FD02C04A855B85001F0027001FF1
:103A200021E0811101C020E06F2D812F0E94EE174F
:103A300064960FB6F894DEBF0FBECDBFDF91CF9175
:103A40001F910F91FF900895FC0101900020E9F76C
:103A50003197AF01481B590BBC018AE994E00C94E3
:103A6000F1188F929F92AF92BF920F931F93CF93B3
:103A7000DF93CDB7DEB7A1970FB6F894DEBF0FBEC8
:103A8000CDBF19A2423008F44AE08E010F5D1F4FEE
:103A9000842E912CB12CA12CA50194010E942037D9
:103AA000E62FB901CA01EA30F4F4E05DD801EE93E3
:103AB0008D01232B242B252B79F790E080E01097A4
:103AC00019F0CD010E94241DA1960FB6F894DEBF17
:103AD0000FBECDBFDF91CF911F910F91BF90AF90DF
:103AE0009F908F900895E95CE1CF4F925F926F9223
:103AF0007F928F929F92AF92BF92CF92DF92EF927E
:103B0000FF920F931F93CF936B017C01742EAC0136
:103B10009B010E94A638882399F082ED91E0CF9115
:103B20001F910F91FF90EF90DF90CF90BF90AF90DB
:103B30009F908F907F906F905F904F900C94241D7A
:103B400046015701E894B7F82FEF3FEF4FE75FE7E3
:103B5000C501B4010E94A63881110DC02FEF3FEFBF
:103B60004FE75FE7C501B4010E94EC3518161CF45D
:103B700086ED91E0D4CF2FEF3FEF4FE75FE4C70131
:103B8000B6010E94A13818161CF48AED91E0C7CF47
:103B90002FEF3FEF4FE75FECC701B6010E94EC3516
:103BA00087FDF3CF20E030E0A901C701B6010E94F4
:103BB000EC3510E000E087FF0AC06DE28AE994E08E
:103BC0000E9419198C01F7FAF094F7F8F094C0E00C
:103BD00060E070E080E09FE37C1641F020E030E0A0
:103BE00040E251E40E940038CF5FF6CFA701960172
:103BF0000E9494372B013C010E9472384B015C01FA
:103C00004AE00E94311D7C01E00EF11ECC23C1F17F
:103C1000C501B4010E94F1359B01AC01C301B201A1
:103C20000E9493374B015C016EE28AE994E00E94A6
:103C30001919E80EF91EC15018F120E030E040E2F9
:103C400051E4C501B4010E9452362B013C010E948F
:103C500072384B01B12CA12C4AE0C501B4010E947D
:103C6000311DE80EF91EC501B4010E94F1359B011A
:103C7000AC01C301B2010E9493374B015C01DBCF61
:103C8000C701CF911F910F91FF90EF90DF90CF90E0
:103C9000BF90AF909F908F907F906F905F904F906C
:103CA0000895FC01A081B18150962C9182AD38E03D
:103CB000839FC0011124289FA001299F500D11242A
:103CC00070E060E080AD91AD0C94E5381F93CF9328
:103CD000DF93EC010E9484161BAD8AAD180FE881BA
:103CE000F9818189181768F0EC81FD8130E020E0CE
:103CF00040E060E1CE01099580E0DF91CF911F9116
:103D00000895FE01E557FF4F8081882319F0CE0109
:103D10000E94511E612FCE010E94711681E0EDCFED
:103D2000CF93DF93EC01FC01E557FF4F808188239F
:103D300019F0CE010E94511E60E0CE01DF91CF91BB
:103D40000C94711685ED8093BC0080914503909191
:103D50004603A0914703B09148030796A11DB11DEA
:103D600023E0B695A795979587952A95D1F7209149
:103D7000BC0024FD03C01092430308954091450305
:103D8000509146036091470370914803452B462BA1
:103D9000472B69F30097A105B10541F02AE22A9566
:103DA000F1F700C00197A109B109E1CF8091440367
:103DB0000C94DC0E2F923F924F925F926F927F9203
:103DC0008F929F92AF92BF92CF92DF92EF92FF922B
:103DD0000F931F93CF93DF93CDB7DEB760970FB6E6
:103DE000F894DEBF0FBECDBF6C014B018EE994E0AD
:103DF0000E94901E2FE7A22E2AE0B22E34E1432E1D
:103E0000512C8E010F5F1F4F4AE0342E5DEE652E60
:103E100051E0752E60E1262EB092A104A092A0047C
:103E2000C6010E9401167C01B092A104A092A004D8
:103E3000C4010E9401169701E816F9060CF49C01D2
:103E400090E8E92EF12CE21AF30AF7FE03C02FEFF7
:103E5000E21AF20AF594E794F0922D05E0922C050F
:103E600050922F0540922E05C6010E94BF1A8091E4
:103E7000E10281114DC08091D502839DC0011124C2
:103E80008053984F2091D402820F911D9F938F935E
:103E90002091D7028091D60290E0239D800D911D44
:103EA00011249F938F932091D9028091D80290E0A2
:103EB000239D800D911D11249F938F938EED91E092
:103EC0009F938F931F922F921F930F930E94EC3812
:103ED0000FB6F894DEBF0FBECDBFE091E002E00F59
:103EE000F12FF11DD8010D900020E9F71197A01BCB
:103EF000B10BCF01801B910B8A179B076CF580815A
:103F00008E3221F08A3311F098E590833196EACF12
:103F10002091C8028091C70290E0239D800D911DE1
:103F200011249F938F932091CA028091C90290E03F
:103F3000239D800D911D11249F938F932091CC027E
:103F40008091CB0290E0239D800D911D11249F93C1
:103F50008F937F926F92B6CFF0922D05E0922C0551
:103F600088E290E090932F0580932E05C8010E946F
:103F7000241D8EE994E00E94661E81114DCF60964B
:103F80000FB6F894DEBF0FBECDBFDF91CF911F916A
:103F90000F91FF90EF90DF90CF90BF90AF909F90E8
:103FA0008F907F906F905F904F903F902F900895EB
:103FB0001F920F920FB60F9211242F933F938F935E
:103FC0009F93AF93BF938091ED029091EE02A091E9
:103FD000EF02B091F0023091EC0223E0230F2D3775
:103FE00058F50196A11DB11D2093EC028093ED02BE
:103FF0009093EE02A093EF02B093F0028091F10251
:104000009091F202A091F302B091F4020196A11DE9
:10401000B11D8093F1029093F202A093F302B0934A
:10402000F402BF91AF919F918F913F912F910F908B
:104030000FBE0F901F90189526E8230F0296A11D22
:10404000B11DD2CF1F920F920FB60F9211242F9352
:104050003F934F935F936F937F938F939F93AF9310
:10406000BF93EF93FF9381E793E00E94A00BFF9132
:10407000EF91BF91AF919F918F917F916F915F91E0
:104080004F913F912F910F900FBE0F901F90189559
:104090001F920F920FB60F9211242F938F939F931D
:1040A000EF93FF93E0918103F09182038081E0918F
:1040B0008703F091880382FD1BC0908180918A0361
:1040C0008F5F8F7320918B03821741F0E0918A03F9
:1040D000F0E0EF58FC4F958F80938A03FF91EF91AA
:1040E0009F918F912F910F900FBE0F901F90189559
:1040F0008081F4CF1F920F920FB60F9211242F934D
:104100003F934F935F936F937F938F939F93AF935F
:10411000BF93EF93FF938091B900887F803609F4B5
:104120004AC0F0F5883209F4A7C018F5803109F4C7
:104130009BC0B8F4882309F4F9C0883009F494C00E
:10414000FF91EF91BF91AF919F918F917F916F916F
:104150005F914F913F912F910F900FBE0F901F9045
:104160001895883109F488C0803251F78093410353
:1041700014C0803409F49DC040F48033B9F388330F
:10418000F9F68093410385ECB0C0803509F485C011
:10419000883509F496C0883499F60E94A21ED0CFC3
:1041A000883909F48CC038F5883729F050F48836FE
:1041B00011F0803729F683E0809343031092BA020E
:1041C00057C0883809F47BC0803919F0803809F06D
:1041D000B7CF8091BA02803208F071C0E091BA0284
:1041E00081E08E0F8093BA028091BB00F0E0E6562A
:1041F000FD4F80833DC0803B39F0E0F4803A09F404
:1042000079C0883A09F09CCF84E0809343031092F0
:10421000990210929802E091F702F091F802099544
:104220008091980281110FC081E0809398021092D2
:10423000780209C0803C09F4A6CF883C09F4A3CFDA
:10424000883B09F07DCFE091990281E08E0F809349
:104250009902F0E0E858FD4F80818093BB00909177
:1042600099028091980229C080913E038093BB00FF
:1042700085EC8093BC0064CF9091400380913F0314
:10428000981758F5E091400381E08E0F809340032A
:10429000F0E0E35EFC4F8081E9CFE091400381E0F4
:1042A0008E0F809340038091BB00F0E0E35EFC4FF3
:1042B00080839091400380913F039817C8F285E86E
:1042C000D8CFE091400381E08E0F8093400380912E
:1042D000BB00F0E0E35EFC4F8083809142038111DC
:1042E0005CCF81E080933D0384EA8093BC00109210
:1042F000430326CF85EC8093BC001092430380914A
:10430000BA02803230F4E091BA02F0E0E656FD4F96
:1043100010826091BA0270E0E091F502F091F6022D
:104320008AE992E009951092BA020ACF10924103ED
:1043300034CF1F920F920FB60F9211242F933F93F9
:104340004F935F936F937F938F939F93AF93BF939D
:10435000CF93EF93FF93E0919605F0919705C0817D
:1043600080919805C8238091990590919A05209194
:10437000990530919A052F3F3F4F29F00196909370
:104380009A058093990520919405211115C0C111BA
:104390004BC0813A910558F010929D059093A0056D
:1043A00080939F0581E080939E05809394051092F1
:1043B0009A051092990538C0213099F4CC23A1F1C7
:1043C000E0919E052E0F20939E05F0E0EC56FA4FEB
:1043D0008F3F910519F010F08FEF90E0858782E014
:1043E000E4CF223009F047C0E0919E05813A910563
:1043F00010F4E73CA0F1E83C18F081E080939D05C3
:1044000080919F059091A0059093960680939506C4
:10441000E093940683E080939405E0919B05F091EE
:104420009C05309709F009958091A306882329F00F
:1044300081E0C11180E00E94E71AFF91EF91CF91D6
:10444000BF91AF919F918F917F916F915F914F91AC
:104450003F912F910F900FBE0F901F901895C11193
:10446000E3CF91E09E0F90939E05F0E0EC56FA4F5B
:10447000858781E09ACF2330B9F6C111D5CF97CF88
:10448000DF92EF92FF920F931F93CF93DF93EC0194
:10449000D62E8A017901F0E090E080E030E0E0E0A3
:1044A000DE01AE0FB11D2C91FF5F222339F0320FD8
:1044B0002E9F800D911D11241C92F0E03323B9F042
:1044C000DE1611F0F23098F0232F2695820F911D01
:1044D000632F70E00E94B738DE01A60FB11D3C9338
:1044E000D8013C9131110FC06C9390E080E0EF5FF8
:1044F000DE16B0F681E0DF91CF911F910F91FF9012
:10450000EF90DF900895D7013C91332369F380E069
:10451000F2CFCF93109274031092730388EE93E05E
:10452000A0E0B0E08093750390937603A0937703A7
:10453000B093780320EA31E0309372032093710343
:1045400025EC30E030937E0320937D0324EC30E0B3
:104550003093800320937F0320EC30E0309382037C
:104560002093810321EC30E0309384032093830374
:1045700022EC30E0309386032093850326EC30E074
:10458000309388032093870310928A0310928B0341
:1045900010928C0310928D0310921104109210044B
:1045A0008093120490931304A0931404B093150401
:1045B00082EB91E090930F0480930E041092A20678
:1045C0001092950581E08093980529E230E03093C0
:1045D000970520939605509810928F059BE0909335
:1045E000820580938D0510928505109286051092A4
:1045F00087051092880510929D0410929C048FE705
:104600009AE090932B0580932A0510922D05109225
:104610002C0510922F0510922E051092B60484ECF2
:1046200091E090939B0480939A0410929F041092BF
:104630009E041092B3041092AA041092AB0410923C
:10464000AC041092AD048FEF8093B4048093B8044F
:10465000ECEBF4E082ED94E0CFEFC1938E179F076F
:10466000E1F78BEF90E19093A3048093A20480EF95
:1046700091E19093A5048093A40480EE96E1909339
:10468000A7048093A6048CE397E19093A9048093F8
:10469000A80430E020E040E069E08EE994E00E9468
:1046A000FB101092F9041092F80489E89AE09093B4
:1046B000D3048093D2048AE194E09093D70480934A
:1046C000D60481E08093D8041092D9041092070593
:1046D00010922705109223058093280580932905C1
:1046E0008CEC91E09093D5048093D4048EE994E00F
:1046F0000E94AB121092F1041092F0041092F50493
:104700001092F4048FEF9FEF9093F3048093F204E0
:104710009093F7048093F604E091D404F091D504CB
:104720000280F381E02D8EE994E0099588EF9AE00C
:104730009093FB048093FA0410920A05C093C70477
:10474000C093C804C093C904CF910895CF93DF9359
:10475000CDB7DEB7C854D1090FB6F894DEBF0FBE8F
:10476000CDBF789484B5826084BD84B5816084BDFA
:1047700085B5826085BD85B5816085BD80916E00FF
:10478000816080936E001092810080918100826030
:10479000809381008091810081608093810080916D
:1047A00080008160809380008091B100846080935C
:1047B000B1008091B00081608093B00080917A0058
:1047C000846080937A0080917A00826080937A007E
:1047D00080917A00816080937A0080917A0080686D
:1047E00080937A001092C10061E087E00E949A0CE9
:1047F00061E087E00E946C0CE091A204F091A304B8
:1048000030E020E040E06AE08EE994E009958EE92E
:1048100094E00E94901E8EE994E00E94661E811131
:10482000FACF60E08EE994E00E947116E091A20454
:10483000F091A30430E020E040E06BE08EE994E0EA
:1048400009958AE592E190932B0580932A05809142
:10485000F8049091F9048856904009F495C0E8E670
:10486000F0E0F093F904E093F804E491E0930B0591
:10487000E9E6F0E0E491E0930C05EAE6F0E0E4918B
:10488000E0930D05EBE6F0E0E491E0930E05ECE635
:10489000F0E0E491E0930F05EDE6F0E0E491E093C1
:1048A0001005EEE6F0E0E491E0931105EFE6F0E0AC
:1048B000E491E0931205E0E7F0E0E491E093130562
:1048C000E1E7F0E0E491E0931405E2E7F0E0E49141
:1048D000E0931505E3E7F0E0E491E0931605E4E7E3
:1048E000F0E0E491E0931705E5E7F0E0E491E09370
:1048F0001805E6E7F0E0E491E0931905E7E7F0E05A
:10490000E491E0931A05E8E7F0E0E491E0931B05F9
:1049100061E188E690E00E94891590931D058093DF
:104920001C0563E188E690E00E94891590931F05BD
:1049300080931E0565E188E690E00E9489159093BA
:104940002105809320058091F8049091F904892B2A
:10495000D9F0809118058093240540911905409362
:10496000250590912305992379F0913009F0DDC256
:1049700090911A05891714F49093240580911B05D2
:10498000841714F4809325050E94080B10920A05E1
:104990000E94C50E11E01093F90288E680931B0374
:1049A0001092FA0210921C0360E08EE094E00E94E4
:1049B0004E100E94FD0E61E070E088E690E00E94DB
:1049C000871B8EE094E00E94F40F8F778093E402BF
:1049D0001093F9021092FA0210921C0360E08EE02C
:1049E00094E00E944E106091E4028EE094E00E94F8
:1049F0004E100E94FD0E0E94C50E60E375E08AEA2B
:104A00000E94CA1C882309F46CC162E375E08CEA39
:104A10000E94CA1C882309F464C164E375E08EEA2D
:104A20000E94CA1C882309F45CC160E475E080EB35
:104A30000E94A61C882309F454C162E475E082EB4D
:104A40000E94A61C882309F44CC164E475E084EB41
:104A50000E94A61C882309F444C166E375E086EB36
:104A60000E94CA1C882309F43CC168E375E088EB06
:104A70000E94CA1C882309F434C16AE375E08AEBFA
:104A80000E94CA1C882309F42CC16CE375E08CEBEE
:104A90000E94CA1C882309F424C16EE375E08EEBE2
:104AA0000E94CA1C882309F41CC1609134057091CE
:104AB0003505072E000C880B990B0E94F33520E07A
:104AC00030E040EA5BE30E9452362B013C016091EA
:104AD00040057091410590E080E00E94F1352FE69D
:104AE00032E143E053E30E9452366B017C01609156
:104AF000360570913705072E000C880B990B0E9424
:104B0000F33520E030E048EC57E30E9452364B0189
:104B10005C01609142057091430590E080E00E9445
:104B2000F1352DEC3CEC4CE454E30E94523660939A
:104B30004605709347058093480590934905609119
:104B400044057091450590E080E00E94F135609346
:104B50004A0570934B0580934C0590934D056091E9
:104B60003C0570913D05072E000C880B990B0E94A7
:104B7000F3352AE037ED43EA5DE30E945236609355
:104B80004E0570934F0580935005909351056091A9
:104B90003E0570913F05072E000C880B990B0E9473
:104BA000F33520E030E040E253E40E9400386093A7
:104BB0005205709353058093540590935505609169
:104BC000300570913105072E000C880B990B0E945F
:104BD000F33560935605709357058093580590936D
:104BE00059056091320570913305072E000C880B32
:104BF000990B0E94F33520E030E040EA5CE30E942C
:104C0000523660935A0570935B0580935C059093D0
:104C10005D056091380570913905072E000C880BF1
:104C2000990B0E94F33520E030E048E45AE30E94FB
:104C3000523660935E0570935F0580936005909394
:104C4000610520E030E040E057E4C701B6010E9472
:104C50005236609362057093630580936405909368
:104C60006505A7019601C301B2010E945236609307
:104C70006605709367058093680590936905A501A3
:104C80009401C701B6010E94523660936A05709381
:104C90006B0580936C0590936D058CEE91E5A7E113
:104CA000B0E480936E0590936F05A0937005B09368
:104CB000710580E394E3AEE7BFE3809372059093C0
:104CC0007305A0937405B093750580E097E5A4E99A
:104CD000B6E38093760590937705A0937805B0931B
:104CE000790588E08093950581E08093980583E2BB
:104CF00090E0909397058093960520981092A306D4
:104D00001092A20682E08093B0008093B10084E606
:104D10008093B3008093B4001092B2008091940508
:104D2000833011F41092940584E080937000CE01DA
:104D300001961C01DE01D8962596BFAFAEAF259730
:104D4000FE01F3962396FFAFEEAF23970E94C50EA8
:104D500081E08093F90288E680931B031092FA02A7
:104D600010921C0360E08EE094E00E944E100E94BE
:104D7000FD0E67E070E088E690E00E94871B8EE001
:104D800094E00E94F40F982F929597701AE08F701C
:104D9000919F800D11248093E4028EE094E00E94A4
:104DA000F40F982F92959F708F70919F800D112412
:104DB0008093E5028EE094E00E94F40F982F929584
:104DC00093708F70919F800D11248093E6028EE086
:104DD00094E00E94F40F982F92959F708F70919F8E
:104DE000800D11248093E7028EE094E00E94F40F7E
:104DF000982F92959F708F70919F800D11248093B2
:104E0000E8028EE094E00E94F40F982F92959F7034
:104E10008F70919F800D11248093E9028EE094E0C1
:104E20000E94F40F982F92959F708F70919F800D24
:104E3000112490E09093EB028093EA022091E30228
:104E4000222309F48DC0213009F446C380919405D2
:104E5000833009F014C780919D05882309F460C54B
:104E600080E48093930610926A061092690610926D
:104E70006E0610926D0610926C0610926B061092E0
:104E800071061092720610927306109274061092B8
:104E90009206109291068091930686FDC0C61091ED
:104EA0009406812F8F7B843009F0BCC58091A205C8
:104EB00060E073E290E00E94EA17882309F43FC69D
:104EC0008091A30590E044E150E0143009F043C51F
:104ED00060EC78E00E94C917882309F430C68091FD
:104EE000A40560E372E090E00E94EA17882309F4C9
:104EF00026C681E0809393068091990690919A0648
:104F000090936C0680936B0680919B0690919C0613
:104F100090936E0680936D06809197069091980607
:104F200090936A06809369067AC6309115052091A0
:104F30001705082E000C990B622F022E000C770B20
:104F4000630F711D37FD7A95861797071CF4320F92
:104F50003093240524170CF017CD2093250514CD8C
:104F60008091BF029091C0028130910509F44BC03D
:104F700080F1029709F4CCC087E080938105EAE9CB
:104F8000F4E1849180938305E6E8F4E184918093D1
:104F9000840580E89EE3A0E0B0E0809389059093CB
:104FA0008A05A0938B05B0938C050E941C0E882364
:104FB00069F08091820560917D0570E08B3009F485
:104FC000C9C120F08551823008F4B0C170E060E0C2
:104FD000C1C184EF89838EE28A83C1010E943410AB
:104FE000882351F20E942E0D6093BB027093BC0285
:104FF0008093BD029093BE0281E090E09093C00246
:105000008093BF02B9CF0E942E0D0091BB02109178
:10501000BC022091BD023091BE02601B710B820B5D
:10502000930B653071058105910508F4A5CF86EFD6
:10503000898362E0C1010E94601C882309F471C168
:10504000698170E090E080E00E94F33520E030E07C
:1050500040E853E40E9452366B017C016A8170E0A3
:1050600090E080E00E94F3359B01AC01C701B601DE
:105070000E94943720914A0530914B0540914C0590
:1050800050914D050E949337209146053091470578
:1050900040914805509149050E9452366B017C01B0
:1050A000209152053091530540915405509155057A
:1050B0000E9494379B01AC0160914E0570914F05A1
:1050C00080915005909151050E940038A7019601EA
:1050D0000E94943760930401709305018093060148
:1050E0009093070184EF89838A83C1010E94341061
:1050F000882309F416C10E942E0D6093BB027093A1
:10510000BC028093BD029093BE0282E090E076CF15
:105110000E942E0D0091BB021091BC022091BD0295
:105120003091BE02601B710B820B930B6A317105CB
:105130008105910508F420CF86EF898363E0C101E2
:105140000E94601C882309F4ECC020E030E048ECA9
:1051500051E46091040170910501809106019091E4
:1051600007010E9493376B017C01AC019B010E94F7
:1051700052364B015C01698170E090E080E00E9452
:10518000F33520E030E040E853E40E9452362B0132
:105190003C016A8170E090E080E00E94F3359B0161
:1051A000AC01C301B2010E9494372B013C016B8119
:1051B00070E090E080E00E94F33520E030E040E8CD
:1051C0005BE30E9452369B01AC01C301B2010E9415
:1051D000943729966CAF7DAF8EAF9FAF2997209102
:1051E0005E0530915F054091600550916105C501F4
:1051F000B4010E9452362B013C0120915A05309196
:105200005B0540915C0550915D05C701B6010E94A8
:1052100052369B01AC01C301B2010E949437209128
:1052200056053091570540915805509159050E94F7
:1052300094379B01AC0129966CAD7DAD8EAD9FADD1
:1052400029970E9493372B013C0120916A053091E8
:105250006B0540916C0550916D05C501B4010E942C
:1052600052364B015C0120916605309167054091F3
:10527000680550916905C701B6010E9452369B012D
:10528000AC01C501B4010E949437209162053091B0
:10529000630540916405509165050E9494379B0118
:1052A000AC01C301B2010E9400386B017C01AC016A
:1052B0009B010E94523620917605309177054091EE
:1052C0007805509179050E9452364B015C0120917E
:1052D0007205309173054091740550917505C701B1
:1052E000B6010E9452369B01AC01C501B4010E9477
:1052F000943720916E0530916F0540917005509163
:1053000071050E94943722E334E040E45FE30E9499
:1053100052366093000170930101809302019093D3
:1053200003011092C0021092BF0226CE20917D058B
:10533000822F8F7790E0982F882730917E05830FFA
:10534000911D6AE070E00E94CB3827FF03C0719581
:1053500061957109072E000C880B990B0E94F3359B
:105360006B017C018090000190900101A0900201EE
:10537000B090030187E080938105EAE9F4E184912C
:1053800080938305E6E8F4E184918093840580E8C6
:105390009EE3A0E0B0E08093890590938A05A093F6
:1053A0008B05B0938C050E941C0E882359F08091C8
:1053B000820560917B0570E08B30A1F018F085517B
:1053C000823018F070E060E00DC080917B0590E0C5
:1053D000982F882720917C05820F911D6AE070E04C
:1053E0000E94CB38072E000C880B990B0E94F335D6
:1053F0002B013C018EE994E00E94901E0CE210E02B
:1054000010922D0510922C05ACE0B0E0B0932F0562
:10541000A0932E0588E093E10E94BF1AA701960190
:10542000C701B6010E94A638882309F447C083E06B
:1054300093E10E94BF1A10922D0510922C05ECE109
:10544000F0E0F0932F05E0932E058DEE92E10E949F
:10545000BF1AA5019401C501B4010E94A6388111AB
:1054600035C040E0C501B4010E94751D82EE92E195
:105470000E94BF1A10922D0510922C0510932F0533
:1054800000932E0580EC92E10E94BF1AA3019201C5
:10549000C301B2010E94A63881111BC040E0C301C4
:1054A000B2010E94751D8EEB92E10E94BF1A8EE937
:1054B00094E00E94661E8111A3CFC8CC40E0C701D2
:1054C000B6010E94751D80E093E1B3CF85ED92E1B6
:1054D000CFCF8AEB92E1E9CF2091E202211190C077
:1054E0008053984F9F938F938091E9021F928F93DF
:1054F0008091E8021F928F9382E292E09F938F93B4
:105500003F922F920E941C398091E4021F928F9348
:105510008091E5021F928F938091E6021F928F93F4
:105520008DEE91E09F938F932396FFAD2397FF938A
:1055300022962FAD22972F930E941C398EE994E07A
:105540000E94901E0FB6F894DEBF0FBECDBF4EE096
:10555000E42EF12C5EE1C52ED12C10922D05109277
:105560002C05F0922F05E0922E0581E393E10E9435
:10557000BF1AE091E702E150E73080F5F0E0EE0F6E
:10558000FF1FE257FE4F80819181009711F00E942A
:10559000241D8EE293E10E94BF1AC1010E94241DC6
:1055A00010922D0510922C05D0922F05C0922E0539
:1055B00081E293E10E94BF1A80911C018E010D5C73
:1055C0001F4F882371F0CE01C3960E94241D8EE9DF
:1055D00094E00E94661E8111C0CF38CC8CEF91E020
:1055E000D6CFD8016D918D018AE994E00E941919F6
:1055F0002596EEADFFAD25970E171F0791F7E7CF64
:105600000E942E0D0091DA021091DB022091DC0243
:105610003091DD02601B710B820B930B613D774073
:105620008105910500F18091E0028823E1F08091ED
:10563000E1029091DF02882321F08130A1F4909162
:10564000DE02992309F45DC18F5F8093E10210921D
:10565000E0020E942E0D6093DA027093DB028093C9
:10566000DC029093DD028091E102813009F453C1A4
:1056700008F44AC1823009F0E9CB2091CE02309182
:10568000D0028091D2029091D302805D9740909396
:10569000EB028093EA023093E9022093E8028091C2
:1056A000C1029091C3022091C5022093E60290931B
:1056B000E5028093E4028091CD028093E70281E0CD
:1056C0008093F9021092FA0210921C0360E08EE0BF
:1056D00094E00E944E108091E4021AE0612F0E9433
:1056E000AB388295807F682F690F8EE094E00E942E
:1056F0004E108091E502612F0E94AB388295807F29
:10570000682F690F8EE094E00E944E108091E602AF
:10571000612F0E94AB388295807F682F690F8EE0E1
:1057200094E00E944E108091E702612F0E94AB38F6
:105730008295807F682F690F8EE094E00E944E1062
:105740008091E802612F0E94AB388295807F682F9C
:10575000690F8EE094E00E944E108091E902612F63
:105760000E94AB388295807F682F690F8EE094E0AD
:105770000E944E108091EA02612F0E94AB38829500
:10578000807F682F690F8EE094E00E944E100E9487
:10579000FD0E8EE994E00E94901EBAE0AB2EB12C73
:1057A00014E1C12ED12C0EE1802E02E0902E8FE765
:1057B000E82E8AE0F82E00E810E093E2692E712CC2
:1057C0002DEE422E21E0522EB0922D05A0922C05F6
:1057D000D0922F05C0922E058CE393E10E94BF1A50
:1057E0006091D2027091D3024091D0025091D102C7
:1057F0002091CE023091CF02E091E702E1508CEF90
:1058000091E0E73038F4F0E0EE0FFF1FE257FE4F73
:10581000808191817F936F935F934F933F932F93F9
:105820009F938F939F928F923F922F920E941C3949
:10583000F092A104E092A004C1010E940116980117
:10584000281B390BC9019695879590932D05809358
:105850002C0570922F0560922E05C1010E94241D17
:105860008091C2028F938091C1028F938091C40274
:105870008F938091C3028F938091C6028F93809102
:10588000C5028F935F924F9223963FAD23973F932C
:1058900022964FAD22974F930E941C39F092A1049B
:1058A000E092A004CE01C3960E940116D801A81B65
:1058B000B90BCD019695879590932D0580932C0576
:1058C000E2E3F0E0F0932F05E0932E05CE01C396BE
:1058D0000E94241D8EE994E00E94661E0FB6F89483
:1058E000DEBF0FBECDBF81116FCF68EB7BE080E0E4
:1058F00090E00E94FB0C1092E20281E08093E302B0
:10590000A5CA1092E002AFCE6EEF71E088E693E197
:105910000E94DA1E9BCA6FE072E08DE593E1F8CF3A
:10592000109293068091690690916A06909398066A
:105930008093970680916D0690916E0690939C06D9
:1059400080939B0680916B0690916C0690939A06CB
:105950008093990688CA60E871E10E94C91788237C
:1059600009F4EDC043E060E289E394E10E94EE1C9B
:105970008091710690917206409173065091740661
:10598000242F30E030936E0620936D069C012E3E4E
:1059900067E8360721F583E090E090936A068093EC
:1059A0006906852F90E090936C0680936B0680E2E9
:1059B00090E090939206809391068AE795E00E948A
:1059C000FB0A8091930680FF2AC129E030E03093E2
:1059D0006A062093690680628093930620C19095A1
:1059E000891310C090E090936C0680936B06852F0E
:1059F000809548130CC088E090E090936A068093ED
:105A00006906D5CF30936C0620936B06F0CF8AE001
:105A100090E090936A068093690640936D065093D8
:105A20006E06C5CF143609F08AC085E294E10E9463
:105A30004C18882309F483C043E060E185E294E1D7
:105A40000E94EE1CD09071060D2D10917206FBE0A5
:105A5000EF2EF12C023080E21807F9F0EEE0EE2E86
:105A6000F12C0A3A9AE51907C1F07DE0E72EF12CF6
:105A70000435A2E31A0789F06FE0E62EF12C03301B
:105A8000B1E01B0751F0A0E1EA2EF12C0332EBEC60
:105A90001E0719F05CE0E52EF12CD1268D2D8295A4
:105AA0008F70D82643E260E285E294E10E94EE1C0A
:105AB0008091710690917206A0917306B091740660
:105AC0009C0144E0369527954A95E1F730936C06A2
:105AD00020936B062A2F30E030936E0620936D06DC
