:020000040800F2
:1000000000280020392700088127000881270008E0
:1000100081270008812700088127000800000000D0
:100020000000000000000000000000008127000820
:10003000812700080000000081270008ED13000858
:1000400081270008812700088127000881270008F0
:100050008127000881270008FD130008011400080B
:1000600005140008091400080D1400088127000871
:1000700081270008812700088127000881270008C0
:1000800081270008812700088127000881270008B0
:100090008127000881270008812700081114000823
:1000A00081270008A513000881270008B91300085C
:1000B000BD130008D11300080000000081270008CC
:1000C00081270008000000000000000081270008D0
:1000D0000000000099140008B1140008000000009E
:1000E000371400088127000881270008000000005D
:1000F0000000000000000000000000000000000000
:0C01000000000000000000005FF808F1A3
:10011000002807DB01234109034A00F01F00834048
:1001200042F82130704700BF00E100E000280CDBFE
:1001300001220649430900F01F008240203341F8A4
:100140002320BFF34F8FBFF36F8F704700E100E0B4
:10015000154B30B5DC68C4F30224C4F10703251D38
:10016000042B28BF0423062D4FF0FF3594BF002435
:10017000033C05FA03F321EA0303A54022EA050242
:10018000A340002843EA0203ACBF00F16040074AE5
:100190004FEA0313DBB2ABBF00F5614000F00F0084
:1001A00080F80033135430BD00ED00E014ED00E0A2
:1001B0000268C168136910B523F440530B431361FF
:1001C00004698368D1682343446921F4B05123430F
:1001D00021F00C010B43D3605369816923F4407310
:1001E0000B43114953618A4201F5584149680F4B4D
:1001F0000F4C0CBFC1F3C221C1F30221615C1B682B
:10020000CB4019214B4341688900B3FBF1F36421D2
:10021000B3FBF1F001FB10331B013233B3FBF1F3FD
:1002200003EB0013936010BD003801400000002074
:10023000F8500008084B984207D0B0F1804F06D024
:10024000A3F59433984204D0FEE7002070470120C4
:1002500070470220704700BF002C0140614B82B004
:100260009A69013842F001029A619B6903F0010327
:100270000193019B23281AD8DFE800F0121B2229E2
:100280002E353A41191919464D565B626B747980C7
:100290008919191919198E95191919199A9FA6AD45
:1002A000514A536843F0E06343F00103536002B0E6
:1002B00070474D4A536823F0010343F0E063F5E7CC
:1002C000494A536843F0E06343F00203EEE7464ACD
:1002D000536823F00203F0E7434A536843F0E063B6
:1002E00043F00403E2E7404A536823F00403E4E7E1
:1002F0003D4A536843F0E06343F00803D6E73A4AC7
:10030000536823F00803D8E7374A536843F0E063A3
:1003100043F0C003CAE7344A536823F0C00343F0F4
:10032000E06343F04003C1E72F4A536823F0C00362
:10033000C3E72D4A536843F0E06343F44073B5E7E5
:10034000294A536823F4407343F0E06343F4007395
:10035000ACE7254A536823F4407343F0E06343F469
:100360008073A3E7204A536823F44073A5E71E4A2D
:10037000536843F0E06343F4406397E71A4A5368D5
:1003800023F4406343F0E06343F400638EE7164ACE
:10039000536823F4406390E7134A536843F0E063E3
:1003A00043F4004382E7104A536823F4004384E790
:1003B0000D4A536823F0E06378E70B4A536823F053
:1003C000E06343F0807371E7074A536823F0E0630A
:1003D00043F000736AE7044A536823F0E06343F094
:1003E000806363E70010024000000140431C02D11B
:1003F000002070470C310B685A1CF9D09842F9D193
:10040000486870470368164A84B093420BD1154B75
:100410009A6942F400629A619B6903F40063019354
:10042000019B04B07047B3F1804F0BD103F5043347
:10043000DA6942F00102DA61DB6903F00103029339
:10044000029BEEE7084A9342EBD1064BDA6942F091
:100450000202DA61DB6903F002030393039BE0E726
:10046000002C01400010024000040040431C0AD050
:10047000094B98420AD003F59433984208D0B0F162
:10048000804F07D0FEE76FF00D0070471D207047CA
:10049000192070471C20704700040040431C0AD0FC
:1004A000094B98420AD003F59433984208D0B0F132
:1004B000804F07D0FEE76FF00D0070471D2070479A
:1004C0001B2070471C2070470004004090F86520F6
:1004D000074B53F8223093F8410093F84230184309
:1004E00000F02200A0F1220358425841704700BF9B
:1004F00058020020B0F80831B0F80421981A00F032
:100500003F007047B0F80831B0F804219BB2934225
:100510001ABFD0F8FC30985C4FF0FF30704790F86D
:100520000631B0F80A01C0B2834227BFC3F13F03CE
:10053000C018C01A00F1FF30704707B503688DF886
:10054000071001225B680DF10701984703B05DF8C1
:1005500004FBD0F8EC3010B50133044624D1036815
:10056000DB68984794F81111F1B9012384F811312F
:10057000D4F8EC30013317D194F8F9200B4B53F831
:10058000223093F84020012A0ED02422186883F8E4
:100590004120C26822F00C0242F00402C260202214
:1005A00083F8401083F8412010BD00BF580200209E
:1005B00010B50446FFF7CDFFB4F80821B4F80431B4
:1005C00092B29A4217BFD4F8FC204FF0FF30D05CB3
:1005D00001331CBF03F03F03A4F8043110BD38B54C
:1005E0000446094DAB68C360236820465B699847A1
:1005F000002807DAE268AB689B1AA2689342F3D33B
:100600004FF0FF3038BD00BF58020020F8B5074654
:100610000D460C468E18B44201D1601BF8BD384619
:10062000FFF7DDFF431CF8D004F8010BF3E72DE9D9
:10063000F0410746884616461D4673B100243846E9
:10064000FFF7CDFF431C05D0404503D030550134A2
:10065000A542F4D12046BDE8F0811C46FAE738B542
:100660000D46044640B3154B036590F96400FFF74F
:100670005DFD94F86520124BB4F8761053F82230E3
:1006800089B293F84120202A11D1E26E52180ED07F
:10069000ADB265B11A620022DD845A64212283F86A
:1006A00041201A689D84D36843F08003D36094F995
:1006B0006400BDE838402BE538BD00BFC506000822
:1006C00058020020B0F87610826F10B50A4402F08C
:1006D0003F02A0F87620B0F87620B0F8721092B2FF
:1006E000914219D0B0F876404031A4B2B0F87620EB
:1006F000091B4C4292B204F03F0401F03F01C2F1E9
:10070000400258BF6142914228BF11468167FFF7FE
:10071000A6FF4FF0FF3010BD0020FCE74FF4005261
:10072000024B08B11A6170475A61704700100140CE
:1007300090F84230202B18D1002301220363C28598
:10074000436422238285026980F842308162036813
:100750001AB1DA6842F48072DA605A6942F0010232
:100760005A61DA6842F02002DA60704730B5044618
:1007700050F8043985B01D6815F0010510D000222D
:1007800000921A6800925B680093009BFFF79EFE40
:1007900030BB204604F1620105B0BDE83040C7E738
:1007A000196811F0020106D001951A6801925B6880
:1007B0000193019BEAE71A6812F0040206D0029145
:1007C0001A6802925B680293029BDFE719680907C7
:1007D000DCD503921A6803925B680393039BD5E709
:1007E00005B030BD0023406AC385C384BEE738B579
:1007F0000446E0B1FFF76AFEC8B9214694F86520C7
:100800000B4B11F8665F53F82200FFF791FFB4F825
:100810007430B4F87020013303F03F03934206D0E4
:10082000B4F87420A16E92B28D54A4F8743038BD1F
:1008300058020020836801460BB103221847704715
:1008400090F8423082B0222B3ED181680268B1F527
:10085000805F836A3AD1016900293AD15268C2F3B4
:10086000080223F8022B8362C38D013B9BB2C38530
:1008700053BB0268D16821F02001D160D16821F416
:100880008071D160516921F001015161202280F80D
:1008900042204363026B012A026824D1036302F100
:1008A0000C0353E8003F23F0100302F10C0040E872
:1008B00000310029F3D11368DB0605D501911368D7
:1008C000019353680193019B02B0704739B90169E4
:1008D00029B95268D2B21A70836A0133C3E75268E9
:1008E00002F07F02F7E7836C043802B01847036810
:1008F00037B51A68044612F00F0FD9685D6909D13F
:10090000950640F1CF808D0640F1CC8003B0BDE864
:10091000304095E705F0010001F49075054300F0C3
:10092000C180D50705D5CB0542BF636C43F00103F9
:100930006364550704D518B1636C43F00203636424
:10094000930704D518B1636C43F00403636415077F
:1009500007D501F0200303431EBF636C43F0080377
:100960006364636C002B00F09B80900604D58906BD
:1009700002D52046FFF764FF23685A69616C02F0D4
:10098000400201F0080152EA010500F0858003F100
:100990000C0252E8002F22F4907203F10C0040E8A0
:1009A00000210029F3D103F1140252E8002F22F0B4
:1009B000010203F1140040E800210029F3D1226B69
:1009C000012A0CD0202284F84220002222635A6996
:1009D000520611D4204603B0BDE83040C6E603F10C
:1009E0000C0252E8002F22F0100203F10C0040E844
:1009F00000210029F3D1E5E703F1140252E8002FAA
:100A000022F0400203F1140040E800210029F3D154
:100A1000E06B0028DED0964B436390F82130022B28
:100A200005D00423836303B0BDE83040DAE60368F1
:100A30001A6822F00E021A601A6822F001021A6087
:100A40008C4A93421BD0143293421AD014329342F0
:100A500019D01432934219D01432934219D014325F
:100A6000934214BF4FF080734FF48013824A536057
:100A7000012380F82130002380F82030D3E70123C0
:100A8000F4E71023F2E74FF48073EFE74FF480535D
:100A9000ECE74FF48033E9E72046FFF767FE656433
:100AA00003B030BD206B012840F0A380D50640F193
:100AB000A080C80640F19D80002201921A68019230
:100AC0005A680192019A5A6955065ED5E26B11681F
:100AD000496889B20029E3D0A08D8842E0D9E18538
:100AE000916920293BD003F10C0151E8001F21F44A
:100AF000807103F10C0545E800100028F3D103F1E3
:100B0000140151E8001F21F0010103F1140545E82B
:100B100000100028F3D103F1140151E8001F21F067
:100B2000400103F1140545E800100028F3D120210D
:100B300084F84210206303F10C0151E8001F21F0FA
:100B4000100103F10C0545E800100028F3D192F8DC
:100B50002130022B07D00423936382F82000022364
:100B60006363E38D9CE71368D56B196821F00E0170
:100B70001960196821F0010119600121136C01FA53
:100B800003F36B6082F82110E7E7E28DE18D92B20A
:100B900089B2002984D0A18D914281D003F10C0249
:100BA00052E8002F22F4907203F10C0040E800217B
:100BB0000029F3D103F1140252E8002F22F00102C0
:100BC00003F1140040E800210029F3D1202284F829
:100BD0004220216303F10C0252E8002F22F01002A0
:100BE00003F10C0040E800210029F3D102236363E4
:100BF00056E7100628D50D0626D594F84120212A5F
:100C00007FF44EAFA168226AB1F5805F17D12169E8
:100C1000A9B932F8021BC1F3080159602262E28CC3
:100C2000013A92B2E284002A7FF43AAFDA6822F005
:100C30008002DA60DA6842F04002DA6030E7511C84
:100C4000216212785A60EAE750067FF529AF4A061A
:100C50007FF526AFDA68201F22F04002DA602023F9
:100C600084F84130E36C03B0BDE83040184700BF62
:100C7000E50700080800024000000240826810B545
:100C80000AB904F027FAC368BDE8104018470B4BB7
:100C90005A69024211D058610023012803F1010270
:100CA00008D114220648DBB202FB0300C3680430FB
:100CB0001BB1E3E713464008EFE77047000401402B
:100CC00064020020037F013B072B14D8DFE803F008
:100CD0000411130D1313130F012350F8040C0633E2
:100CE00000EB0310836833B1C8E70323F5E704235F
:100CF000F3E70223F1E77047036870B5DD681E690A
:100D00000446B2070BD5A90709D56FF002021A6194
:100D1000012202779B69FFF7D5FF00232377720733
:100D20000DD56B070BD56FF00402236820461A61BE
:100D3000022222779B69FFF7C5FF00232377300744
:100D40000DD529070BD56FF00802236820461A61DC
:100D500004222277DB69FFF7B5FF00232377F20631
:100D60000DD5EB060BD56FF01002236820461A61F3
:100D700008222277DB69FFF7A5FF00232377F0071E
:100D80000CD5E9070AD56FF00102236854F8040C6A
:100D90001A61836E13B16030FFF770FF320605D51C
:100DA0002B0642BF6FF0800223681A61700605D5DA
:100DB000690642BF6FF0400223681A61B20605D58A
:100DC000AB0642BF6FF0200223681A6170BD91FA32
:100DD000A1F3B3FA83F370B50D0E0F2691FAA1F1CA
:100DE000B1FA81F144599B0006FA03F3890024EA21
:100DF00003048A402243425170BD91FAA1F3B3FA31
:100E000083F370B50D0E042691FAA1F1B1FA81F1C8
:100E100044599B0006FA03F3890024EA03048A403C
:100E20002243425170BD2DE9F041431C06460F4656
:100E300086B000D1FEE7754B00F00F0203EB820392
:100E40009C68C0F30313032B4FD8DFE803F0022A9A
:100E500036426F4B6F4D9A6942F004029A619B696A
:100E600003F004030493049B07F00708B8F1010F93
:100E70003DD1230EE85894FAA4F3B3FA83F3032286
:100E80009B0002FA03F320EA030094FAA4F3B3FAF6
:100E900083F39B009A4005EB146102430A60012230
:100EA0003AE05B4B5C4D9A6942F008029A619B699B
:100EB00003F008030393039BD6E7554B574D9A69FC
:100EC00042F010029A619B6903F010030293029BA7
:100ED000CAE74F4B524D9A6942F020029A619B69D2
:100EE00003F020030193019BBEE70025BCE7C7F395
:100EF0000620B8F1030F0BD801A353F828F000BF68
:100F0000130F00089F0E0008770F0008830F0008DA
:100F1000FEE7FFF7A3F908222146284608F1FF382B
:100F2000FFF755FFB8F1010F06D817F0080218BFF8
:100F300004222146FFF761FF94FAA4F2230EB2FACD
:100F400082F2E9580F239200934094FAA4F2B2FA85
:100F500082F2C7F301170B409200012F23FA02F32C
:100F600011D0022F3AD0082B20D104222146284646
:100F7000FFF72DFF1AE07F2801D0FFF76FF9092254
:100F8000CAE70022C8E7042B04D1082221462846DC
:100F9000FFF71DFF230A93FAA3F3B3FA83F20123A9
:100FA000E968934021EA14210B43EB60184B9A69DE
:100FB00042F001029A619B6903F001030593059BCE
:100FC000A6F10D03012B14D8164A536823F0E063F1
:100FD00043F08063536006B0BDE8F081042B04D178
:100FE000082221462846FFF7F2FEEB6823EA142385
:100FF000DBE70F2E02D0133E012EECD8094A5368CE
:1010000023F0E06343F00073E4E700BFF85000080A
:101010000010024000080140000C01400010014097
:101020000014014000000140431C05D17047984264
:1010300001D18968F7E60C310B685A1CF7D1FEE73D
:101040002DE9F04F87B099460446CDE900120028FB
:1010500000F0BF80D0F854A07E495046FFF7C6F993
:10106000A26D7D49054610460392FFF7BFF9E36D77
:101070007A49804618460293FFF7B8F9D4F860B071
:10108000064677495846FFF7B1F90746002D00F0AC
:10109000A080039A029B013203D0B8F1000F00F048
:1010A0009880013302D0002E00F09380BBF1FF3F07
:1010B00002D0002F00F08D80454500F0C380B8F1CC
:1010C000000F00F0BF803546AF4200F08680002D53
:1010D00000F08380002F7AD12560624B9D4240F062
:1010E000818003F55843DA6842F48042DA60DA68B6
:1010F00022F48042DA609A6942F480429A619B69E4
:10110000002203F480430593059B25235046514953
:1011100084F8652084F86430FFF786FFB8F1000F8B
:1011200003D04D49A06DFFF77FFF2EB14B49E06D15
:10113000FFF77AFF4FF480762FB14949206E46F4CD
:101140000076FFF771FF94F86520474B271D43F8A1
:101150002270009B0022A360019B0121E360109B91
:1011600094F96400C4E904390C236560C4E90636C7
:101170002262FEF7EDFF94F84530B8F1000F4AD136
:101180000BB984F84480242384F84530EB68384652
:1011900023F40053EB60FFF70BF82B6923F4904323
:1011A0002B616B6923F022036B616B6943F00803C9
:1011B0006B61EB68202243F40053EB6000230120B5
:1011C000A36484F8452084F84620A36302E000234A
:1011D0002360002007B0BDE8F08F2760002FF8D013
:1011E0003D467AE7214B9D42F3D103F5E6331A6978
:1011F00042F400321A611A6922F400321A61DA6983
:1012000042F40032DA61DB69012203F40033049313
:10121000049B26237AE703F0FF020BB984F84420ED
:10122000242384F84530EB68384623F40053EB6000
:10123000FEF7BEFF2B6923F490432B616B6923F00B
:101240002A03B5E7AE423FF43FAF002E18BF00259A
:101250003AE700BF4051000870510008A051000853
:10126000C4510008003801405802002000440040EA
:10127000037C43B1044BB0F806219B68B0F80A31F7
:101280009BB29A42FAD17047580200202DE9F843E8
:10129000036804469B680F469046984701232374D1
:1012A000D4F8EC30B4F8066101338146C6F140064B
:1012B0001DD194F81131D3B1002294F8F910384BB4
:1012C00084F8112153F8213093F8401001290ED0F1
:1012D0002421186883F84110C16821F00C0141F005
:1012E0000801C160202183F8402083F84110236861
:1012F00020469B6898470028F9D04546B5422DD82E
:101300004D452BD8B4F80661D4F800017319402B71
:10131000304438D82A46394602F01FF82E46B4F831
:10132000063194F8F9201D441D4B05F03F0553F894
:101330002220A4F8065192F8413092F8422013433B
:1013400003F02103212B06D03146C4F80C6104F1CF
:101350009400FFF784F94046BDE8F8834E4528BF66
:101360004E462368324639465B68204698472368D4
:1013700020469B689847AD1B3744B4F80661814608
:10138000C6F14006BAE7C6F140063246394601F0DA
:10139000E4FFD4F80001AA1BB91901F0DEFFBEE793
:1013A00058020020034BD3F84C0108B10430A3E4E9
:1013B000704700BF58020020FFF7F4BF034BD3F87B
:1013C000500108B1043097E4704700BF5802002074
:1013D000034BD3F8540108B104308DE4704700BFCB
:1013E0005802002002F086BE02F084BE024A9368D2
:1013F00001339360704700BF58020020012046E48B
:10140000022044E4042042E4082040E410203EE4AA
:1014100008B52020FFF73BFC4020FFF738FC802078
:10142000FFF735FC4FF48070FFF731FCBDE8084052
:101430004FF400702BE438B506244FF48065A8B251
:10144000FFF725FC013C4FEA4505F8D138BD0F4BAD
:101450001A6842F001021A6059680D4A0A405A603F
:101460001A6822F0847222F480321A601A6822F418
:1014700080221A605A6822F4FE025A604FF41F025A
:101480009A604FF00062034B9A6070470010024070
:101490000000FFF800ED00E02022034BC3F8842198
:1014A000024B1868FFF723BA00E100E05802002061
:1014B0004022044BC3F88421034B586808B1FFF75E
:1014C00016BA704700E100E05802002003460A49BE
:1014D00010B588680344EFF30882934205D90C22C3
:1014E0004FF0FF30054B1A6010BD054A054C121B2A
:1014F0009342F4D28B60F7E7000000203006002012
:1015000000280020000400004FF0FF3070474FF427
:10151000005300204B607047012070470020704747
:1015200000207047FEE71622024B4FF0FF301A6092
:10153000704700BF30060020012070472DE9F743B7
:101540000E46174600287AD0441E012C00F2A080D7
:10155000514D524C95F87130D4F80880012B35D894
:1015600095F8713054F8233093F8612054F8221024
:1015700091F8412091F84200024302F02102212A11
:1015800061D093F84120202A59D1002E57D0BAB209
:10159000002A54D0002521215D6483F84110A06801
:1015A0009A84DA849A68B2F5805F03D11A690AB91D
:1015B000354616461968DA8C92B2002A50D10A686C
:1015C00052065ED5202283F8412038E009203449B4
:1015D000FEF70CFF98B30023D4F8009085F8713023
:1015E000B9F1000F07D009202D49FEF7FFFED9F809
:1015F00000308342B4D00123D4F8049085F87130D0
:10160000B9F1000F07D009202549FEF7EFFED9F800
:1016100000308342A4D002230920214985F871308B
:10162000FEF7E4FE58B109232B6600234FF4165150
:101630001A461C480093FFF703FD002890D1384656
:1016400003B0BDE8F083A268A2EB0802B2F57A7F8E
:101650008ED3F4E7A268121AB2F57A7FB2D8CA68BC
:101660000A681206F6D54EB935F8022BC2F3080205
:101670004A60DA8C013A92B2DA849CE716F8012BC0
:10168000F6E7A268121AB2F57A7F9BD8CA6896E785
:1016900003685B689847D2E70000002058020020EA
:1016A000405100080C000020034613F8012B002ACB
:1016B000FBD1181A0138704781F0004102E000BFE9
:1016C00083F0004330B54FEA41044FEA430594EA02
:1016D000050F08BF90EA020F1FBF54EA000C55EA3D
:1016E000020C7FEA645C7FEA655C00F0E2804FEA0E
:1016F0005454D4EB5555B8BF6D420CDD2C4480EAF0
:10170000020281EA030382EA000083EA010180EA1F
:10171000020281EA0303362D88BF30BD11F0004F6D
:101720004FEA01314FF4801C4CEA113102D04042A3
:1017300061EB410113F0004F4FEA03334CEA1333DE
:1017400002D0524263EB430394EA050F00F0A780F6
:10175000A4F10104D5F1200E0DDB02FA0EFC22FAF1
:1017600005F2801841F1000103FA0EF2801843FAE5
:1017700005F359410EE0A5F120050EF1200E012AD6
:1017800003FA0EFC28BF4CF0020C43FA05F3C01814
:1017900051EBE37101F0004507D54FF0000EDCF18D
:1017A000000C7EEB00006EEB0101B1F5801F1BD336
:1017B000B1F5001F0CD349085FEA30004FEA3C0C3A
:1017C00004F101044FEA445212F5800F80F09A8030
:1017D000BCF1004F08BF5FEA500C50F1000041EB34
:1017E000045141EA050130BD5FEA4C0C404141EB38
:1017F0000101013C28BFB1F5801FE9D291F0000F33
:1018000004BF01460020B1FA81F308BF2033A3F1E1
:101810000B03B3F120020CDA0C3208DD02F1140CD8
:10182000C2F10C0201FA0CF021FA02F10CE002F113
:101830001402D8BFC2F1200C01FA02F120FA0CFC0C
:10184000DCBF41EA0C019040E41AA2BF01EB045155
:10185000294330BD6FEA04041F3C1CDA0C340EDC53
:1018600004F11404C4F1200220FA04F001FA02F396
:1018700040EA030021FA04F345EA030130BDC4F154
:101880000C04C4F1200220FA02F001FA04F340EA49
:101890000300294630BD21FA04F0294630BD94F0FA
:1018A000000F83F4801306BF81F480110134013DE1
:1018B0004EE77FEA645C18BF7FEA655C29D094EA52
:1018C000050F08BF90EA020F05D054EA000C04BFD0
:1018D0001946104630BD91EA030F1EBF00210020BB
:1018E00030BD5FEA545C05D14000494128BF41F05A
:1018F000004130BD14F580043CBF01F5801130BDBE
:1019000001F0004545F0FE4141F470014FF0000048
:1019100030BD7FEA645C1ABF194610467FEA655CF9
:101920001CBF0B46024650EA013406BF52EA03359B
:1019300091EA030F41F4002130BD00BF90F0000F89
:1019400004BF0021704730B54FF4806404F13204C5
:101950004FF000054FF0000150E700BF90F0000F7E
:1019600004BF0021704730B54FF4806404F13204A5
:1019700010F0004548BF40424FF000013EE700BF75
:1019800042004FEAE2014FEA31014FEA02701FBF05
:1019900012F07F4393F07F4F81F06051704732F037
:1019A0007F4208BF704793F07F4F04BF41F400218E
:1019B000704730B54FF4607401F0004521F00041EC
:1019C0001CE700BF50EA010208BF704730B54FF076
:1019D00000050AE050EA010208BF704730B511F077
:1019E000004502D5404261EB41014FF4806404F1AF
:1019F00032045FEA915C3FF4D8AE4FF003025FEA35
:101A0000DC0C18BF03325FEADC0C18BF033202EBB8
:101A1000DC02C2F1200300FA03FC20FA02F001FA12
:101A200003FE40EA0E0021FA02F11444BDE600BFB5
:101A300070B54FF0FF0C4CF4E06C1CEA11541DBF64
:101A40001CEA135594EA0C0F95EA0C0F00F0DEF82F
:101A50002C4481EA030621EA4C5123EA4C5350EA14
:101A6000013518BF52EA033541F4801143F4801365
:101A700038D0A0FB02CE4FF00005E1FB02E506F0F6
:101A80000042E0FB03E54FF00006E1FB03569CF04B
:101A9000000F18BF4EF0010EA4F1FF04B6F5007F51
:101AA00064F5407404D25FEA4E0E6D4146EB0606C3
:101AB00042EAC62141EA55514FEAC52040EA5E504C
:101AC0004FEACE2EB4F1FD0C88BFBCF5E06F1ED8F6
:101AD000BEF1004F08BF5FEA500E50F1000041EB2D
:101AE000045170BD06F0004646EA010140EA0200DA
:101AF00081EA0301B4EB5C04C2BFD4EB0C0541EAFC
:101B0000045170BD41F480114FF0000E013C00F310
:101B1000AB8014F1360FDEBF002001F0004170BD34
:101B2000C4F10004203C35DA0C341BDC04F114044D
:101B3000C4F1200500FA05F320FA04F001FA05F2D9
:101B400040EA020001F0004221F0004110EBD370A6
:101B500021FA04F642EB06015EEA430E08BF20EAD2
:101B6000D37070BDC4F10C04C4F1200500FA04F375
:101B700020FA05F001FA04F240EA020001F0004107
:101B800010EBD37041F100015EEA430E08BF20EA7A
:101B9000D37070BDC4F1200500FA05F24EEA020EC2
:101BA00020FA04F301FA05F243EA020321FA04F0F1
:101BB00001F0004121FA04F220EA020000EBD370A8
:101BC0005EEA430E08BF20EAD37070BD94F0000FA8
:101BD0000FD101F00046400041EB010111F4801FDC
:101BE00008BF013CF7D041EA060195F0000F18BF8D
:101BF000704703F00046520043EB030313F4801FC9
:101C000008BF013DF7D043EA0603704794EA0C0F82
:101C10000CEA135518BF95EA0C0F0CD050EA410698
:101C200018BF52EA4306D1D181EA030101F0004115
:101C30004FF0000070BD50EA410606BF104619463D
:101C400052EA430619D094EA0C0F02D150EA013649
:101C500013D195EA0C0F05D152EA03361CBF10468A
:101C600019460AD181EA030101F0004141F0FE4129
:101C700041F470014FF0000070BD41F0FE4141F4AD
:101C8000780170BD70B54FF0FF0C4CF4E06C1CEAAD
:101C900011541DBF1CEA135594EA0C0F95EA0C0F62
:101CA00000F0A7F8A4EB050481EA030E52EA03351D
:101CB0004FEA013100F088804FEA03334FF080553E
:101CC00045EA131343EA12634FEA022245EA11156B
:101CD00045EA10654FEA00260EF000419D4208BF1C
:101CE000964244F1FD0404F5407402D25B084FEAC9
:101CF0003202B61A65EB03055B084FEA32024FF475
:101D000080104FF4002CB6EB020E75EB030E22BFD1
:101D1000B61A754640EA0C005B084FEA3202B6EB91
:101D2000020E75EB030E22BFB61A754640EA5C0040
:101D30005B084FEA3202B6EB020E75EB030E22BFD0
:101D4000B61A754640EA9C005B084FEA3202B6EBD1
:101D5000020E75EB030E22BFB61A754640EADC0090
:101D600055EA060E18D04FEA051545EA16754FEAF2
:101D700006164FEAC30343EA52734FEAC2025FEA10
:101D80001C1CC0D111F4801F0BD141EA00014FF09F
:101D900000004FF0004CB6E711F4801F04BF014370
:101DA0000020B4F1FD0C88BFBCF5E06F3FF6AFAE8C
:101DB000B5EB030C04BFB6EB020C5FEA500C50F11C
:101DC000000041EB045170BD0EF0004E4EEA11319F
:101DD00014EB5C04C2BFD4EB0C0541EA045170BDA6
:101DE00041F480114FF0000E013C90E645EA060EEA
:101DF0008DE60CEA135594EA0C0F08BF95EA0C0F18
:101E00003FF43BAF94EA0C0F0AD150EA01347FF45F
:101E100034AF95EA0C0F7FF425AF104619462CE736
:101E200095EA0C0F06D152EA03353FF4FDAE104699
:101E3000194622E750EA410618BF52EA43067FF4EA
:101E4000C5AE50EA41047FF40DAF52EA43057FF47A
:101E5000EBAE12E74FF0FF3C06E000BF4FF0010C85
:101E600002E000BF4FF0010C4DF804CD4FEA410CE9
:101E70007FEA6C5C4FEA430C18BF7FEA6C5C1BD0B6
:101E800001B050EA410C0CBF52EA430C91EA030F37
:101E900002BF90EA020F0020704710F1000F91EA94
:101EA000030F58BF994208BF90422CBFD8176FEA62
:101EB000E37040F0010070474FEA410C7FEA6C5C30
:101EC00002D150EA013C07D14FEA430C7FEA6C5C37
:101ED000D6D152EA033CD3D05DF8040B704700BF63
:101EE0008446104662468C461946634600E000BFB1
:101EF00001B5FFF7B7FF002848BF10F1000F01BD83
:101F00004DF808EDFFF7F4FF0CBF012000205DF84D
:101F100008FB00BF4DF808EDFFF7EAFF34BF0120D2
:101F200000205DF808FB00BF4DF808EDFFF7E0FF6B
:101F300094BF012000205DF808FB00BF4DF808EDBC
:101F4000FFF7CEFF94BF012000205DF808FB00BF23
:101F50004DF808EDFFF7C4FF34BF012000205DF805
:101F600008FB00BF4FEA410C7FEA6C5C02D150EAEB
:101F7000013C0AD14FEA430C7FEA6C5C02D152EA81
:101F8000033C02D14FF0000070474FF00100704752
:101F90004FEA410212F5001215D211D56FF4787391
:101FA000B3EB625212D94FEAC12343F0004343EA34
:101FB000505311F0004F23FA02F018BF404270470F
:101FC0004FF00000704750EA013005D111F0004099
:101FD00008BF6FF0004070474FF00000704700BF2F
:101FE00010B5054C237833B9044B13B10448AFF353
:101FF00000800123237010BDD804002000000000E1
:10200000DC50000808B5034B1BB103490348AFF38C
:10201000008008BD00000000DC040020DC50000847
:102020000023C0E90033C0E9023370474FF47A72ED
:1020300010B50F4C01462368B3FBF2F3013BB3F13B
:10204000807F13D24FF0E020F0224361094B0F292B
:1020500083F823204FF000024FF0070382610361F1
:1020600004D84FF0FF30FEF773F8616010BD00BF79
:102070000000002000ED00E0934B30B5DA68934992
:1020800022F4E0621204120C914C0A4385B0DA602B
:10209000E269002042F08052E261E26902F080527F
:1020A0000392039AA26942F00102A261A26902F0BE
:1020B00001020292029A626942F040026261626920
:1020C00002F040020192019AD3F8FC20D2015EBFD7
:1020D000D3F8FC2042F08072C3F8FC207D4B58609E
:1020E0001A6842F001021A6000BF00BF00BF7A4ABE
:1020F0005B68136843F010031360734AD36823F4DA
:10210000E0631B041B0C0B43D360FFF78FFF636876
:1021100003F00C03042B07D0636803F00C03082BB7
:1021200036D16368DB0333D52368636803F00C039F
:10213000082B45D00022694B1A66694A91682368CA
:10214000980133D40121636823F40033636063682A
:1021500023F4741343F4E8136360604B19669168C9
:1021600023689B0127D55C4A136813F0060F30D013
:10217000636843F4E0636360636843F460536360DF
:10218000636823F0F0036360236898012DD4FEE7B1
:102190002368534A43F480332360916823689D0386
:1021A000C3D493685B1A642BF8D9FEE793685B1A73
:1021B000022BC4D9F9E793685B1A022BD0D9F4E754
:1021C0006368DD03F1D503F47013B3F5E01FCAD0E3
:1021D000EBE7136823F0070343F00203136013686F
:1021E00003F00703022BD2D1C2E741F288306368C3
:1021F0003B4A23F0030343F0020363609168636882
:1022000003F00C03082B38D1334A136803F007039B
:10221000022B37D86368334A23F4E06343F48063C6
:102220006360636823F460536360616801F00C03CA
:10223000082B34D02C4B61682C4DC1F303110A4498
:1022400092F802216868D3402B60FFF7EFFE6368C5
:1022500023F4404343F400436360636823F4800342
:10226000636095F88D3003F0FF020BB985F88C2080
:10227000012385F88D3005B030BD93685B1A834229
:10228000BDD984E7136823F0070343F0020313600A
:10229000136803F00703022B7FF479AFBAE7C1F3A9
:1022A00083431344C90393F8F0300AD561680E489C
:1022B000C1F340414343114491F80011B3FBF1F3E2
:1022C000B9E70B494B43B6E700ED00E00003FA0520
:1022D00000100240001000E00020024000004242D6
:1022E00058020020F850000800127A000000002078
:1022F00000093D00BA4D83B5AFF30080D5F86031D9
:10230000980410D5B74B03E0B8F12D0F79D00C33FA
:10231000D3F80080B8F1FF3FF6D1D5F8603123F44F
:102320000053C5F8603101212D20FEF77CFD062306
:1023300085F87A3200234FF4E1311A46AA48009317
:10234000C5F87C12FEF77CFE85F87802D8B1A64C61
:10235000A4F19400FEF7FDF82046FEF7B7F890B917
:10236000A24B95F96002C5F84832FDF7DFFE95F8FB
:10237000613204F1660155F82300FEF7D9F995F9A9
:102380006002FDF7C5FE102299499A48FEF77EFFCC
:10239000022299499748FEF779FF984C0020FEF7F2
:1023A000BDF9AA68AB689B1AB3F57A7FFAD301200E
:1023B000FEF7B4F9AA68AB689B1AB3F57A7FFAD333
:1023C000002CEBD08B48FEF795F80028E6D0AFF351
:1023D0000080E3E7B2F1804F06D102F50432D36901
:1023E00023F00103D361E9E0854B9A4240F0E68097
:1023F000844AD36923F00203F4E7204601F07AFE11
:102400008BE740467749FDF7F1FFFDF713FF05EB3A
:102410008003D3F84C710646002F40F0BE80B020F8
:1024200001F060FE6F4904464046FDF7DFFF04F10E
:1024300060080146434604F1B009C3E90077C3E9E7
:10244000027710339945F8D10846FDF7F3FE04F101
:102450000C0305EB8000C0F84C310E23C4E90C7767
:10246000C4E90E77C4E91077C4E9163784F82C70F4
:10247000A76484F84C7084F84D7004F11007384656
:102480002161E460FDF7BEFFD8F8083033B10322C4
:102490004146404698470023C8E9023308F1100836
:1024A000C145F1D100234FF6FF72C4E90033C4E9FE
:1024B0000632C4E90833A36063618023A36294F801
:1024C0004D3003F0FF020BBB384684F84C20FDF77B
:1024D00099FF2069FDF7CAFFD4E916120746FDF7F8
:1024E00037FE3846FDF714FE22691046FDF7D6FF89
:1024F00007461046FDF7BAFF874207D0D4E9161207
:102500003846FDF725FE3846FDF702FE0223226914
:102510003D4984F84D308A42136806D0B2F1804FAD
:1025200003D0A1F594318A4207D1A16923F0700349
:102530000B43216A23F440730B43A16A23F0800309
:102540000B431360E36905EB8606D3626369D6F833
:102550004C7193622C4B9A4204BF636A136301234C
:1025600053611169C90742BF116921F0010111616D
:1025700084F8563084F84E3084F84F3084F8503068
:1025800084F8513084F8523084F8533084F8543051
:1025900084F8553084F84D303C603C68002C3FF4A2
:1025A000BCAE22691046FDF745FE174B9A427FF4F8
:1025B00011AF144A936923F400639361002305EB80
:1025C0008000C0F84C31E36004F1B00604F160070C
:1025D000BE423FF412AF103E3046FEF72BF9F7E74C
:1025E000580200200C52000854040020EF07000895
:1025F000D2560008C0030020E35600080000000087
:102600000004004000100240002C014000234FF461
:102610007A714FF0FF303F4A10B5C2E95B31C2E931
:1026200096003D4902F5BE70C2F8640202F5DE7004
:102630000924C2E99A03A2F87032C2F86811A2F81C
:1026400072320A21062302F11000C2E99441137389
:10265000FFF7E6FC072302F1240082F82030FFF7A1
:10266000DFFC082302F1380082F83430FFF7D8FC91
:1026700002F14C0082F84840FFF7D2FC82F85C106F
:10268000172102F16000FFF7CBFC02F1740082F821
:102690007010FFF7C5FC02F1880082F88410FFF784
:1026A000BFFC02F19C0082F89810FFF7B9FC02F120
:1026B000B00082F8AC10FFF7B3FC82F8C0102821FC
:1026C00002F1C400FFF7ACFC02F1D80082F8D4108C
:1026D000FFF7A6FC02F1EC0082F8E810FFF7A0FC7F
:1026E00002F5807082F8FC10FFF79AFC02F58A7000
:1026F00082F81011FFF794FC02F5947082F824110F
:10270000FFF78EFC82F8381102F59E70BDE810408C
:1027100086E400BF58020020E853000838B5054C95
:10272000A4F5A075143C201DFEF784F8AC42F9D145
:1027300038BD00BFA4030020FEF789FE0B480C49FA
:102740000C4A002302E0D458C4500433C4188C420D
:10275000F9D3094A094C002301E013600432A24274
:10276000FBD300F0C5FDFFF7C5FD7047000000205A
:10277000580200200458000858020020400600209B
:10278000FEE7002B2DE9F0471D46BBBF03F10043D8
:102790001D4600232D2388B01446B8BF1446129A54
:1027A000109E1370149BDDF84CA023F02008B8F1A4
:1027B000460F05D0B8F1450F00D10136022300E0E5
:1027C000032307AA049206AACDE902A2CDE90036A6
:1027D00022462B4600F058FEB8F1470F074619D1A4
:1027E000119BDB070ED500EB0609002200232046D3
:1027F0002946FFF785FB08B1CDF81C903022079BD6
:102800004B451ED33846079B159ADB1B136008B057
:10281000BDE8F087B8F1460F00EB0609E5D1037873
:10282000302B0AD10022002320462946FFF768FBFF
:1028300018B9C6F10106CAF80060DAF80030994408
:10284000D3E7591C07911A70D9E7F7B50029B6BF2D
:102850002D232B23494209290270437029DD0DF1F4
:10286000070425460A27B1FBF7F6224607FB161395
:10287000303302F8013C0B46632B314604F1FF3440
:10288000F1DC3031931E04F8011C1C46411CAB42A4
:102890000AD30DF109039B1AA54238BF0023821CFD
:1028A0001344181A03B0F0BD13F8016B01F8016F5F
:1028B000EDE7302330318370C170031DF1E7000074
:1028C0002DE9F04F91B00C46DDF8688016461F46A2
:1028D000054600F0C3FC036818460A93FEF7E4FEC1
:1028E00000230E93D8F8003094F818A0073323F093
:1028F0000703F3E80212D4F800B0CDE90812C8F8D3
:10290000003013460A46C4E91223DDE9088323F0A8
:1029100000490B904FF0FF32404649469B4BFFF772
:1029200021FB70BB4FF0FF3240464946974BFFF703
:10293000FBFA30BBDDE9080100220023FFF7EAFAC9
:1029400010B12D2384F84330914A924BBAF1470FCE
:102950008CBF9046984603234FF0000923612BF06B
:102960000403236033462146284600970FAA00F04F
:10297000D3F9013040F08F804FF0FF3011B0BDE847
:10298000F08FDDE9082310461946FFF7EBFA40B156
:10299000099B814A002BBCBF2D2384F843307F4B19
:1029A000D4E763680AF0DF095A1C3ED1062363604E
:1029B00000224BF48063236006920EAACDE904A2A4
:1029C0000DAA03920DF13302CDE901326368284666
:1029D0000093DDE90823FFF7D4FEB9F1470F8046E5
:1029E0000D9929D1C81C02DB63688B4241DAAAF138
:1029F000020A5FFA8AFA5246013904F150000D9139
:102A0000FFF723FF0E9A81461318012A236102DC87
:102A10002268D20701D5013323619DF83330002BA2
:102A2000A0D02D2384F843309CE7B9F1470FBFD1E4
:102A3000002BBDD10123BAE7BAF1650FDBD9BAF19A
:102A4000660F18D1002963680BDD216113B9226874
:102A5000D00702D501330B4423614FF00009A16573
:102A6000DBE713B92268D20701D50233F4E701236B
:102A7000F2E74FF0670A0E9B8B4205DC2368216169
:102A8000D807EAD54B1CE7E70029CCBF0122C1F1EA
:102A900002021344E0E723685A0507D4236942463B
:102AA00031462846B84701302BD165E7BAF1650FAA
:102AB00040F2DC80D4E9120100220023FFF720FA63
:102AC000002833D0012331462846354AB847013023
:102AD0003FF452AFDDE90D38434502DB2368D807E8
:102AE0000FD5DDE90A2331462846B84701303FF4C7
:102AF00043AF4FF0000908F1FF3804F11A0AC84546
:102B000009DC23689B0700F10281E0680F9B984273
:102B1000B8BF184632E70123524631462846B84727
:102B200001303FF429AF09F10109E8E70D9B002BC3
:102B300038DC012331462846194AB84701303FF4B2
:102B40001BAFDDE90D3959EA030302D12368D90728
:102B5000D7D5DDE90A2331462846B84701303FF48E
:102B60000BAF4FF0000A04F11A0B0D9B5B4253456B
:102B700001DC4B4693E701235A4631462846B847C5
:102B800001303FF4F9AE0AF1010AEEE7FFFFEF7FF3
:102B9000115500080D550008195500081555000875
:102BA0001D550008A36DDDF838A05345A8BF534656
:102BB000002B994636DC4FF0000B29EAE97904F145
:102BC0001A02A36D0893A3EB09035B4531DC0D9B4F
:102BD0009A453ADC2368DA0737D40D9BAAEB030940
:102BE000089BAAEB03039945A8BF9946B9F1000FCA
:102BF00033DC4FF0000829EAE97904F11A0B0D9B48
:102C0000AAEB0303A3EB090343457FF77AAF012344
:102C10005A4631462846B84701303FF4ADAE08F178
:102C20000108ECE7424631462846B8470130C2D198
:102C3000A2E60123314628460892B84701303FF406
:102C40009BAE089A0BF1010BBBE73146DDE90A2385
:102C50002846B8470130C0D18EE6089A4B46314627
:102C600028464244B8470130C3D185E6DDF838A094
:102C7000BAF1010F01DCDB0736D5012342463146AC
:102C80002846B84701303FF477AEDDE90A233146E4
:102C90002846B84701303FF46FAED4E91201002254
:102CA00000230AF1FF3AFFF72BF9C0B9534608F1A8
:102CB000010231462846B84701300CD15CE60123B9
:102CC0005A4631462846B84701303FF455AE08F120
:102CD0000108D045F3DB4B4604F15002E0E64FF02B
:102CE000000804F11A0BF4E701234246E1E701234F
:102CF0004A4631462846B84701303FF43DAE08F118
:102D00000108E3680F995B1A4345F0DCFDE64FF0DC
:102D1000000804F11909F4E72DE9F0471646984632
:102D20008A680B6907469342B8BF1346336091F82F
:102D300043200C46DDF820900AB10133336023684C
:102D4000990642BF336802333360256815F00605E3
:102D500006D104F1190AE36832689B1AAB422BDCF6
:102D600094F843302268003B18BF0123920630D408
:102D70004146384604F14302C847013023D0236856
:102D8000226903F00603042B14BF002533684FF0BB
:102D9000000608BFE56804F11A0408BFED1A54F8EC
:102DA000123C08BF25EAE5759342C4BF9B1AED1893
:102DB000B5421AD1002008E0012352464146384668
:102DC000C847013003D14FF0FF30BDE8F08701352F
:102DD000C1E73020E11881F843005A1C94F84510EF
:102DE0002244023382F84310C2E7012322464146BF
:102DF0003846C8470130E6D00136D9E72DE9FF470C
:102E00000F7E9146782F80460C469A460C9E01F123
:102E1000430207D8622F0AD8002F00F0D280582F23
:102E200000F0B78004F1420684F842703AE0A7F15E
:102E30006303152BF6D801A151F823F0952E000855
:102E4000A92E0008252E0008252E0008252E000892
:102E5000252E0008A92E0008252E0008252E000882
:102E6000252E0008252E0008A92F0008D32E0008C3
:102E70005F2F0008252E0008252E0008CB2F000804
:102E8000252E0008D32E0008252E0008252E000828
:102E9000672F000833681A1D1B68326004F1420670
:102EA00084F8423001239DE033682068191D3160A9
:102EB000060601D51D6803E04506FBD5B3F90050B1
:102EC000002D03DA2D236D4284F843300A2359483C
:102ED00010E021683368080653F8045B02D4490601
:102EE00048BFADB26F2F5348336059D1082300213A
:102EF00084F843106668002EA66005DB21682E4327
:102F000021F0040121604DD01646B5FBF3F103FB1F
:102F10001157C75D06F8017D2F46BB420D46F4D917
:102F2000082B0BD12368DF0708D523696168994214
:102F3000DEBF302306F8013C06F1FF36921B22610A
:102F40004B4621464046CDF800A003AAFFF7E4FE19
:102F500001304CD14FF0FF3004B0BDE8F08723685A
:102F600043F0200323607827334884F845702368B2
:102F700031681F0651F8045B02D45F0648BFADB24A
:102F80003160D90744BF43F0200323601DB11023F3
:102F9000ADE72848E9E7236823F020032360F6E73C
:102FA0000A23A4E71646BBE733682568181D616944
:102FB00030602E061B6801D5196002E06806FBD55B
:102FC0001980002316462361BAE7336800211A1DD1
:102FD00032601E686268304600F0B1F908B1801BAB
:102FE000606063682361002384F84330A8E73246B9
:102FF000494640462369D0470130ABD023689B0740
:1030000013D4E068039B9842B8BF1846A4E7012395
:10301000324649464046D04701309BD00135E368EF
:1030200003995B1AAB42F2DCEBE7002504F11906C9
:10303000F5E700BF1F55000830550008002310B504
:103040000446C0E90033C0E90433836081814366EC
:10305000C2818361194608225C3000F0F7F80D4BFD
:10306000246263620C4BA3620C4BE3620C4B236340
:103070000C4B9C4206D003F16802944202D0D0333C
:103080009C4205D104F15800BDE8104000F054B94D
:1030900010BD00BFC5310008E73100081F3200082D
:1030A00045320008F4040020024A0349034800F0B6
:1030B0006BB800BF90000020A54A00080C02002059
:1030C00041680C4B10B59942044601D001F0EAFC6E
:1030D000A168094B994202D0204601F0E3FCE16867
:1030E000064B994204D02046BDE8104001F0DABCFE
:1030F00010BD00BFF40400205C050020C4050020C2
:103100000C4B0D4A10B504211A600C480022FFF741
:1031100095FF0A4B01221C46092103F16800FFF7C5
:103120008DFF04F1D0000222BDE810401221FFF70C
:1031300085BF00BF2C060020A9300008F404002041
:10314000014800F0FAB800BF35060020014800F041
:10315000F5B800BF3506002010B50446FFF7F0FFB4
:10316000236A1BB1BDE81040FFF7F0BF044B236298
:10317000044B1B68002BF5D1FFF7C2FFF2E700BF3D
:10318000C13000082C0600202DE9F8430746884688
:1031900014460026D4E90195B9F1010905D5246842
:1031A000002CF7D13046BDE8F883AB89012B07D955
:1031B000B5F90E30013303D029463846C0470643DF
:1031C0006835E9E710B50C46B1F90E1000F06CF85F
:1031D0000028ABBF636DA3891B1823F48053ACBFD9
:1031E0006365A38110BD2DE9F0411F468B8905461B
:1031F000DB050C46164605D502230022B1F90E1058
:1032000000F040F8A389324623F48053A381284676
:103210003B46B4F90E10BDE8F04100F057B810B5C8
:103220000C46B1F90E1000F02DF8B4F90C30421C28
:103230000BBF23F4805343F48053A381A38118BFB1
:10324000606510BDB1F90E1000F00CB803460244E1
:10325000934200D1704703F8011BF9E7004870471B
:103260008C01002038B50023054D044608462B602C
:10327000FEF74AF9431C02D12B6803B1236038BD25
:103280003006002038B50446084611460022054D98
:103290002A601A46FEF742F9431C02D12B6803B19B
:1032A000236038BD3006002038B504460846114674
:1032B0000022054D2A601A46FEF732F9431C02D15E
:1032C0002B6803B1236038BD3006002038B50446B2
:1032D000084611460022054D2A601A46FEF72EF9CF
:1032E000431C02D12B6803B1236038BD3006002097
:1032F00070B500260C4D0D4B5B1B9C10A64209D1EE
:10330000002601F0EBFE0A4D0A4B5B1B9C10A64207
:1033100005D170BD55F8043B98470136EEE755F8E6
:10332000043B98470136F2E7F0570008F0570008D1
:10333000F0570008FC570008704770477047034675
:1033400010B5C9B202449342184601D1002003E0EF
:10335000047801338C42F6D110BD0A44914200F149
:10336000FF3300D1704710B511F8014B914203F8BB
:10337000014FF9D110BD2DE9F74F03690C690746DC
:10338000A3427EDB013CA30000F1140501F1140807
:10339000009305EB8403019358F8243055F824205A
:1033A00001339A42B2FBF3F608EB84092ED34FF0B7
:1033B000000AC446AE46D3465CF8043B98B206FB0E
:1033C00000A01B0C020C06FB0323DEF8002080B2D9
:1033D00092B2121A5A44DEF800004FEA134A9BB226
:1033E000C3EB224303EB104392B242EA0342E145AE
:1033F0004FEA234B4EF8042BDED2009BEB582BB93F
:10340000019B043B9D421A462FD33C61384601F094
:10341000B1F9002825DB2946002058F8042BD1F803
:1034200000C01FFA82FE1FFA8CF3A3EB0E030344C5
:10343000120CC2EB234202EB1C429BB243EA024352
:10344000C1454FEA224041F8043BE6D255F824201A
:1034500005EB840322B9043B9D421A460BD33C6121
:103460000136304603B0BDE8F08F1268043B002AF5
:10347000CBD1013CC6E71268043B002AEFD1013CE6
:10348000EAE70020EEE700002DE9F04F16461F4660
:10349000C26999B08146CDE90E67259C82B910209A
:1034A00000F020FE0246C9F81C0020B9EF21A84B0D
:1034B000A84801F02FFB0023C0E901330360C3607B
:1034C000116859B101235268484693404A608B60A5
:1034D00000F016FF0022D9F81C301A60B7F100087E
:1034E000B5BF01230023236023609B4BBCBF28F0A2
:1034F0000048CDF83C8033EA08031AD142F20F733A
:10350000249AC8F3130858EA0608136000F074857B
:10351000269B53B9914B21E0914B03930833269A94
:103520001360039819B0BDE8F08F8C4B03930333FD
:10353000F5E7DDE90E34CDE90A34DDE90A010022C0
:103540000023FEF7DDFC824650B10123249A13606C
:10355000269B13B1834B269A1360834B0393E0E7BA
:1035600016AB019317AB00934846DDE90A2301F03F
:10357000B5F95FEA1854169D04907BD0DDE90A0185
:103580000B9BA4F2FF34C3F3130343F07F5343F4C4
:103590004013CDF850A019460022744BFEF790F866
:1035A00065A3D3E90023FEF743FA65A3D3E900231B
:1035B000FEF788F8064620460F46FEF7CFF962A3CD
:1035C000D3E90023FEF734FA02460B46304639466B
:1035D000FEF778F806460F46FEF7DAFC0022804632
:1035E000002330463946FEF795FC48B14046FEF7C9
:1035F000B5F932463B46FEF783FC08B908F1FF38BF
:10360000B8F1160F53D8DDE90A01594B03EBC80393
:10361000D3E90023FEF77EFC00284AD0002308F1FE
:10362000FF3811932D1B6B1E099349BF0023002700
:10363000C5F101070993B8F1000F3CDB099BCDF8F8
:1036400040804344099300230C93229B092B66D8A6
:10365000052BC4BF043B2293229BC8BF0024A3F1C7
:103660000203D8BF0124032B00F28680DFE803F0B9
:103670005355362B179C2C4404F23243202BC1BFE8
:10368000C3F1400308FA03F804F2124326FA03F3E5
:10369000D6BFC3F1200348EA030006FA03F0FEF7A1
:1036A0004DF90122A1F1F873013C149273E7012353
:1036B000B7E71190B6E7C8F100030C930023A7EB1E
:1036C00008071093C1E701230D93239B43440893FC
:1036D0000133012B0593B8BF012306E001230D93AD
:1036E000239B002B4BDD0893059300210422D9F87E
:1036F0001C0002F114059D4201F1010644D941600C
:10370000484600F0BFFD0390002840D1024640F239
:10371000AF11184BCCE60023E1E70023D4E70124E6
:1037200000230D9422934FF0FF330022089305935A
:1037300012232392D9E700BF61436F63A787D23F6B
:10374000B3C8608B288AC63FFB799F501344D33F90
:10375000585500086F5500080000F07F54550008C8
:103760004B5500081E5500081D5500080000F83F85
:1037700020570008F155000801230D93D3E70123DA
:103780001A4608930593D4E731465200B1E7D9F8B9
:103790001C30039A1A60059B0E2B00F2A180002CAE
:1037A00000F09E80B8F1000F36DD9F4B08F00F024D
:1037B00003EBC20318F4807F4FEA2815D3E900AB6E
:1037C00016D0DDE90A01994B0324D3E90823FEF75B
:1037D00059FACDE9060105F00F05944E75B9DDE9FA
:1037E000060152465B46FEF74DFA82468B462DE0B7
:1037F000DDE90A34CDE906340224EEE7E90708D50D
:10380000D6E9002350465946FEF712F982468B4608
:1038100001346D100836E1E700F0AD80DDE90A0102
:10382000C8F10005804B05F00F0203EBC203D3E99A
:103830000023FEF7FDF8022482468B4600237B4ED0
:103840002D11002D40F08C80002BCED1119B002B30
:1038500000F09580002250465946754BFEF75AFB02
:10386000002800F08C80059B002B00F08880089BCE
:10387000002B35DD08F1FF335046594606930022F0
:103880006C4BFEF7D5F882468B46089E01342046E5
:10389000FEF764F852465B46FEF7CAF80022664B14
:1038A000FDF710FF0446A1F15075CDE91245002E39
:1038B00069D1002250465946604BFDF701FF224670
:1038C0002B4682468B46FEF743FB002840F0998248
:1038D00022465046594605F10043FEF71BFB20BB2C
:1038E000179B002BC0F26581B8F10E0F00F36181C8
:1038F0004D4B03EBC803D3E900AB239B002B80F2B5
:10390000EF80059B002B00F3EB800ED100224B4B88
:1039100050465946FEF78CF802460B46DDE90A018F
:10392000FEF702FB002800F06F8200252C46239B47
:10393000039EDB430693274600242946484600F0B1
:10394000DFFC002F00F0C2802CB1BC4203D0214626
:10395000484600F0D5FC3946484600F0D1FCB5E0B9
:10396000EA0705D5D6E90023FEF762F80123013402
:103970006D10083665E70224DDE90AAB66E7059EAF
:10398000CDF8188083E7284B03EBC60353E9020107
:103990000D9B002B56D002460B4600202849FEF70F
:1039A00071F9DDE91223FDF78BFE039BCDE91201CE
:1039B0009D191E4659465046FEF7EAFA0446FDF7A1
:1039C000CDFF02460B4650465946FDF779FEDDE92C
:1039D0001223303406F8014B82468B46FEF79AFAE2
:1039E000002873D152465B4600201149FDF768FE5E
:1039F000DDE91223FEF78EFA002840F0BB80AE42CC
:103A00003FF46EAFDDE9120100220A4BFEF710F819
:103A10000022CDE91201074B50465946FEF708F83F
:103A200082468B46C6E700BF20570008F8560008BC
:103A30000000F03F0000244000001C400000144043
:103A40000000E03FDDE91223FDF7F2FF039BCDE923
:103A500012013344039D159359465046FEF798FAD8
:103A60000446FDF77BFF0B46024659465046FDF7DC
:103A700027FE3034159B05F8014B9D4282468B464C
:103A800027D1DDE91201039B00221E44B54BFDF74F
:103A900019FE02460B4650465946FEF759FA0028D1
:103AA00068D1DDE912230020AE49FDF709FE024688
:103AB0000B4650465946FEF72DFA00283FF410AF4A
:103AC000334616F8012D302AFAD01E46DDF818804C
:103AD0003EE00022A44BFDF7ABFF82468B46BBE7DE
:103AE0000024039EA04D5246DDE90A015B46FEF725
:103AF000C9F8FEF74DFA0746FDF730FF52465B4620
:103B0000FDF796FF02460B46DDE90A01FDF7D8FDF9
:103B100007F1300C06F801CBDDF80CC0DDF814E03D
:103B2000A6EB0C0CE64502460B4633D1FDF7CAFD69
:103B300052465B4604460D46FEF70AFAC0B95246A5
:103B40005B4620462946FEF7DBF908B1FB070FD498
:103B50004846049900F0D4FB0023249A337008F1FE
:103B600001031360269B002B3FF4DBAC1E60D8E4FE
:103B7000CDF8188033461E4613F8012D392A06D198
:103B8000039A9A42F7D1069A013206923022013204
:103B90001A709BE722462B46FDF74AFF02460B466A
:103BA000CDE90A2300220023FEF7AAF900289AD0C3
:103BB000CEE70D9A002A00F0E380229A012A00F352
:103BC000C280149A002A00F0BA8003F233430C9D9D
:103BD0003E46099A01211A4448461F44099200F0C2
:103BE00043FC044656B1099B002B07DDB342A8BF36
:103BF0003346099AFF1AF61AD31A09930C9B0BB392
:103C00000D9B002B00F0C380002D00F0BD802146ED
:103C10002A46484600F0E6FC049A01460446484617
:103C200000F038FC04998246484600F069FB0C9B82
:103C30005B1B0C9300F0AE8051460C9A484600F096
:103C4000D1FC04900121484600F00EFC109B054673
:103C5000002B00F0D8811A460146484600F0C2FC0D
:103C6000229B0546012B00F39D800E9B002B40F00C
:103C700094800F9BC3F31303002B40F08E800F9BA7
:103C800023F000431B0D1B05002B00F089804FF033
:103C9000010A099B013701330993109B002B00F0A7
:103CA000B8812B6905EB8303186900F091FBC0F123
:103CB0002000099B184410F01F007ED0C0F12003A3
:103CC000042B72DD099BC0F11C0003440744064429
:103CD0000993002F05DD3A464846049900F0DEFCC2
:103CE0000490099B002B05DD29461A46484600F042
:103CF000D5FC0546119B002B61D02946049800F0A5
:103D000039FD00285BDA08F1FF3306930A2200230D
:103D10004846049900F016FB0D9B0490002B00F020
:103D20007A81002321460A22484600F00BFB089BBB
:103D30000446002B72DC229B022B49DC6EE0169BB2
:103D4000C3F1360343E7059B5D1E0C9BAB420DDBC5
:103D50005D1B059B002BBFF63BAF059BFE1A0023A6
:103D600037E700BF0000E03F000024400C9B109AA2
:103D7000EB1A1A440C953E460025059B109228E745
:103D80003E460C9D0D9C2DE7DDF810A054E70C9AE3
:103D9000049953E7CDF810A054E74FF0000A7CE7F0
:103DA0009A467AE74FF0000A7BE792D0099A1C33D3
:103DB0001A441F441E4409928BE70346F6E7059B0D
:103DC000CDF81880002B23DC0893229B022B21DDE9
:103DD000089B002B7FF4ABAD29460522484600F036
:103DE000B1FA01460546049800F0C4FC00287FF7AC
:103DF0009EAD3123039E06F8013B069B01330693DB
:103E000099E535462C46F4E7059DCDF81880F9E78D
:103E1000059B08930D9B002B00F00181002E05DD12
:103E200021463246484600F039FC0446BAF1000FFC
:103E30005AD04846616800F025FA064628B902467D
:103E400040F2EF21814BFFF733BB226904F10C01F3
:103E5000023292000C30FFF780FA012231464846C8
:103E600000F01CFC0746039B039A03F1010B089B1F
:103E700013440A930E9B03F0010309930BF1FF33E4
:103E8000294604980593FFF776FA2146089000F139
:103E9000300A049800F06EFC3A46804629464846AF
:103EA00000F084FCC268064602BB0146049800F09C
:103EB00061FC0246314648460C9200F021FA229BF2
:103EC0000C9A5E4642EA0301099B194310D1BAF1EC
:103ED000390F2BD0B8F1000F02DD089B03F1310A36
:103EE000059B83F800A028E52746BCE70122E1E70F
:103EF000B8F1000F06DB229B48EA0308099B58EA49
:103F0000030820D1002AEBDD01220499484600F085
:103F1000C5FB2946049000F02DFC002803DCDFD10E
:103F20001AF0010FDCD0BAF1390FD6D13923059A36
:103F3000137033461E4616F8012C013B392A53D024
:103F400001321A70F9E4002A07DDBAF1390FEDD019
:103F5000059A0AF101031370EFE40A9B0BF801AC18
:103F60005B452BD000230A220499484600F0EAF969
:103F7000BC4204904FF000034FF00A02214648462D
:103F800006D100F0DFF9044607460BF1010B75E797
:103F900000F0D8F93946044600230A22484600F0CA
:103FA000D1F90746F1E7089B2746002B03F1FF36BE
:103FB000D8BF00260024039B5A1C164401220499F2
:103FC000484600F06BFB2946049000F0D3FB002824
:103FD000AFDC02D11AF0010FABD133461E4613F805
:103FE000012D302AFAD0A8E4039A9A42A2D1069B66
:103FF000013306933123AEE7269B002B7FF48CAA76
:10400000134BFFF7ABBA229B012B7FF72EAEDDF8E7
:1040100040A001204DE6089B002B7FF7D6AE039E03
:1040200029460498FFF7A7F9039B00F1300A06F828
:1040300001ABF21A089B9342B5DD00230A224846E1
:10404000049900F07FF90490EAE700BFF1550008F9
:104050004B55000838B50546002940D051F8043CBE
:104060000C1F002BB8BFE41800F000F91C4A1368BD
:1040700033B9636014602846BDE8384000F0FCB8EE
:10408000A34208D9206821188B4201BF19685B68D8
:1040900009182160EDE71A465B680BB1A342FAD913
:1040A00011685018A0420BD1206801445018834277
:1040B0001160E0D118685B68084410605360DAE76B
:1040C00002D90C232B60D6E7206821188B4201BF50
:1040D00019685B680918216063605460CBE738BDDC
:1040E0003C060020024B0146186800F02DB800BFC6
:1040F00008020020024B01461868FFF7ABBF00BF63
:104100000802002070B50F4E0C463168054611B903
:1041100000F0F0FC30602146284600F0EBFC431C28
:1041200003D14FF0FF34204670BDC41C24F00304BB
:10413000A042F8D0211A284600F0DCFC0130F2D170
:10414000EFE700BF380600202DE9F843CD1C25F02D
:10415000030508350C2D38BF0C25002D064601DB64
:10416000A94204D90C2333600020BDE8F883DFF8AE
:10417000D48000F07BF8D8F800301C4644BB2946B8
:104180003046FFF7BFFF431C044658D1D8F8004023
:104190002746002F43D1002C4BD0236839463046A8
:1041A00004EB030900F0A6FC814542D121683046AA
:1041B0006D1A2946FFF7A6FF01303AD023682B4439
:1041C0002360D8F800305A6862BBC8F800700FE06E
:1041D0002268521B20D40B2A17D96119A3422560EB
:1041E00018BF5960636808BFC8F8001062514B607F
:1041F000304600F041F804F10B00231D20F00700C9
:10420000C21A1CBF1B1AA350AFE76268A3420CBFBF
:10421000C8F800205A60EBE723466468AEE73C46E6
:104220007F68B6E71A465B68A342FBD10023536060
:10423000DEE70C233046336000F01EF894E705609B
:10424000D6E700BF3C06002082B001B901A942B107
:104250004BB113780B601278101E18BF012002B00A
:1042600070471046FBE76FF00100F8E70148FFF7E1
:1042700064B800BF340600200148FFF75FB800BFF4
:104280003406002070B5C46905460E4684B9102076
:10429000FFF728FF0446E86128B902466B21164B58
:1042A000164800F037FC0023C0E901330360C36007
:1042B000E36853B921220421284600F049FCEB6948
:1042C000E060DB680BB9002070BD53F8260030B108
:1042D000026843F826200023C0E90333F4E70121F4
:1042E00001FA06F4621D2846920000F031FC002815
:1042F000E9D0C0E90164EEE758550008025600080D
:1043000070B5C66905460C4676B91020FFF7EAFE7F
:104310000246E86120B98F21084B094800F0FAFBFA
:10432000C0E901660660C6603CB1EB696268DB68A3
:1043300053F82210216043F8224070BD5855000800
:10434000025600082DE9F04107460C461E460020A3
:104350000D6901F1140CDCF80030013099B202FB58
:1043600001611E0C0B0C02FB063389B201EB034109
:1043700085424FEA13464CF8041BECDC0EB3A368ED
:10438000AB4219DC616838460131FFF77BFF80469C
:1043900028B90246BA210C4B0C4800F0BBFB22693D
:1043A00004F10C01023292000C30FEF7D6FF2146D8
:1043B0003846FFF7A5FF444604EB850301355E61EF
:1043C00025612046BDE8F081F1550008025600083D
:1043D0000346B0F5803F3ABF030410200020B3F13C
:1043E000807F3CBF1B020830B3F1805F3CBF1B01E4
:1043F0000430B3F1804F3CBF9B000230002B05DB43
:1044000013F0804F00F1010008BF202070470368BF
:10441000024613F007000BD0D90721D4980749BFF3
:104420005B089B08012013605CBF0220136070478B
:1044300099B209B910201B0CD9B209B908301B0A6E
:10444000190704BF1B090430990704BF9B080230F9
:10445000D90703D45B0800F1010003D01360704753
:10446000002070472020704710B50C460121FFF74F
:1044700009FF024628B940F24511044B044800F0F8
:1044800049FB01234461036110BD00BFF1550008E1
:10449000025600082DE9F04FD1F81090D2F810A084
:1044A0008846D145144685B004DB53460C46CA46BF
:1044B00090469946A36861680AEB0906B342B8BF03
:1044C0000131FFF7DFFE30B902464FF4B171434BC3
:1044D000434800F01FFB00F114052B46002205EBBA
:1044E0008607BB421FD304F1140C08F114010CEB36
:1044F0008A0301EB890202921A1B153A22F0030289
:1045000015349C4288BF00220192029A03918A428C
:104510000CD8002E03DD57F8043D002B5CD006615B
:1045200005B0BDE8F08F43F8042BDAE7B1F800A03E
:10453000BAF1000F23D0E046A9464FF0000E58F81C
:10454000042BD9F800401FFA82FBA4B20AFB0B44EB
:104550007444D9F800E0120C4FEA1E4E0AFB02E246
:1045600002EB1442A4B244EA024443454FEA124E1D
:1045700049F8044BE3D8019AAA18C2F804E0039A58
:104580000431B2F80280B8F1000F23D02A68E64661
:104590009146AA464FF0000BBEF8004092B208FBCD
:1045A00004B404EB194442EA04424AF8042B5EF8CE
:1045B000042BDAF800904FEA124B1FFA89F208FB3D
:1045C0000B22734502EB14424FEA124BE4D8019CD4
:1045D0002C196260043598E7013E9AE7F15500080E
:1045E000025600082DE9F843174612F003028046F0
:1045F0000D4607D0264C013A002354F82220FFF73D
:10460000A1FE0546BF103FD0D8F81C4094B9102039
:10461000FFF768FD0446C8F81C0030B9024640F2B6
:10462000B3111C4B1C4800F075FA0023C0E901339C
:104630000360C360A66846B940F271214046FFF7A7
:1046400013FF00230646A06003602C464FF00009CC
:1046500007F001037F1053B1294632464046FFF769
:1046600019FF214605464046FFF74AFE67B130680C
:1046700038B9324631464046FFF70CFF3060C0F88B
:10468000009006462C46E3E72846BDE8F88300BFC5
:10469000E856000858550008025600082DE9F84F62
:1046A0000C46074615462369496803EB6218A36860
:1046B0004FEA621A08F101094B450BDB3846FFF758
:1046C000E1FD064648B902464FF4EF71274B2848F2
:1046D00000F020FA01315B00EEE70023194600F1FB
:1046E000140C00F11002534534DB22692AEAEA7AFD
:1046F0000CEB8A0C04F1140315F01F0E614603EB5A
:1047000082022BD00025CEF1200A8B461868043196
:1047100000FA0EF02843CBF8000053F8045B9A42ED
:1047200025FA0AF5F1D8131B153B23F0030304F116
:1047300015018A4238BF00239C44CCF8045005B9C7
:10474000C14638462146C6F81090FFF7D9FD3046DD
:10475000BDE8F88F42F8041F0133C4E753F8045B47
:1047600004319A4241F8045CF8D8E9E7F1550008B1
:104770000256000803460A69006930B5801A0ED156
:104780001433143103EB820401EB820154F8045D0D
:1047900051F8042D954203D005D24FF0FF3030BDC3
:1047A000A342F3D3FBE70120F9E700002DE9F74F1F
:1047B0008A460646114650461446FFF7DBFF051EA3
:1047C00012D129463046FFF75DFD024628B940F276
:1047D0003721404B404800F09DF90123C0E90435E2
:1047E000104603B0BDE8F08FBCBF5346A24630462A
:1047F000DAF80410BABF1C4601250025FFF742FD78
:10480000024618B940F24521324BE3E7C56000F19A
:104810001405AB464FF0000CDAF8107026690AF167
:10482000140904F1140E0AF1100309EB87080EEBCA
:1048300086060193019B5EF8040B53F804AF81B226
:1048400001931FFA8AF35B1A000C6344C0EB1A4011
:1048500000EB23409BB243EA004376454FEA204CED
:104860004BF8043BE6D8331B153B153423F0030308
:10487000A64238BF0023E8184B441C1D26460430CE
:10488000A5EB0905464506EB050E0ED308F103011D
:10489000091B21F003010133984538BF0021014471
:1048A00051F8043DA3B117619AE7E24656F8041B9C
:1048B0001FFA81FCD4444FEA1149514409EB2C49B9
:1048C00089B241EA09414FEA294CCEF80010D9E7F4
:1048D000013FE5E7F1550008025600082DE9734352
:1048E000012190469946089EFFF7CCFC044630B95A
:1048F000024640F20F31234B234800F00BF9C9F375
:104900000A55C9F313030DB143F480130193B8F1B1
:10491000000324D068460093FFF779FD0099E0B1C9
:10492000019AC0F1200302FA03F30B43C240636112
:104930000192019B002B0CBF01220222A361226184
:10494000ADB1A5F2334505443560C0F13500099B92
:104950001860204602B0BDE870836161E9E701A8F4
:10496000FFF755FD019B012263612030E7E7A0F2CC
:10497000324004EB820330601869FFF729FDC0EB79
:104980004210E4E7F15500080256000803460846C5
:1049900041B1FF2A04D98A224FF0FF301A607047D4
:1049A00001200A7070470000B1F90C20F8B5160715
:1049B00005460C4651D44B68002B02DC0B6C002BD7
:1049C00049DDE66A002E46D0002312F480522F689B
:1049D0002B6031D0626DA389590705D56368D21A5F
:1049E000636B0BB1236CD21A00232846E66A216A56
:1049F000B047421CB4F90C3006D129681D2945D8AE
:104A0000274ACA40D60741D5002262602269D904EC
:104A1000226004D5421C01D12B6803B96065616B2B
:104A20002F60C1B104F14403994202D02846FFF738
:104A300011FB002363630EE001232846216AB0477F
:104A40000246501CC7D12B68002BC4D01D2B01D0AF
:104A5000162B19D12F6000201DE00F69002FFAD00E
:104A6000930718BF00230E6808BF4B69F61B0F6041
:104A70008B60002EEFDD33463A462846216AD4F893
:104A800028C0E047002807DCB4F90C304FF0FF30B5
:104A900043F04003A381F8BD0744361AE9E700BF9D
:104AA0000100402038B50B6905460C4613B90025B6
:104AB000284638BD18B1036A0BB9FEF74DFBB4F9AF
:104AC0000C30002BF3D0626ED00704D4990502D4C9
:104AD000A06DFEF732FC28462146FFF765FF636EA6
:104AE0000546DA07E4D4A3899B05E1D4A06DFEF75F
:104AF00025FCDDE738B50023054D044608462B604C
:104B0000FCF7E4FC431C02D12B6803B1236038BDE1
:104B1000300600201FB514461A46094B05461B688F
:104B2000D8684CB1074BCDE9013400912B460649BA
:104B300000F022F800F032F8044B1C46F3E700BF07
:104B4000080200208556000892560008E556000825
:104B500070B5A1FB025434B92946FFF7F5FA0646B1
:104B600028B9304670BD0C2200260260F9E72A46BB
:104B70002146FEF76BFBF4E70EB403B5014603AB29
:104B8000054853F8042B0068019300F035F802B093
:104B90005DF804EB03B0704708020020062008B55A
:104BA00000F0FCF90120FCF7BDFC936810B4013B58
:104BB000002B936007DA9469A34201DB0A2902D132
:104BC00010BC00F031B91368581C10601970084609
:104BD00010BC7047F8B506460F461446D518AC42CF
:104BE00001D1002007E03A46304614F8011BFFF7D8
:104BF000DCFF431CF3D1F8BD2DE9F04F0D46144600
:104C0000984606469DB018B1036A0BB9FEF7A4FAA0
:104C10006B6ED90705D4AB899A0502D4A86DFEF74F
:104C20008CFBAB891B0701D52B699BB92946304604
:104C300000F038F970B16B6EDC0704D54FF0FF302F
:104C40001DB0BDE8F08FAB899805F7D4A86DFEF7CD
:104C500075FBF3E70023099320238DF829303023D7
:104C60004FF00109CDF80C80DFF8A8818DF82A30CB
:104C700023469A4613F8012B0AB1252AF9D1BAEB3B
:104C8000040B0BD05B46224629463046FFF7A2FFB5
:104C9000013000F0A780099A5A4409929AF800302E
:104CA000002B00F09F8000234FF0FF32CDE9052359
:104CB0000AF1010A049307938DF853301A9354466E
:104CC000052214F8011B5348FEF739FB049AD8B9A2
:104CD000D10644BF20238DF85330130744BF2B2344
:104CE0008DF853309AF800302A2B15D05446002006
:104CF0004FF00A0C079A214611F8013B303B092B73
:104D00004BD9B0B1079214E0A0EB080309FA03F302
:104D10001343A2460493D2E7039B191D1B6803911A
:104D2000002BBBBF5B4242F0020207930793B8BF60
:104D3000049223782E2B0AD163782A2B32D1039B3D
:104D400002341A1D1B68039243EAE3730593DFF8EC
:104D5000C8A0032250462178FEF7F1FA38B140226C
:104D6000049BA0EB0A00824013430134049314F81F
:104D7000011B062229488DF82810FEF7E0FA0028CA
:104D80003FD0274B1BBB039B073323F0070308339C
:104D90000393099B3B4409936AE70C4601200CFBF3
:104DA0000232A8E700234FF00A0C1946013405939C
:104DB000204610F8012B303A092A03D9002BC6D01F
:104DC0000591C4E7044601230CFB0121F0E703AB86
:104DD00000932A463046134B04A9FDF771FD0746A0
:104DE000781CD6D16B6ED90705D4AB899A0502D44D
:104DF000A86DFEF7A3FAAB895B063FF51FAF0998D4
:104E00001EE703AB00932A463046064B04A9FDF784
:104E1000F5FFE4E7C1560008C7560008CB56000866
:104E2000C1280008D54B0008F8B50E4614460546C3
:104E300018B1036A0BB9FEF78FF9A369A360A389C0
:104E40001A0701D5236943B92146284600F02AF8FC
:104E500018B14FF0FF373846F8BD23682269F6B223
:104E6000981A63693746834205DC21462846FFF7D6
:104E700019FE0028EDD1A368013BA36023685A1CEA
:104E800022601E706269431C9A4204D0A389DB072A
:104E9000E1D50A2EDFD121462846FFF703FE002880
:104EA000D9D0D6E738B5284B054618680C4618B156
:104EB000036A0BB9FEF750F9B4F90C301A0721D484
:104EC000D80607D409222A6043F040034FF0FF3090
:104ED000A38130E0590712D5616B41B104F144035D
:104EE000994202D02846FFF7B5F8002363630022F9
:104EF000B4F90C306260226923F02403226043F08D
:104F00000803A38122693AB99A0501D5180603D589
:104F10002146284600F082F8B4F90C3013F0010263
:104F20000AD00022A26062695242A261226942B99B
:104F300013F08000C8D138BD990758BF6269A260DC
:104F4000F4E70020F7E700BF080200201F2938B56A
:104F500005460C4604D9162303604FF0FF3038BDD8
:104F6000C26B12B152F821304BB9284600F030F82C
:104F7000224601462846BDE8384000F017B8012B0C
:104F80000AD0591C03D1162303600120E7E7002152
:104F9000204642F8241098470020E0E7024B0146E3
:104FA0001868FFF7D3BF00BF0802002038B5002300
:104FB000064D0446084611462B60FCF7B4FA431C24
:104FC00002D12B6803B1236038BD00BF300600203A
:104FD000FCF7B2BA70B50C46B1F90E1015460029AF
:104FE0001E4696B00ADAA18911F0800113D14FF460
:104FF0008062002031602A6016B070BD6A4600F001
:1050000047F80028EFDB019901F47041A1F5005346
:1050100059425941EBE700214022EAE78B8973B5F9
:105020009E0705460C4607D504F14703236023611C
:105030000123636102B070BD01AB6A46FFF7CAFF8E
:10504000009E28463146FFF77FF8B4F90C3038B996
:105050009A05EFD423F0030343F00203A381E3E7AF
:1050600043F08003A381019BC4E904062060002B68
:10507000E0D02846B4F90E1000F01CF80028D9D072
:10508000A38923F0030343F00103A381D2E70000C7
:1050900038B50023064D0446084611462B60FCF740
:1050A00036FA431C02D12B6803B1236038BD00BF20
:1050B0003006002038B50023054D044608462B6015
:1050C000FCF72AFA431C02D12B6803B1236038BDD8
:1050D0003006002008B5FFF761FD0000F8B500BFFD
:1050E000F8BC08BC9E467047F8B500BFF8BC08BCC9
:0450F0009E46704721
:1050F8000000000001020304010100000202000098
:10510800040400000808000010100000202000001F
:1051180040400000808000000100010402000204F9
:1051280004000404080008041000100420002004EF
:105138004000400480008004020000000044004059
:1051480012080000090000000038014012060000A3
:10515800160000000038014012050000FFFFFFFFA5
:1051680000000000000000000300000000440040B0
:10517800100800000A000000003801401006000076
:10518800170000000038014010050000FFFFFFFF76
:105198000000000000000000010000000044004082
:1051A800120800000C000000003801401200000046
:1051B800FFFFFFFF000000000000000000000000EB
:1051C80000440040120000000B00000000380140BD
:1051D80012000000FFFFFFFF0000000000000000B9
:1051E80002030405060708090A0B0C0D0E0F101020
:1051F800010200000000000000000102030406078D
:1052080008090000000000000000004012800000B3
:1052180000010000000000401290000001000000A2
:1052280000000040121201000101000000000040CF
:10523800121001000200000000000040129201005C
:10524800020100000000004012910100030000006C
:10525800000000401212020003010000000000409C
:105268001211020006000000000400401295000020
:1052780007000000002C0140128D100007010000FB
:10528800000400401215010008000000002C014035
:10529800128E000008010000002C0140128D000051
:1052A80009000000002C0140120E01000901000055
:1052B800002C0140120D01000A000000002C0140E2
:1052C800128E01000A010000002C0140128D01001D
:1052D8000B000000002C0140120E02000B01000020
:1052E800002C0140120D02000F00000000000040D9
:1052F800129100000F01000000000040128F000012
:1053080010000000002C0140120D110010010000D7
:105318000004004012950100100200000004004043
:105328001294010011000000002C0140128D1100A0
:1053380011010000000400401215020011020000D3
:105348000004004012140200130000000000004096
:10535800121101001301000000000040120F0100AB
:105368001400000000040040129400001500000022
:1053780000040040121401001A0000000000004060
:10538800129001001A01000000000040128F010075
:105398001B00000000000040121002001B0100006A
:1053A80000000040120F02001D000000002C014008
:1053B800128E10001E000000002C0140120E110079
:1053C8001F000000002C0140128E1100FFFFFFFF9C
:1053D80000000000000000000000000000000000C5
:1053E8003B0500088D1200081F050008711200080F
:1053F800F5040008B1050008050500080D060008B9
:105408002F060008002020202020202020202828E7
:10541800282828202020202020202020202020206C
:1054280020202020208810101010101010101010AC
:1054380010101010100404040404040404040410DC
:10544800101010101010414141414141010101016A
:105458000101010101010101010101010101010134
:105468001010101010104242424242420202020240
:105478000202020202020202020202020202020204
:1054880010101010200000000000000000000000B4
:105498000000000000000000000000000000000004
:1054A80000000000000000000000000000000000F4
:1054B80000000000000000000000000000000000E4
:1054C80000000000000000000000000000000000D4
:1054D80000000000000000000000000000000000C4
:1054E80000000000000000000000000000000000B4
:1054F80000000000000000000000000000000000A4
:105508000000000000494E4600696E66004E414E9C
:10551800006E616E00300030313233343536373842
:105528003941424344454600303132333435363709
:105538003839616263646566004300504F534958C7
:10554800002E00496E66696E697479004E614E00DE
:105558005245454E54206D616C6C6F6320737563C2
:10556800636565646564002F5F5F772F61726D2DD9
:105578006E6F6E652D656162692D6763632D787046
:1055880061636B2F61726D2D6E6F6E652D65616243
:10559800692D6763632D787061636B2F6275696C21
:1055A800642D6173736574732F6275696C642F77EA
:1055B800696E33322D7836342F736F757263657365
:1055C8002F6E65776C69622D63796777696E2F6EC8
:1055D80065776C69622F6C6962632F7374646C6998
:1055E800622F64746F612E630042616C6C6F63207C
:1055F800737563636565646564002F5F5F772F610A
:10560800726D2D6E6F6E652D656162692D676363BE
:105618002D787061636B2F61726D2D6E6F6E652DC5
:10562800656162692D6763632D787061636B2F62B2
:1056380075696C642D6173736574732F6275696C19
:10564800642F77696E33322D7836342F736F757205
:105658006365732F6E65776C69622D637967776907
:105668006E2F6E65776C69622F6C6962632F737435
:10567800646C69622F6D707265632E63002C2066FE
:10568800756E6374696F6E3A200061737365727426
:10569800696F6E2022257322206661696C65643A01
:1056A8002066696C6520222573222C206C696E6542
:1056B800202564257325730A00232D302B200068CC
:1056C8006C4C0065666745464700495420574F5261
:1056D8004B532121212121212121000D0A00000005
:1056E80005000000190000007D0000000000000017
:1056F8000080E03779C34143176E05B5B5B89346C6
:10570800F5F93FE9034F384D321D30F94877825A91
:105718003CBF737FDD4F1575000000000000F03FAF
:105728000000000000002440000000000000594074
:105738000000000000408F40000000000088C340C7
:1057480000000000006AF8400000000080842E413C
:1057580000000000D01263410000000084D7974188
:105768000000000065CDCD41000000205FA002428E
:10577800000000E876483742000000A2941A6D4203
:10578800000040E59C30A2420000901EC4BCD642F6
:1057980000003426F56B0C430080E03779C34143A1
:1057A80000A0D8855734764300C84E676DC1AB4317
:1057B800003D9160E458E143408CB5781DAF154435
:1057C80050EFE2D6E41A4B4492D54D06CFF0804410
:1057D800F64AE1C7022DB544B49DD9794378EA4425
:0857E800C0BEFF7F01000000BC
:0C57F00079200008052000080D260008A4
:0857FC00E11F00081D27000851
:1058040000127A0010000000400600200000000092
:105814000000000000000000000000000000000084
:105824000000000000000000000000000000000074
:105834000000000000000000000000000000000064
:105844000000000000000000000000000000000054
:105854000000000000000000000000000000000044
:10586400FFFFFFFFFFFFFFFFFFFFFFFFFFFFFFFF44
:105874000002000000000000000000000000000022
:1058840000000000000000000030024000000000A2
:105894000000000003000000F404002043000000A6
:1058A40000000000000000000000000000000000F4
:1058B40000000000000000000000000043000000A1
:1058C40000000000000000000000000000000000D4
:1058D4000000000000000000000000004300000081
:1058E40000000000000000000000000000000000B4
:1058F4000000000000000000000000004300000061
:105904000000000000000000000000000000000093
:105914000000000000000000000000004300000040
:105924000000000000000000000000000000000073
:105934000000000000000000000000004300000020
:105944000000000000000000000000000000000053
:105954000000000000000000000000004300000000
:105964000000000000000000000000000000000033
:105974000000000000000000000000008D49000845
:1059840049420008000000000C5400084955000872
:10599400E5560008E5560008E5560008E5560008F7
:1059A400E5560008E5560008E5560008E5560008E7
:1059B400E5560008FFFFFFFFFFFFFFFFFFFFFFFFAC
:1059C400FFFF00000100415343494900000000006B
:1059D40000000000000000000000000000000000C3
:1059E400000000000000415343494900000000004A
:1059F40000000000000000000000000000000000A3
:105A040000000000000000000C0200200000000064
:105A1400F40400205C050020C40500200000000000
:105A24000000000000000000000000000000000072
:105A34000000000000000000000000000000000062
:105A44000000000000000000000000000000000052
:085A540000000000000000004A
:04000005080027398F
:00000001FF
