:020000040000FA
:100000000C945D000C9485000C9485000C94850084
:100010000C9485000C9485000C9485000C9485004C
:100020000C9485000C9485000C9485000C9485003C
:100030000C9485000C9485000C9485000C9485002C
:100040000C9476070C9485000C9485000C94850024
:100050000C9485000C9485000C9485000C9485000C
:100060000C94C0070C9485000000000800020100F9
:100070000003040700000000000000000000000072
:10008000250028002B0000000000240027002A0083
:10009000040404040404040402020202020203032E
:1000A0000303030301020408102040800102040836
:1000B0001020010204081020DF0811241FBECFEF1A
:1000C000D8E0DEBFCDBF23E0A8E1B2E001C01D92C1
:1000D000A933B207E1F712E0A0E0B1E0EAE6F1E30C
:1000E00002C005900D92A831B107D9F710E0CDE517
:1000F000D0E004C02197FE010E940614CC35D10740
:10010000C9F70E940D090C94B3180C94000090E0FC
:10011000FC01EC55FF4F249180579F4FFC018491C7
:10012000882399F090E0880F991FFC01EA57FF4F50
:10013000A591B491FC01E458FF4F859194918FB73C
:10014000F894EC91E22BEC938FBF089580E48093B8
:100150007C0080917A00806480937A0080917A009C
:1001600086FDFCCF8091780090917900089590E011
:10017000FC01E859FF4F2491FC01EC55FF4F3491ED
:10018000FC01E057FF4FE491EE23C9F0222339F040
:10019000233001F1A8F4213019F1223029F1F0E0E7
:1001A000EE0FFF1FE458FF4FA591B4918FB7F8945D
:1001B000EC91611126C030953E233C938FBF08958A
:1001C0002730A9F02830C9F0243049F78091800009
:1001D0008F7D03C0809180008F7780938000DFCF78
:1001E00084B58F7784BDDBCF84B58F7DFBCF8091C5
:1001F000B0008F778093B000D2CF8091B0008F7D18
:10020000F9CF3E2BDACFCF93DF93EC018AE00E9447
:100210008700209731F460E08AE0DF91CF910C9461
:10022000B700CF3FD10511F461E0F6CFE2E7F0E08F
:10023000E491E33029F140F4E130B1F0E230D9F05B
:10024000C038D1058CF7E7CFE73021F1E83051F124
:10025000E430B1F780918000806280938000D09379
:100260008B00C0938A0004C084B5806884BDC7BD7C
:10027000DF91CF91089584B5806284BDC8BDF8CF69
:1002800080918000806880938000D0938900C09323
:100290008800EECF8091B00080688093B000C0935A
:1002A000B300E6CF8091B00080628093B000C0932D
:1002B000B400DECF3FB7F8948091B5029091B602BA
:1002C000A091B702B091B80226B5A89B05C02F3FF8
:1002D00019F00196A11DB11D3FBFBA2FA92F982F6C
:1002E0008827BC01CD01620F711D811D911D42E067
:1002F000660F771F881F991F4A95D1F708958F922F
:100300009F92AF92BF92CF92DF92EF92FF924B01FA
:100310005C010E945A016B017C010E945A016C1918
:100320007D098E099F09683E734081059105A8F3F8
:1003300021E0821A9108A108B10888EEC80E83E076
:10034000D81EE11CF11C81149104A104B10429F709
:10035000FF90EF90DF90CF90BF90AF909F908F90E5
:10036000089508950895AF92BF92CF92DF92EF92D1
:10037000FF920F931F93CF93DF936C017B018B014F
:10038000040F151FEB015E01AE18BF08C017D1079F
:1003900059F06991D601ED91FC910190F081E02D29
:1003A000C6010995892B79F7C501DF91CF911F917E
:1003B0000F91FF90EF90DF90CF90BF90AF90089596
:1003C000089520913902260F3327331F213231053A
:1003D000ECF42091E702FC0190E080E0243069F029
:1003E00082E00895A09139022191AC01475E5D4FF2
:1003F000A40FB52FB11D2C930196861798F3809109
:100400003902680F6093390280E0089581E0089511
:100410001092E70281E08093E6021092C10261E04F
:1004200082E10E94B70061E083E10E94B700E9EB3E
:10043000F0E080818E7F808380818D7F808388E45F
:100440008093B80085E48093BC000895CF93DF9338
:1004500091E0909318028823B9F0C091B800D09130
:10046000BA008091BC008A7B8093BC0060E082E18E
:100470000E94B70060E083E10E94B7000E9408027A
:10048000D093BA00C093B800DF91CF910895CF9276
:10049000DF92EF92FF920F931F93CF93DF93D09150
:1004A000100381E0D13208F09CC0C0910F030E947C
:1004B0005A016B017C018091E70281116CC082E0DE
:1004C0008093E70281E08093E6028FEF8093E5025C
:1004D0001092E402D093E302AFEEB2E0E3ECF2E07C
:1004E00080E0D8138DC01092C2028091C202CC0F5E
:1004F000C82BC093C2028091C102813009F084C030
:100500001092C1020E945A016B017C018091C202CB
:100510008093BB008091E9029091EA02A091EB02E6
:10052000B091EC02892B8A2B8B2BA1F00E945A01EF
:100530000091E9021091EA022091EB023091EC0265
:100540006C197D098E099F090617170728073907B7
:1005500008F442C08091BC0083FDD8CF85EC809325
:10056000BC000E945A016B017C018091E70282303D
:1005700009F44CC08091E5028F3F09F469C0809175
:10058000E502803209F466C08091E502803309F407
:1005900063C084E026C08091E9029091EA02A091B4
:1005A000EB02B091EC02892B8A2B8B2B09F483CFC1
:1005B0000E945A010091E9021091EA022091EB0297
:1005C0003091EC026C197D098E099F0906171707F7
:1005D0002807390708F06FCF8091E8020E942602B1
:1005E00085E01092EE02109210031092ED02DF915E
:1005F000CF911F910F91FF90EF90DF90CF900895D2
:100600009D9191938F5F6DCF85EEA9CF8091E90287
:100610009091EA02A091EB02B091EC02892B8A2B17
:100620008B2B09F4A2CF0E945A010091E90210918C
:10063000EA022091EB023091EC026C197D098E09DF
:100640009F09061717072807390708F08ECFC4CF70
:1006500080E0C7CF82E0C5CF83E0C3CF0895E091AB
:10066000610280916002E81730F4F0E0EE59FD4F2E
:10067000808190E008958FEF9FEF0895909161023F
:10068000809160022FEF3FEF981748F4E92FF0E0D8
:10069000EE59FD4F208130E09F5F90936102C901C8
:1006A00008958091600290916102891B990B0895D1
:1006B000CF92DF92EF92FF920F931F93CF93DF932E
:1006C0007C01CB018A012091ED02222389F0EB010C
:1006D0006B01C40ED51ECC15DD0569F06991D701FB
:1006E000ED91FC910190F081E02DC7010995F3CFC8
:1006F000642F0E94E101C801DF91CF911F910F91FA
:10070000FF90EF90DF90CF900895CF93DF931F92EB
:10071000CDB7DEB769832091ED022223F9F0209155
:100720001003203258F021E030E0FC0133832283B3
:1007300090E080E00F90DF91CF9108958091EE02DC
:10074000E82FF0E0E151FD4F998190838F5F809316
:10075000EE028093100381E090E0ECCF61E0CE01E7
:1007600001960E94E101F7CF0F931F93CF9381E091
:100770008093ED0288E680930F031092EE021092B0
:10078000100360E081E193E00E94850309EB12E031
:10079000F8018081CAE06C2F0E94C4138295807F8B
:1007A000682F690F81E193E00E948503F801818140
:1007B0006C2F0E94C4138295807F682F690F81E19E
:1007C00093E00E948503F80182816C2F0E94C4137C
:1007D0008295807F682F690F81E193E00E948503F5
:1007E000F80183816C2F0E94C4138295807F682F4B
:1007F000690F81E193E00E948503F80184816C2FE9
:100800000E94C4138295807F682F690F81E193E075
:100810000E948503F80185816C2F0E94C413829584
:10082000807F682F690F81E193E00E948503F801C2
:1008300086816C2F0E94C4138295807F682F690F78
:1008400081E193E00E948503CF911F910F910C9459
:10085000470290E080E0089580919A0290919B0277
:100860006AE0689FA001699F500D11248091980251
:1008700090919902480F591F50938302409382022E
:100880008091960290919702689F9001699F300D28
:1008900011248091940290919502280F391F309372
:1008A000850220938402E0919202F09193026E9F60
:1008B000C0016F9F900D1124609190027091910280
:1008C000860F971F909387028093860241155105EA
:1008D00029F42115310511F40097E9F0483151054B
:1008E00014F047E150E050938302409382022C338E
:1008F000310514F02BE330E030938502209384021D
:100900008C33910514F08BE390E0909387028093F1
:10091000860280E0089581E008950E94A600C297B3
:10092000D4F00E94A60086399105BCF00E94A60072
:100930008E359140A4F00E94A600863292408CF041
:100940000E94A6008E3E924074F00E94A60081157F
:1009500094405CF0089580E0089581E0089582E07D
:10096000089583E0089584E0089585E008958F92C6
:100970009F92AF92BF920F931F93CF93DF93CDB708
:10098000DEB7A1970FB6F894DEBF0FBECDBF19A298
:10099000423008F44AE08E010F5D1F4F842E912CE7
:1009A000B12CA12CA50194010E94E413E62FB901FA
:1009B000CA01EA3044F5E05DD801EE938D01232BA6
:1009C000242B252B79F790E080E0109769F0FD014A
:1009D00001900020E9F73197AF014A1B5B0BBD0185
:1009E0008DE193E00E94B301A1960FB6F894DEBFAB
:1009F0000FBECDBFDF91CF911F910F91BF90AF90F0
:100A00009F908F900895E95CD7CFFC010190002062
:100A1000E9F73197AF01481B590BBC018DE193E019
:100A20000C94B301CF93DF93EC0160E08E810E94C0
:100A3000B70061E08E810E94B70060E08E810E9465
:100A4000B7008BE891E00197F1F7DF91CF9108951E
:100A5000CF92DF92EF92FF920F931F93CF93DF938A
:100A60006C017C0187E0E80EF11CD0E0C0E0062FAD
:100A700010E0B8010C2E02C0759567950A94E2F754
:100A80006170F70181917F010E94B7002196C43007
:100A9000D10579F7C601DF91CF911F910F91FF909A
:100AA000EF90DF90CF900C941205CF92DF92EF92EF
:100AB000FF920F931F93CF93DF93EC01F62E642FD9
:100AC0008C810E94B7008D818F3F19F060E00E94F9
:100AD000B7000F2D10E08F8584FF25C06E0187E0E1
:100AE000C80ED11CF12CE12CB8010E2C02C075955A
:100AF00067950A94E2F76170F60181916F010E9497
:100B0000B700FFEFEF1AFF0A88E0E816F10461F77B
:100B1000CE01DF91CF911F910F91FF90EF90DF9069
:100B2000CF900C941205B80184E0759567958A956D
:100B3000E1F7CE010E9428056F2DCE01DF91CF9104
:100B40001F910F91FF90EF90DF90CF900C942805AC
:100B500040E0682F8DE193E00C94550581E00E9400
:100B6000A8058BE39FE10197F1F70895CF93DF93F9
:100B7000823029F490912C03986090932C038093F9
:100B800030031092310380E48093320380E180933C
:100B9000330380E580933403809121030E94870012
:100BA000809122038F3F11F00E94870080912303E0
:100BB0000E948700CDE1D3E09E012D51334080910A
:100BC0002C0384FD0AC084E090E0219628173907A1
:100BD0003CF48E810E948700EFCF88E090E0F5CF53
:100BE0008BE39DE00197F1F760E0809121030E9483
:100BF000B70060E0809123030E94B7008091220338
:100C00008F3F19F060E00E94B70080912C0384FDB3
:100C100034C063E08DE193E00E942805CBE4D6E484
:100C2000CE010197F1F763E08DE193E00E94280582
:100C30002197F1F763E08DE193E00E94280583E5B9
:100C400092E00197F1F762E08DE193E00E942805C0
:100C500080912C0380620E94A80584E080932D037C
:100C60008CE00E94A8050E94AE0582E080932E03CE
:100C700086E0DF91CF910C94A80580620E94A805C0
:100C80008BE496E40197F1F780912C0380620E9437
:100C9000A80583E592E00197F1F780912C0380622B
:100CA0000E94A805D5CF90913003691710F06FEF1F
:100CB000690FE62FF0E0E35EFC4F9489890F8068AE
:100CC0000C94A80541E00E94550581E090E008954C
:100CD000CF92DF92EF92FF926C01990FEE08FF081E
:100CE000F7FE16C041E06DE28DE193E00E945505EC
:100CF00066277727CB016C197D098E099F094AE089
:100D00000E94B7040196FF90EF90DF90CF90089576
:100D10004AE0C701B601FF90EF90DF90CF900C94AE
:100D2000B70480919A0290919B020E94680680917C
:100D30009802909199020E94680682E391E00E94D5
:100D4000050580919602909197020E946806809115
:100D50009402909195020E94680682E391E00E94BD
:100D6000050580919202909193020E9468068091FD
:100D70009002909191020C9468068091AC0290913F
:100D8000AD020E9468068091AA029091AB020E9477
:100D9000680684E391E00E9405058091A802909185
:100DA000A9020E9468068091A6029091A7020E9463
:100DB000680684E391E00E9405058091A402909169
:100DC000A5020E9468068091A2029091A3020E944F
:100DD00068068091A0029091A1020E94680680910D
:100DE0009E0290919F020C946806EF92FF920F93DF
:100DF0001F93CF93DF93EC017B01198218821B8232
:100E00001A821D821C82FB0101900020E9F73197B4
:100E10008F01061B170BB8016F5F7F4F90E080E0DA
:100E20000E9445150097B9F0998388831B830A8334
:100E30002C813D81232B11F4FC0110821D830C8336
:100E4000B70188819981DF91CF911F910F91FF9018
:100E5000EF900C940B1688819981009711F00E94F5
:100E6000BC14198218821D821C821B821A82DF9197
:100E7000CF911F910F91FF90EF90089585ED809392
:100E8000BC008091E9029091EA02A091EB02B0913E
:100E9000EC020796A11DB11D23E0B695A795979585
:100EA00087952A95D1F72091BC0024FD03C01092AC
:100EB000E70208954091E9025091EA026091EB0245
:100EC0007091EC02452B462B472B69F30097A10547
:100ED000B10541F02AE22A95F1F700C00197A10976
:100EE000B109E1CF8091E8020C9426021F920F9283
:100EF0000FB60F9211242F933F938F939F93AF932D
:100F0000BF938091B1029091B202A091B302B091CF
:100F1000B4023091B00223E0230F2D3758F501962B
:100F2000A11DB11D2093B0028093B1029093B20233
:100F3000A093B302B093B4028091B5029091B6022F
:100F4000A091B702B091B8020196A11DB11D809386
:100F5000B5029093B602A093B702B093B802BF91C6
:100F6000AF919F918F913F912F910F900FBE0F9056
:100F70001F90189526E8230F0296A11DB11DD2CF10
:100F80001F920F920FB60F9211242F933F934F93FE
:100F90005F936F937F938F939F93AF93BF93EF93E1
:100FA000FF938091B900887F803609F44AC0F0F53C
:100FB000883209F4A7C018F5803109F49BC0B8F451
:100FC000882309F4F9C0883009F494C0FF91EF91A7
:100FD000BF91AF919F918F917F916F915F914F9151
:100FE0003F912F910F900FBE0F901F901895883151
:100FF00009F488C0803251F78093E50214C0803430
:1010000009F49DC040F48033B9F38833F9F6809336
:10101000E50285ECB0C0803509F485C0883509F457
:1010200096C0883499F60E943E07D0CF883909F4DB
:101030008CC038F5883729F050F4883611F08037A5
:1010400029F683E08093E70210925B0257C088384C
:1010500009F47BC0803919F0803809F0B7CF80914E
:101060005B02803208F071C0E0915B0281E08E0F7C
:1010700080935B028091BB00F0E0E55CFD4F8083D4
:101080003DC0803B39F0E0F4803A09F479C0883AF9
:1010900009F09CCF84E08093E70210923A0210920C
:1010A0003902E0915E02F0915F0209958091390268
:1010B00081110FC081E0809339021092190209C09A
:1010C000803C09F4A6CF883C09F4A3CF883B09F003
:1010D0007DCFE0913A0281E08E0F80933A02F0E0FA
:1010E000E75EFD4F80818093BB0090913A02809132
:1010F000390229C08091C2028093BB0085EC8093A5
:10110000BC0064CF9091E4028091E302981758F5F7
:10111000E091E40281E08E0F8093E402F0E0ED5371
:10112000FD4F8081E9CFE091E40281E08E0F809352
:10113000E4028091BB00F0E0ED53FD4F808390917D
:10114000E4028091E3029817C8F285E8D8CFE091D5
:10115000E40281E08E0F8093E4028091BB00F0E016
:10116000ED53FD4F80838091E60281115CCF81E0D9
:101170008093C10284EA8093BC001092E70226CFDC
:1011800085EC8093BC001092E70280915B02803274
:1011900030F4E0915B02F0E0E55CFD4F108260917D
:1011A0005B0270E0E0915C02F0915D028BE392E003
:1011B000099510925B020ACF1092E50234CFE1E16B
:1011C000F3E01382128288EE93E0A0E0B0E0848323
:1011D0009583A683B78388E191E091838083EDE1D5
:1011E000F3E0138212828AE291E09183808388E0A7
:1011F00084838FEF858389E0868384E0878385E01D
:10120000808786E0818787E082871386148615862B
:101210001686178681E00C94B605CF93DF93CDB781
:10122000DEB76B970FB6F894DEBF0FBECDBF7894D4
:1012300084B5826084BD84B5816084BD85B58260DB
:1012400085BD85B5816085BD80916E00816080938C
:101250006E001092810080918100826080938100F5
:101260008091810081608093810080918000816005
:10127000809380008091B10084608093B100809160
:10128000B00081608093B00080917A008460809388
:101290007A0080917A00826080937A0080917A004F
:1012A000816080937A0080917A00806880937A00D0
:1012B0001092C1008AE00E9487008FEF90E00E94A8
:1012C000030182E00E94B605109261021092600252
:1012D0001092EE02109210030E94080281EB91E03E
:1012E00090935F0280935E0282EB91E090935D02A7
:1012F00080935C020E94AE0560E080E00E9453068D
:1013000086E391E00E94050561E080E00E945306BB
:101310008BEA91E00E94050568EB7BE080E090E0BD
:101320000E947F010E94AE0560E080E00E945306AB
:1013300087E491E00E94050561E080E00E94530689
:1013400086E591E00E94050568EB7BE080E090E097
:101350000E947F010E94AE0509E010E09924939459
:101360009E012F5F3F4F79013AE7232E31E0332E64
:1013700047E8442E41E0542E3E0131E1630E711CDA
:101380009092ED0288E680930F031092EE02109285
:10139000100360E081E193E00E9485030E94470210
:1013A0000E945A015B016C018091E702811164C0C7
:1013B0009092E7029092E6028FEF8093E5021092FE
:1013C000E40286E08093E3029092C2028091C2021E
:1013D000806D8093C2028091C102813009F0EBC020
:1013E0001092C1020E945A015B016C018091C202FD
:1013F0008093BB008091E9029091EA02A091EB02F8
:10140000B091EC02892B8A2B8B2BA1F00E945A0100
:101410002091E9023091EA024091EB025091EC02F6
:101420006A197B098C099D09261737074807590750
:1014300008F443C08091BC0083FDD8CF85EC809335
:10144000BC000E945A015B016C018091E70281306F
:1014500009F4B3C08091E402873008F0D0C08091D5
:10146000E402E3ECF2E0A2E6B2E090E0981751F17A
:1014700021912D939F5FFACF8091E9029091EA022A
:10148000A091EB02B091EC02892B8A2B8B2B09F4F3
:101490008BCF0E945A012091E9023091EA024091DB
:1014A000EB025091EC026A197B098C099D09261701
:1014B00037074807590708F077CF8091E8020E9464
:1014C000260280E0109261028093600281E193E045
:1014D0000E943E03982F929597702AE0D22E8F702B
:1014E0009D9D800D11248093B90281E193E00E94BB
:1014F0003E03982F92959F708F709D9D800D1124B3
:101500008093BA0281E193E00E943E03982F929566
:1015100093708F709D9D800D11248093BB0281E19B
:1015200093E00E943E03982F92959F708F709D9D2F
:10153000800D11248093BC0281E193E00E943E0360
:10154000982F92959F708F709D9D800D1124809390
:10155000BD0281E193E00E943E03982F92959F7017
:101560008F709D9D800D11248093BE0281E193E0D8
:101570000E943E03982F92959F708F709D9D800DC5
:10158000112490E09093C0028093BF0260E080E05D
:101590000E945306E091BC02E150E730B8F5F0E05C
:1015A000EC52F54F0C940614010BC90BCC0BCF0B6E
:1015B000D20BD50BD80B85EE42CF8091E9029091EA
:1015C000EA02A091EB02B091EC02892B8A2B8B2BC3
:1015D00009F43BCF0E945A012091E9023091EA02BE
:1015E0004091EB025091EC026A197B098C099D092C
:1015F000261737074807590708F027CF5ECF87E03F
:1016000030CF64E671E0C7010E94F5064D815E812E
:1016100069817A818DE193E00E94B30189819A8189
:10162000009711F00E94BC1482E192E00E9405052F
:101630008091BF029091C0028053984F9F938F93E7
:101640008091BE021F928F938091BD021F928F9353
:101650003F922F92FF92EF920E941216C7010E94B2
:10166000050561E080E00E9453068091B9021F9257
:101670008F938091BA021F928F938091BB021F9229
:101680008F935F924F927F926F920E941216C301C6
:101690000E9405050E948D040FB6F894DEBF0FBEB0
:1016A000CDBF843009F06EC70E94AE0560E080E0D7
:1016B0000E94530686E991E00E94050561E080E002
:1016C0000E94530686EA91E00E94050568EB7BE0E4
:1016D00080E090E00E947F010E94AE0560E080E023
:1016E0000E94530687EB91E00E94050561E080E0CF
:1016F0000E94530682EE91E00E94050568EB7BE0B4
:1017000080E090E00E947F010E94AE0560E080E0F2
:101710000E94530688EC91E00E94050561E080E09C
:101720000E94530689ED91E00E94050568EB7BE07D
:1017300080E090E00E947F010E94AE0560E086E0BC
:101740000E94530689EE91E00E94050561E083E066
:101750000E9453068EEE91E00E94050568EE73E04C
:1017600080E090E00E947F01E091AE02F091AF0234
:10177000E830F105E8F7EF53F44F60E086E00C94B1
:101780000614DB0BDA0C3F0D910DE30D350E870EC1
:10179000D90E67E671E037CF6AE671E034CF6DE6C7
:1017A00071E031CF61E771E02ECF64E771E02BCFBC
:1017B00067E771E028CF0E94530689EE91E00E940E
:1017C000050561E083E00E9453060E94BD0662E3C6
:1017D00070E080E090E00E947F0161E083E00E9481
:1017E000530682E192E00E94050562E370E080E02A
:1017F00090E00E947F010E948D04813099F48091D5
:10180000AC029091AD02893091050CF0C9C00196EF
:101810009093AD028093AC0264EF71E080E090E0C1
:101820000E947F010E948D04823099F48091AC0265
:101830009091AD02181619060CF0B7C0019790935D
:10184000AD028093AC0264EF71E080E090E00E9412
:101850007F010E948D0481110FC08091AE02909192
:10186000AF0201969093AF028093AE0264EF71E0F5
:1018700080E090E00E947F010E948D04843009F096
:1018800073CF64EF71E080E090E00E947F010E94DE
:10189000B4030E94AE0560E085E00E94530689EF24
:1018A00091E00E94050561E084E00E94530680E01B
:1018B00092E00E94050568EE73E080E090E00E94EF
:1018C0007F0180919C0290919D028230910509F4E4
:1018D00075C40CF0CFC2009709F43FC38130910565
:1018E000A1F760E085E00E94530689EF91E00E9435
:1018F000050561E084E00E9453060E94910662E3C0
:1019000070E080E090E00E947F0161E085E00E944D
:10191000530682E192E00E94050562E370E080E0F8
:1019200090E00E947F010E948D04813099F48091A3
:10193000980290919902893091050CF035C4019676
:10194000909399028093980264EF71E080E090E0B8
:101950000E947F010E948D04823099F48091980248
:1019600090919902181619060CF023C401979093D0
:1019700099028093980264EF71E080E090E00E9409
:101980007F010E948D04833009F037C380919C024F
:1019900090919D02019790939D0280939C0227C392
:1019A0001092AD021092AC0237CF1093AD020093AB
:1019B000AC0249CF0E94530689EE91E00E940505D2
:1019C00061E083E00E9453060E94BD0662E370E07E
:1019D00080E090E00E947F0161E084E00E94530675
:1019E00082E192E00E94050562E370E080E090E011
:1019F0000E947F010E948D04813091F48091AA029F
:101A00009091AB028930910584F501969093AB02D9
:101A10008093AA0264EF71E080E090E00E947F0171
:101A20000E948D04823091F48091AA029091AB02C1
:101A300018161906FCF401979093AB028093AA0242
:101A400064EF71E080E090E00E947F010E948D04CD
:101A5000833009F0FECE8091AE029091AF020197E3
:101A60009093AF028093AE02EECE1092AB02109232
:101A7000AA02D0CF1093AB020093AA02E1CF0E943A
:101A8000530689EE91E00E94050561E083E00E9423
:101A900053060E94BD0662E370E080E090E00E9481
:101AA0007F0161E086E00E94530682E192E00E949D
:101AB000050562E370E080E090E00E947F010E94F3
:101AC0008D04813091F48091A8029091A90289300F
:101AD0009105ECF401969093A9028093A80264EF1B
:101AE00071E080E090E00E947F010E948D048230CE
:101AF00009F0ACCF8091A8029091A902181619069E
:101B00005CF401979093A9028093A80299CF109258
:101B1000A9021092A802E3CF1093A9020093A80291
:101B20008FCF0E94530689EE91E00E94050561E087
:101B300083E00E9453060E94BD0662E370E080E0ED
:101B400090E00E947F0161E087E00E94530682E1FD
:101B500092E00E94050562E370E080E090E00E9460
:101B60007F010E948D04813091F48091A6029091B2
:101B7000A70289309105ECF401969093A702809317
:101B8000A60264EF71E080E090E00E947F010E9475
:101B90008D04823009F05ACF8091A6029091A7025D
:101BA000181619065CF401979093A7028093A60279
:101BB00047CF1092A7021092A602E3CF1093A7027C
:101BC0000093A6023DCF0E94530689EE91E00E9449
:101BD000050561E083E00E9453060E94BD0662E3B2
:101BE00070E080E090E00E947F0161E089E00E9467
:101BF000530682E192E00E94050562E370E080E016
:101C000090E00E947F010E948D04813091F48091C8
:101C1000A4029091A50289309105ECF4019690936D
:101C2000A5028093A40264EF71E080E090E00E943E
:101C30007F010E948D04823009F008CF8091A402B8
:101C40009091A502181619065CF401979093A502CD
:101C50008093A402F5CE1092A5021092A402E3CFC5
:101C60001093A5020093A402EBCE0E94530689EEC6
:101C700091E00E94050561E083E00E9453060E9406
:101C8000BD0662E370E080E090E00E947F0161E0C9
:101C90008AE00E94530682E192E00E94050562E319
:101CA00070E080E090E00E947F010E948D0481300E
:101CB00091F48091A2029091A30289309105ECF4F5
:101CC00001969093A3028093A20264EF71E080E0FA
:101CD00090E00E947F010E948D04823009F0B6CE10
:101CE0008091A2029091A302181619065CF4019744
:101CF0009093A3028093A202A3CE1092A30210920B
:101D0000A202E3CF1093A3020093A20299CE0E94F5
:101D1000530689EE91E00E94050561E083E00E9490
:101D200053060E94BD0662E370E080E090E00E94EE
:101D30007F0161E08BE00E94530682E192E00E9405
:101D4000050562E370E080E090E00E947F010E9460
:101D50008D04813091F48091A0029091A10289308C
:101D60009105ECF401969093A1028093A00264EF98
:101D700071E080E090E00E947F010E948D0482303B
:101D800009F064CE8091A0029091A1021816190664
:101D90005CF401979093A1028093A00251CE10921F
:101DA000A1021092A002E3CF1093A1020093A0021F
:101DB00047CE0E94530689EE91E00E94050561E03E
:101DC00083E00E9453060E94BD0662E370E080E05B
:101DD00090E00E947F0161E08CE00E94530682E166
:101DE00092E00E94050562E370E080E090E00E94CE
:101DF0007F010E948D04813091F480919E02909128
:101E00009F028930910564F5019690939F0280931B
:101E10009E0264EF71E080E090E00E947F010E94EA
:101E20008D04823091F480919E0290919F02181649
:101E30001906DCF4019790939F0280939E0264EF51
:101E400071E080E090E00E947F010E948D04833069
:101E500009F012CD8091AE029091AF02019702CDB0
:101E600010929F0210929E02D4CF10939F02009373
:101E70009E02E5CF8430910509F448C20CF4F2C10A
:101E80008530910509F021CD60E085E00E94530680
:101E900089EF91E00E94050561E084E00E9453060D
:101EA0000E94910662E370E080E090E00E947F0172
:101EB00061E08BE00E94530682E192E00E940505FA
:101EC00062E370E080E090E00E947F010E948D0458
:101ED000813099F48091900290919102893091051E
:101EE0000CF068C20196909391028093900264EF87
:101EF00071E080E090E00E947F010E948D048230BA
:101F000099F48091900290919102181619060CF0A4
:101F100056C20197909391028093900264EF71E012
:101F200080E090E00E947F010E948D04833079F46C
:101F300080919C0290919D02019790939D028093C5
:101F40009C0264EF71E080E090E00E947F010E94BB
:101F50008D04843009F0B5CC6AC060E085E00E9451
:101F6000530689EF91E00E94050561E084E00E943C
:101F700053060E94910662E370E080E090E00E94C8
:101F80007F0161E084E00E94530682E192E00E94BA
:101F9000050562E370E080E090E00E947F010E940E
:101FA0008D04813099F480919A0290919B0289303E
:101FB00091050CF0EFC0019690939B0280939A02DA
:101FC00064EF71E080E090E00E947F010E948D0448
:101FD000823099F480919A0290919B02181619060A
:101FE0000CF0DDC0019790939B0280939A0264EFFE
:101FF00071E080E090E00E947F010E948D048111D9
:102000000FC080919C0290919D02019690939D0239
:1020100080939C0264EF71E080E090E00E947F0179
:102020000E948D04843009F04CCC0E942C048CE07A
:10203000E8E0F1E0D70101900D928A95E1F78091F7
:102040008E0290918F0220918C0230918D02FC01C2
:102050003197A0908A02B0908B02690103970CF02F
:10206000B3C1B1E0CB1AD108B601D7FE02C06D5F93
:102070007F4F9B0135952795359527952C0D3D1D57
:10208000C6016CE97FEF0E94D013260F371FC601EF
:1020900060E971E00E94D013260F371FEE0DFF1D7F
:1020A0008081820F932F911D8A0D9B1D67E070E048
:1020B0000E94D0130196909389028093880264EF66
:1020C00071E080E090E00E947F018091AC029091ED
:1020D000AD02EAE0E89F9001E99F300D1124809164
:1020E000AA029091AB02280F391F30938B022093E4
:1020F0008A028091A8029091A902E89FA001E99F1D
:10210000500D11248091A6029091A702840F951F73
:1021100090938F0280938E026091A4027091A50229
:10212000A8EEB3E06A9FA0016B9F500D7A9F500DFF
:1021300011246091A2027091A302F4E6F69F60015F
:10214000F79FD00C1124C40ED51E6091A00270918F
:10215000A102E69FA001E79F500D1124C40ED51ED9
:1021600040919E0250919F02C40ED51ED0928D02C6
:10217000C0928C022115310509F046C1009709F083
:1021800046C1BB24B394C114D10409F474C181E0E5
:1021900090E03DC110929B0210929A0211CF1093D1
:1021A0009B0200939A0223CF1092990210929802F8
:1021B000CBCB1093990200939802DDCB60E085E0D1
:1021C0000E94530689EF91E00E94050561E084E0DA
:1021D0000E9453060E94910662E370E080E090E066
:1021E0000E947F0161E087E00E94530682E192E055
:1021F0000E94050562E370E080E090E00E947F01AC
:102200000E948D04813091F4809196029091970202
:1022100089309105ECF40196909397028093960291
:1022200064EF71E080E090E00E947F010E948D04E5
:10223000823009F0A6CB80919602909197021816F1
:1022400019065CF40197909397028093960293CBC2
:102250001092970210929602E3CF10939702009388
:10226000960289CB60E085E00E94530689EF91E0F9
:102270000E94050561E084E00E9453060E949106D9
:1022800062E370E080E090E00E947F0161E088E01E
:102290000E94530682E192E00E94050562E370E02D
:1022A00080E090E00E947F010E948D04813091F4D3
:1022B000809194029091950289309105ECF40196F9
:1022C000909395028093940264EF71E080E090E037
:1022D0000E947F010E948D04823009F052CB8091D0
:1022E000940290919502181619065CF40197909348
:1022F0009502809394023FCB109295021092940223
:10230000E3CF109395020093940235CB60E085E013
:102310000E94530689EF91E00E94050561E084E088
:102320000E9453060E94910662E370E080E090E014
:102330000E947F0161E08AE00E94530682E192E000
:102340000E94050562E370E080E090E00E947F015A
:102350000E948D04813091F48091920290919302B9
:1023600089309105ECF40196909393028093920248
:1023700064EF71E080E090E00E947F010E948D0494
:10238000823009F0FECA8091920290919302181651
:1023900019065CF401979093930280939202EBCA22
:1023A0001092930210929202E3CF10939302009343
:1023B0009202E1CA109291021092900298CD10936D
:1023C000910200939002AACD37FF03C043E0C40EF0
:1023D000D11CD594C794D594C794C20ED31EC901FD
:1023E0006CE97FEF0E94D013C60ED71EC90160E9C9
:1023F00071E00E94D013C60ED71EEE0DFF1D808126
:102400008C0D9D2D911D50CE009709F4C0CE582FF4
:10241000492F8D30910514F05CE040E050938E021E
:1024200040938F022115310511F421E030E0309303
:102430008B0220938A02AC014D7F4130510581F01F
:102440008530910569F0BC016750710962307105F2
:1024500038F08A30910521F08C3091050CF4D0C011
:10246000203231050CF4CCC02FE130E030938B02E8
:1024700020938A02B12C0E942C04B11010C09091BC
:102480008A0220918E02A0EDCA1AA7E0DA0AD09241
:10249000C002C092BF022093BE029093BD02811180
:1024A0000CC0809186029091840220918202209338
:1024B000BB029093BA028093B902809188028F5F29
:1024C0008093BC020E94B40310928B0210928A0285
:1024D00010928F0210928E0210928D0210928C0236
:1024E000109283021092820210928502109284024E
:1024F00010928702109286021092AD021092AC02E6
:102500001092AB021092AA021092A9021092A80295
:102510001092A7021092A6021092A5021092A40295
:102520001092A3021092A2021092A1021092A00295
:1025300010929F0210929E0210929B0210929A0299
:10254000109299021092980210929702109296029D
:10255000109295021092940210929302109292029D
:1025600010929102109290021092890210928802A9
:102570001092AF021092AE0210929D0210929C0235
:102580000E94AE050E948D04813009F072C00E9445
:10259000AE050E948D04813009F063C08091000176
:1025A000909101018F3F910529F0019690930101CF
:1025B0008093000162E370E080E090E00E947F0180
:1025C00060E080E00E94530689E092E00E940505E9
:1025D00080910001909101018A309105E4F584E138
:1025E00092E00E94050580910001909101010E94F6
:1025F000680680910001909101010E940301C9CFFA
:102600004430510519F04930510551F42F3131054D
:102610003CF08EE190E090938B0280938A022ACF67
:10262000029709F027CFC60181579E4F8F31934003
:1026300030F42E3131051CF02DE130E017CFC6010A
:102640000396079708F416CF2D3131050CF412CFFD
:102650008CE190E0E0CF843691054CF685E192E084
:10266000C0CF68EE73E080E090E00E947F010E949E
:10267000AE050E948D04823009F045C00E94AE056F
:102680000E948D048230B9F5809100019091010182
:10269000009729F00197909301018093000162E374
:1026A00070E080E090E00E947F0160E080E00E94A6
:1026B000530689E092E00E94050580910001909107
:1026C00001018A3091058CF484E192E00E940505B5
:1026D00080910001909101010E94680680910001A3
:1026E000909101010E940301CBCF84369105A4F79C
:1026F00085E192E0EBCF68EE73E080E090E00E942D
:102700007F010E94AE0580E090E0892B11F40C94CB
:10271000C0090E9400000C94AE092F923F924F9284
:102720005F926F927F928F929F92AF92BF92CF9261
:10273000DF92EF92FF920F931F93CF93DF93CDB76A
:10274000DEB7CA1BDB0B0FB6F894DEBF0FBECDBFE2
:1027500009942A88398848885F846E847D848C84B3
:102760009B84AA84B984C884DF80EE80FD800C81BC
:102770001B81AA81B981CE0FD11D0FB6F894DEBF9F
:102780000FBECDBFED010895991B79E004C0991FDC
:10279000961708F0961B881F7A95C9F780950895BB
:1027A00097FB072E16F4009407D077FD09D00E94FE
:1027B0000C1407FC05D03EF4909581959F4F089529
:1027C000709561957F4F0895A1E21A2EAA1BBB1B3D
:1027D000FD010DC0AA1FBB1FEE1FFF1FA217B307ED
:1027E000E407F50720F0A21BB30BE40BF50B661F03
:1027F000771F881F991F1A9469F7609570958095C7
:1028000090959B01AC01BD01CF010895EE0FFF1F14
:102810000590F491E02D0994AA1BBB1B51E107C060
:10282000AA1FBB1FA617B70710F0A61BB70B881F60
:10283000991F5A95A9F780959095BC01CD010895EF
:102840000F931F93CF93DF938230910510F482E0B2
:1028500090E0E0913703F091380330E020E0B0E001
:10286000A0E0309799F42115310509F44AC0281BDE
:10287000390B24303105D8F58A819B8161157105AA
:1028800089F1FB0193838283FE0111C04081518154
:102890000281138148175907E0F04817590799F446
:1028A000109761F012960C93129713961C93329620
:1028B000CF01DF91CF911F910F91089500933703BE
:1028C00010933803F4CF2115310551F04217530707
:1028D00038F0A901DB019A01BD01DF01F801C1CF88
:1028E000EF01F9CF9093380380933703CDCFFE01EA
:1028F000E20FF31F8193919322503109398328838A
:10290000D7CF2091350330913603232B41F420910A
:102910000401309105013093360320933503209153
:102920000201309103012115310541F42DB73EB765
:102930004091060150910701241B350BE0913503AE
:10294000F0913603E217F307A0F42E1B3F0B281774
:10295000390778F0AC014E5F5F4F2417350748F018
:102960004E0F5F1F5093360340933503819391932D
:102970009FCFF0E0E0E09CCFCF93DF930097E9F0AA
:10298000FC01329713821282A0913703B091380371
:10299000ED0130E020E01097A1F420813181820F19
:1029A000931F20913503309136032817390709F01A
:1029B00061C0F0933603E0933503DF91CF91089522
:1029C000EA01CE17DF07E8F54A815B819E014115D8
:1029D0005105B1F7E901FB83EA8349915991C40F8D
:1029E000D51FEC17FD0761F4808191810296840F59
:1029F000951FE90199838883828193819B838A83D0
:102A0000F0E0E0E012968D919C9113970097B9F554
:102A10002D913C911197CD010296820F931F209129
:102A20003503309136032817390739F6309751F5B9
:102A30001092380310923703B0933603A0933503F6
:102A4000BCCFD383C28340815181840F951FC817A7
:102A5000D90761F44E5F5F4F88819981480F591FF4
:102A6000518340838A819B81938382832115310521
:102A700009F0B0CFF0933803E09337039ECFFD0108
:102A8000DC01C0CF13821282D7CFB0E0A0E0EBE42C
:102A9000F5E10C948F138C01009751F4CB010E9447
:102AA00020148C01C801CDB7DEB7E0E10C94AB1364
:102AB000FC01E60FF71F9C0122503109E217F307D2
:102AC00008F49DC0D901CD91DC911197C617D707A5
:102AD00098F0C530D10530F3CE01049786179707DB
:102AE00008F3C61BD70B2297C193D1936D937C93A8
:102AF000CF010E94BC14D6CF5B01AC1ABD0A4C01B9
:102B00008C0E9D1EA0913703B0913803512C412C9F
:102B1000F12CE12C109731F580913503909136031B
:102B20008815990509F05CC04616570608F058C08C
:102B30008091020190910301009741F48DB79EB7F7
:102B40004091060150910701841B950BE817F90786
:102B500008F055C0F0933603E0933503F901718313
:102B60006083A0CF8D919C91119712966C901297D3
:102B700013967C901397A815B90559F56C0142E09E
:102B8000C40ED11CCA14DB0420F1AC014A195B0944
:102B9000DA011296159780F0628273825183408326
:102BA000D9016D937C93E114F10471F0D701139670
:102BB000FC93EE93129776CF22968C0F9D1FF9010E
:102BC00091838083F301EFCFF0933803E0933703D1
:102BD00069CF4816590608F42C017D01D3019ACF1C
:102BE000CB010E9420147C01009749F0AE01B8018E
:102BF0000E940216C8010E94BC14870153CF10E046
:102C000000E050CFFB01DC0102C001900D92415069
:102C10005040D8F70895FB01DC0101900D9200208F
:102C2000E1F70895AEE0B0E0E8E1F6E10C949B1323
:102C30000D891E8986E08C831A8309838FEF9FE7B5
:102C40009E838D83AE01475E5F4F6F89788DCE0185
:102C500001960E9435162F813885020F131FF80147
:102C600010822E96E4E00C94B713ABE0B0E0EBE3F7
:102C7000F6E10C948D137C013B018A01FC01178263
:102C80001682838181FFC8C1CE0101965C01F701E4
:102C90009381F30193FD859193FF81913F018823F7
:102CA00009F453C1853239F493FD859193FF8191E5
:102CB0003F01853229F4B70190E00E942518E7CF43
:102CC000912C212C312CFFE1F31538F08B3211F1CE
:102CD00090F4803209F1833229F137FC3CC020EDB9
:102CE000280F2A3050F536FE20C08AE0989E200D2D
:102CF0001124922E06C08D3291F0803371F76894C2
:102D000030F8F30193FD859193FF81913F0181118B
:102D1000DACF21C0689431F8689432F8F2CF689421
:102D200033F8EFCF689434F8ECCFEAE02E9E200D14
:102D30001124222E689435F8E4CF8E3229F436FC23
:102D400004C1689436F8DDCF8C3619F4689437F8EE
:102D5000D8CF8836B1F2982F9F7D95549330E0F00C
:102D60008336A1F18337C1F1833509F063C02801AF
:102D7000F2E04F0E511CF801C080D180692D70E047
:102D800036FC02C06FEF7FEFC6010E940F184C01A6
:102D9000689437F882010AC00C5F1F4FFFE3F98384
:102DA00088248394912C6501E89437F833FE2DC074
:102DB000522C8114910471F5552009F468CFB701A4
:102DC00080E290E00E9425185A94F6CFF8018081A5
:102DD00089830E5F1F4FE4CF2801F2E04F0E511C94
:102DE000F801C080D180692D70E036FC02C06FEF21
:102DF0007FEFC6010E941A184C018201D5CFB7019E
:102E000080E290E00E9425182A942814190409F001
:102E1000B0F7CECFF60137FC859137FE81916F0177
:102E2000B70190E00E94251851105A94F1E08F1AD2
:102E30009108BFCF843619F0893609F077C0F801C0
:102E400037FE6BC060817181828193810C5F1F4F5F
:102E5000F32DFF763F2E97FF09C0909580957095D2
:102E600061957F4F8F4F9F4F689437F82AE030E08D
:102E7000A5010E945518C82ECA188C2C432C36FE6A
:102E80000CC0E89440F8C91440F434FE05C032FC8C
:102E900003C0F32DFE7E4F2E892C44FE95C0FE010B
:102EA000EC0DF11D8081803309F087C0242D297E2F
:102EB000422E842D8870582E43FC95C040FE8FC052
:102EC0009C2C821418F42C0C922C981844FE91C05F
:102ED000B70180E390E00E94251842FE09C088E710
:102EE00090E041FE02C088E590E0B7010E942518FD
:102EF000C91408F48AC0CA94D12C9FEFC91AD90A00
:102F0000CA0CDB1CF60182916F01B70190E00E94B0
:102F10002518AC14BD04B1F74FCF60817181072E25
:102F2000000C880B990B0E5F1F4F92CFD32CE894A7
:102F3000D4F82AE030E0853739F1232D297FD22ECD
:102F40008F3601F148F48835A9F0F7018681978121
:102F50002B96E2E10C94A913803749F08837A9F742
:102F6000D4FE02C06894D2F820E130E00DC068942D
:102F7000D4F8F6CF34FE03C0822F8660D82E20E12D
:102F800032E002C028E030E0F801D7FE0FC06081D7
:102F90007181828193810C5F1F4FA5010E9455189A
:102FA000C82ECA183D2CE89437F867CF608171812C
:102FB00090E080E00E5F1F4FF0CF42FC02C0839490
:102FC00078CF8394839475CF842D867809F471CF5C
:102FD000F6CFB70180E290E00E9425188394821416
:102FE000C0F3512C73CF522C5818821408F46ECFB2
:102FF000F8CF842D867809F47BCF8BE241FE80E206
:1030000047FC8DE2B70190E071CFB70180E390E01B
:103010000E9425189A946CCF8FEF9FEF99CFFC01F7
:103020000590615070400110D8F7809590958E0FF3
:103030009F1F0895FC016150704001900110D8F766
:10304000809590958E0F9F1F08950F931F93CF9398
:10305000DF93182F092FEB018B8181FD09C01FEF32
:103060000FEF812F902FDF91CF911F910F91089536
:1030700082FF14C02E813F818C819D8128173907E2
:103080003CF4E881F981CF0101969983888310830C
:103090008E819F8101969F838E83E3CFE885F9859A
:1030A000812F0995892BA1F3DACFFA01AA272830BD
:1030B00051F1203181F1E8946F936E7F6E5F7F4F05
:1030C0008F4F9F4FAF4FB1E03ED0B4E03CD0670F81
:1030D000781F891F9A1FA11D680F791F8A1F911DD4
:1030E000A11D6A0F711D811D911DA11D20D009F424
:1030F00068943F912AE0269F11243019305D319366
:10310000DEF6CF010895462F4770405D4193B3E04E
:103110000FD0C9F7F6CF462F4F70405D4A3318F0F5
:10312000495D31FD4052419302D0A9F7EACFB4E0A6
:10313000A6959795879577956795BA95C9F700975E
:103140006105710508959B01AC010A2E06945795FF
:10315000479537952795BA95C9F7620F731F841F56
:10316000951FA01D0895F894FFCFFF0000003903BC
:1031700080000003020500030501040602040000AC
:1031800000008503580329042E0351033E032F0337
:10319000000000006206B3012904E0013A002E009D
:1031A00053454C4543543A20497A6D656E697427FE
:1031B0000055502F444F574E3A20497A6D652D00E7
:1031C0006E697427207961726B6F73742700506E7B
:1031D00000567400537200436874005074005362C8
:1031E00000567300253032642E253032642E25645B
:1031F00000253032643A253032643A25303264009A
:1032000053454C4543543A20557374616E6F2D00FD
:103210007669742720646174752F7672656D2761F5
:103220000055502F444F574E3A204D656E2761741C
:1032300027004C4546542F52494748543A20506580
:103240007265006B6C7563686174272074736966BE
:10325000727500446174610044442E4D4D2E5959DD
:103260005959005672656D27610048483A4D4D3AEC
:103270005353005961726B6F7374273A20003030DA
:0232800000004C
:107E0000112484B714BE81FFF0D085E080938100F7
:107E100082E08093C00088E18093C10086E0809377
:107E2000C20080E18093C4008EE0C9D0259A86E02C
:107E300020E33CEF91E0309385002093840096BBD3
:107E4000B09BFECF1D9AA8958150A9F7CC24DD24C4
:107E500088248394B5E0AB2EA1E19A2EF3E0BF2EE7
:107E6000A2D0813461F49FD0082FAFD0023811F036
:107E7000013811F484E001C083E08DD089C08234E0
:107E800011F484E103C0853419F485E0A6D080C0E4
:107E9000853579F488D0E82EFF2485D0082F10E0AE
:107EA000102F00270E291F29000F111F8ED06801E7
:107EB0006FC0863521F484E090D080E0DECF843638
:107EC00009F040C070D06FD0082F6DD080E0C81688
:107ED00080E7D80618F4F601B7BEE895C0E0D1E017
:107EE00062D089930C17E1F7F0E0CF16F0E7DF06D8
:107EF00018F0F601B7BEE89568D007B600FCFDCFD4
:107F0000A601A0E0B1E02C9130E011968C91119780
:107F100090E0982F8827822B932B1296FA010C0160
:107F200087BEE89511244E5F5F4FF1E0A038BF0790
:107F300051F7F601A7BEE89507B600FCFDCF97BE46
:107F4000E89526C08437B1F42ED02DD0F82E2BD052
:107F50003CD0F601EF2C8F010F5F1F4F84911BD097
:107F6000EA94F801C1F70894C11CD11CFA94CF0C13
:107F7000D11C0EC0853739F428D08EE10CD085E9AC
:107F80000AD08FE07ACF813511F488E018D01DD067
:107F900080E101D065CF982F8091C00085FFFCCF94
:107FA0009093C60008958091C00087FFFCCF809118
:107FB000C00084FD01C0A8958091C6000895E0E648
:107FC000F0E098E1908380830895EDDF803219F02E
:107FD00088E0F5DFFFCF84E1DECF1F93182FE3DFCA
:107FE0001150E9F7F2DF1F91089580E0E8DFEE27F6
:047FF000FF270994CA
:027FFE00040479
:00000001FF
